:020000040800F2
:1000000000200010A1120008891200088B120008BD
:100010008D1200088F1200089112000800000000E5
:100020000000000000000000000000009312000823
:1000300095120008000000009712000899120008AD
:10004000BD120008C1120008C5120008C91200083C
:10005000CD120008D1120008D5120008D9120008EC
:10006000DD120008E1120008E5120008E91200089C
:10007000ED120008F1120008F5120008F91200084C
:10008000FD120008011300080513000809130008F9
:100090000D130008111300081513000819130008A8
:1000A0001D13000821130008251300082913000858
:1000B0002D13000831130008351300083913000808
:1000C0003D130008411300084513000849130008B8
:1000D0004D13000851130008551300085913000868
:1000E0005D13000861130008651300086913000818
:1000F0006D130008711300087513000879130008C8
:100100007D13000881130008851300088913000877
:100110008D13000891130008951300089913000827
:100120009D130008A1130008A5130008A9130008D7
:10013000AD130008B1130008B5130008B913000887
:10014000BD130008C1130008C5130008C913000837
:10015000CD130008D1130008D5130008D9130008E7
:10016000DD130008E1130008E5130008E913000897
:10017000ED130008F1130008F5130008000000005B
:10018000F9130008FD13000810B410F00703DFF89E
:10019000C44322684FF6FF010A40DFF8BC1351EA5E
:1001A00003210A43226010BC7047DFF8A8030068EF
:1001B000C0F30220704710B4020052B2002A0AD5E0
:1001C0000A01DFF89833040064B214F00F042344EA
:1001D00003F8042C05E00A01DFF88433040064B25C
:1001E0001A5510BC704770B4030013F00704D4F123
:1001F0000700052801D3042001E0D4F10700251DE4
:10020000072D01D2002500E0E51E012616FA00F0B8
:10021000401E0140A94016FA05F56D1E2A40114303
:10022000080070BC704781B0CE490A6802430A607A
:10023000096801400091009901B07047042805D178
:10024000C9490A6852F004020A6004E0C6490A6813
:1002500032F004020A607047C4490A6832F48042EE
:1002600002430A607047C148016851F4807101601F
:100270007047BF48016851F4803101607047BC4845
:100280000068400C10F001007047BA48016851F056
:10029000010101607047B7480068400810F0010094
:1002A0007047B5490A689208920002430A60704795
:1002B000B148006810F00C007047AF490A6832F08E
:1002C000F00202430A607047AB490A6832F4E05218
:1002D00002430A607047A8490A6832F46042024348
:1002E0000A607047A5490A6832F4407202430A6006
:1002F0007047A248016851F40041016070479F486F
:10030000016851F48031016070479C48016831F404
:1003100080310160704798490A6832F4F81202434C
:100320000A6070479248016851F08071016070471F
:100330008F480068400E10F00100704770B4904D77
:100340002E68904C264006430E4356EA82162E60D5
:100350002C6834F440341C432C6070BC704770B47B
:10036000874D2E68884C264006430E4356EA821677
:100370001E432E6070BC704784490A68120912013E
:1003800002430A6070478148006810F00F00704710
:100390007E48016851F48071016070477B480168B4
:1003A00051F40071016070477848016851F4806130
:1003B0000160704780B50520FFF7DEFFFFF7E3FF20
:1003C000052803D01121724800F0F2F84FF4804064
:1003D000FFF742FFFFF74DFFFFF751FF0128FBD169
:1003E000FFF753FFFFF757FF0128FBD1FFF73BFF54
:1003F000FFF785FFFFF789FF4FF44070FFF772FFAB
:100400005FF40020FFF787FFFFF773FF0023A822A8
:1004100004215FF48000FFF791FF5FF0E063A82202
:1004200004215FF48000FFF79AFFFFF77BFFFFF7DF
:100430007FFF0128FBD10020FFF73FFF4FF4A050C2
:10044000FFF742FF4FF40040FFF745FF0220FFF7A0
:1004500028FFFFF72DFF0828FBD10420FFF7EEFE51
:100460004C4800F0A7F8FFF793FFFFF79DFFFFF759
:1004700095FF01BD80B55FF08050FFF7D4FE0320EB
:10048000FFF782FEFFF791FE00220021FFF7ABFE8F
:1004900001007FF00B00FFF78EFEFFF786FE0022C3
:1004A0000021FFF7A0FE01007FF00A00FFF783FEA6
:1004B000FFF77BFE00220021FFF795FE01007FF091
:1004C0000900FFF778FEFFF770FE00220021FFF71A
:1004D0008AFE01007FF00400FFF76DFEFFF765FE66
:1004E00000220021FFF77FFE01007FF00300FFF7ED
:1004F00062FEFFF75AFE00220021FFF774FE0100A2
:100500007FF00100FFF757FE01BD10B5FFF752FF66
:10051000FFF7B0FF00F05DF800F05FF800F075F84D
:100520001D4C1E4A1E49206800F073F8206800F038
:100530007AF810BD80B5FFF7E8FF4FF4FA7000F0CD
:100540007EF84FF4FA7000F07AF81648006800F070
:1005500082F8F2E70CED00E00000FA0518ED00E08B
:1005600000E400E04038024010E000E0007000408D
:1005700000380240743802400838024070380240A7
:10058000043802400080BFFF0080BFF0003C024002
:1005900058110008007A030A340000203F060008C2
:1005A000330600083C00002072B6704762B6704700
:1005B000FEE700000149086070470000400000208D
:1005C00038B504000D002900C9B2200000F052F82F
:1005D00031BD80B500F057F801BD80B500F057F887
:1005E00002BD10B50400200000F055F810BD80B524
:1005F00000F057F802BD10B50400200000F055F8D7
:1006000010BD80B500F057F802BD80B500F057F876
:1006100001BD70B504000D00160032002900200055
:1006200000F051F870BD10B50400200000F055F83E
:1006300010BD10B50400200000F05BF810BD10B52F
:100640000400200000F04FF810BD00004AF6AA2177
:10065000074A1160704710B504002068002801D1D6
:10066000034820602068FFF7F1FF002010BD000064
:100670000030004038B504000D002900C9B2200048
:1006800000F059F831BD80B500F0E2F801BD80B549
:1006900000F093F902BD10B50400200000F0B2F99B
:1006A00010BD80B500F0C3F902BD10B504002000F4
:1006B00000F0FDF910BD80B500F029FA02BD80B54B
:1006C00000F074FA01BD70B504000D001600320090
:1006D0002900200000F0BAFA70BD10B50400200017
:1006E00000F099FB10BD10B50400200000F0D6FB0F
:1006F00010BD10B50400200000F0E0FB10BD0000AC
:1007000081B068490A6802430A60096801400091A3
:10071000009901B0704763490A6882430A607047D4
:1007200081B061490A6802430A600968014000918A
:10073000009901B0704738B504000D005B48844251
:100740000BD12800C0B2002803D00120FFF7D8FF4A
:1007500002E00120FFF7DFFF79E0554884420BD12A
:100760002800C0B2002803D00220FFF7C9FF02E032
:100770000220FFF7D0FF6AE04E4884420BD12800E8
:10078000C0B2002803D00420FFF7BAFF02E0042023
:10079000FFF7C1FF5BE0484884420BD12800C0B29C
:1007A000002803D00820FFF7ABFF02E00820FFF786
:1007B000B2FF4CE0414884420BD12800C0B200286F
:1007C00003D01020FFF79CFF02E01020FFF7A3FFEB
:1007D0003DE03B4884420BD12800C0B2002803D042
:1007E0002020FFF78DFF02E02020FFF794FF2EE08E
:1007F000344884420BD12800C0B2002803D04020E6
:10080000FFF77EFF02E04020FFF785FF1FE02E4844
:1008100084420BD12800C0B2002803D08020FFF70B
:100820006FFF02E08020FFF776FF10E02748844248
:100830000DD12800C0B2002804D04FF48070FFF71B
:100840005FFF03E04FF48070FFF765FFFFE731BD06
:1008500080B501211548FFF76EFF01211448FFF70D
:100860006AFF01211348FFF766FF01211248FFF7D5
:1008700062FF01211148FFF75EFF01211048FFF7D9
:100880005AFF01210F48FFF756FF01210E48FFF7DD
:1008900052FF01210D48FFF74EFF4FF48040FFF754
:1008A0003FFF01BD303802404438024000000240A2
:1008B0000004024000080240000C02400010024008
:1008C0000014024000180240001C024000200240B8
:1008D00010B410F007039E4C22684FF6FF010A4047
:1008E0009C4951EA03210A43226010BC7047984892
:1008F0000068C0F30220704710B4020052B2002A10
:1009000009D50A01944B040064B214F00F04234487
:1009100003F8042C04E00A01904B040064B21A5559
:1009200010BC704770B4030013F00704D4F1070043
:10093000052801D3042001E0D4F10700251D072D6F
:1009400001D2002500E0E51E012616FA00F0401E47
:100950000140A94016FA05F56D1E2A401143080012
:1009600070BC7047B0FBF1F2521E7D4B1A60002242
:100970007C4B1A6005227C4B1A6070477A480168EC
:1009800031F002010160002070477748016851F0A2
:100990000201016000207047010000200860002073
:1009A0004860002088600020C860002008610020A6
:1009B0004861002088610020704710B56B4C2068AA
:1009C000FFF7EAFFFFF7DAFF4FF47A716848006833
:1009D000FFF7C8FF0320FFF77BFFFFF788FF002228
:1009E0000021FFF79FFF01005FF0FF30FFF784FF5A
:1009F000FFF7CBFF01205F4908705F48216848611D
:100A0000002010BD38B50400584D286800280CD0CF
:100A10002868446028684068002804D05748006867
:100A2000FFF719FEF6E7002000E0012032BD10B507
:100A30004E4C2068002838D020680068401C21688F
:100A400008602068C068401C2168C8602068006891
:100A5000002804D120688068401C216888602068D4
:100A60004069002802D020684069804720680069FA
:100A700000280FD0206800692168C968884209D120
:100A800020688069002805D000202168C86020689F
:100A90008069804720684068002804D0206840684A
:100AA000401E21684860002000E0012010BD2DE9B3
:100AB000F04704002A4D2E682B4FD7F80080DFF84E
:100AC000A490D9F800A004203860294800682C4977
:100AD000B0FBF1F0401E00FB04F028600020C9F8D4
:100AE0000000386850F0010038603868C00304D452
:100AF00022480068FFF7AFFDF7E7042038602E605A
:100B0000C9F800A0C7F800800020BDE8F0871648AB
:100B1000006840070CD512480068154909684FF471
:100B20007A72B1FBF2F1491E88420FD001200EE02B
:100B30000B4800680E4909684FF47A72B1FBF2F174
:100B4000C908491E884201D0012000E000207047FA
:100B50000CED00E00000FA0518ED00E000E400E014
:100B600014E000E018E000E010E000E044000020A5
:100B7000400000204C000020711200083C000020C2
:100B800040420F0081B010490A6802430A600968B8
:100B900001400091009901B07047016851F00401D3
:100BA00001607047406810F00100704710B54020A8
:100BB000FFF7E8FF054C2000FFF7EFFF2000FFF7ED
:100BC000F1FF0128FAD110BD343802400008065068
:100BD00000690840884201D1012000E00020C0B235
:100BE0007047816170470A048261704701000020EC
:100BF0004861002008610020486000200860002053
:100C0000704710B586B00400002C02D0E0680028C0
:100C100001D1012018E00121E068FFF7D1FCA068B4
:100C200000900120019002200290012003900120F9
:100C30000490002005906946E06800F00EFAA16873
:100C4000E068FFF7CEFF002006B010BD70B50400CD
:100C50000D0016002000FFF7C9FF002C06D0114838
:100C60000068844202D1200000F013F82000FFF752
:100C7000C8FF2800002801D0256101E00A48206152
:100C80003000002801D0666101E008486061002062
:100C900070BD01004FF4804088600548C8600020A6
:100CA0007047000034000020330600083F060008AB
:100CB0000004024010B50400A168E068FFF791FF4E
:100CC0002069002802D0022021698847A168E068D5
:100CD000FFF789FF6069002802D014206169884706
:100CE000A168E068FFF77DFF2069002802D01E2080
:100CF00021698847002010BD70B504000025A16857
:100D0000E068FFF765FF00280AD02069002802D0BC
:100D10000120216988476D1C2800C0B2C928EEDB7C
:100D20002800C0B2C92801DB012018E00026A16814
:100D3000E068FFF74DFF00280AD12069002802D0A3
:100D4000012021698847761C3000C0B2C928EEDB3B
:100D50003000C0B2C92801DB012000E0002070BDD6
:100D600010B504002000FFF7A5FF2000FFF7C4FF27
:100D700010BD38B504000025A168E068FFF728FF22
:100D800000280CD02069002802D001202169884762
:100D90006D1C2800C0B29728EEDB002005002069FA
:100DA000002802D00A2021698847A168E068FFF77F
:100DB0000FFF00280CD12069002802D001202169F2
:100DC00088476D1C2800C0B29728EEDB0020050084
:100DD0002069002802D0322021698847A168E06894
:100DE000FFF7F6FE002801D0012000E0002032BD10
:100DF00070B505000021002000263100C9B2082985
:100E000007DA400004002800FFF7B3FF2043761CF8
:100E1000F3E7C0B270BD7CB5040068460021002233
:100E2000C0E9001200262000FFF79AFF002801D039
:100E3000012032E000252800C0B2052808DA200091
:100E4000FFF7D6FF69462A00D2B288546D1CF2E73C
:100E5000A168E068FFF7C5FE69469DF800004A7882
:100E600052FA80F08A788018CA7880180A799042FD
:100E700001D0022011E09DF8000060604FF47A720A
:100E80006368487802FB0303636088782060236806
:100E9000C87802FB03022260002076BD10B5040072
:100EA000002C0AD0FFF7ADFB002803D12000FFF78C
:100EB00098FB02E0200000F01EF810BD10B5040001
:100EC000002C17D0FFF770FB072C03D32000FFF78F
:100ED00092FB0DE0022C0BD3601E6043401C1549B1
:100EE0000968154AB1FBF2F1491E484300F016F8B3
:100EF000FFF75CFB10BD10B50400002C0CD02000E7
:100F0000441E002808D04FF47A70FFF7D7FF084836
:100F10000068FFF7A0FBF2E710BD0000002805D035
:100F20000100481E002901D000BFF9E7704700000A
:100F30003C0000204000002040420F00F0B4046854
:100F400091FAA1F5B5FA85F391FAA1F6B6FA86F70A
:100F50005FF0030CDBB25B001CFA03FC34EA0C0408
:100F6000FFB27B0012FA03F31C430460F0BC70472D
:100F700010B444688C4302FB01F31C43446010BC72
:100F80007047F0B4846891FAA1F5B5FA85F391FA47
:100F9000A1F6B6FA86F75FF0030CDBB25B001CFA31
:100FA00003FC34EA0C04FFB27B0012FA03F31C4387
:100FB0008460F0BC7047F0B4C46891FAA1F5B5FA4A
:100FC00085F391FAA1F6B6FA86F75FF0030CDBB26F
:100FD0005B001CFA03FC34EA0C04FFB27B0012FA3B
:100FE00003F31C43C460F0BC7047F0B4046A91FA88
:100FF000A1F5B5FA85F391FAA1F6B6FA86F75FF096
:101000000F0CDBB29B001CFA03FC34EA0C04FFB2A9
:10101000BB0012FA03F31C430462F0BC7047F0B447
:10102000446A0B001B0A93FAA3F5B5FA85F30E0088
:10103000360A96FAA6F6B6FA86F75FF00F0CDBB220
:101040009B001CFA03FC34EA0C04FFB2BB0012FA4A
:1010500003F31C434462F0BC7047F8B505000E0072
:1010600000200024316891FAA1F1B1FA81F7FFB2B2
:101070003068F840002832D030680121B94008407B
:101080000400002C29D0726821002800FFF756FFC9
:101090007068012802D07068022804D1B26821006B
:1010A0002800FFF76EFF326921002800FFF783FF59
:1010B0007068022811D194FAA4F0B0FA80F1C9B294
:1010C000082905D2726921002800FFF78EFF04E08D
:1010D000726921002800FFF7A2FF7F1CC8E7706833
:1010E000012802D07068022804D1F2683168280013
:1010F000FFF73EFF0120F2BD0F48016851F4700177
:1011000001600E49086850F00100086000200C4A98
:1011100010600A680B4802400A600B480B4A1060D6
:10112000086830F4802008600020094908605FF0FA
:10113000006008490860704788ED00E00038024010
:1011400008380240FFFFF6FE103000240438024049
:101150000C38024008ED00E04A3A5C53544D3332FB
:101160005F4D43555C53544D3332463430375C53F6
:10117000544D333246343037787850726F6A656335
:10118000745C4170706C69636174696F6E5C41502E
:10119000505C6D61696E2E630000000030B450F841
:1011A000041B79B10268436802440830DC0744BF7D
:1011B000A9F10104E31852F8045B43F8045B091F2A
:1011C000F9D1ECE730BC704710B5074979441831C4
:1011D000064C7C44163404E00A68081D1144884714
:1011E0000146A142F8D110BD2C0000003C000000D7
:1011F0004EF68851CEF20001086840F47000086095
:10120000BFF34F8FBFF36F8F4FF00070E1EE100A06
:101210007047000089FFFFFF50000000E40100005C
:10122000000000200000000000F00DF8002801D0B0
:10123000FFF7CAFFAFF300800020AFF30080FFF795
:1012400079F900F002F80120704700F001B80000C1
:101250000746384600F002F8FBE7000080B5AFF320
:101260000080024A11001820ABBEFBE726000200F6
:1012700003480168034A127889180160704700BF6B
:10128000480000204C0000207047FEE7FEE7FEE724
:10129000FEE770477047704780B5FFF7A8F901BDBA
:1012A0000148804701480047F9100008B1120008C2
:1012B000AFF30080FFF79CFFFFF7B6FFFFF7FEBF1D
:1012C000FFF7FEBFFFF7FEBFFFF7FEBFFFF7FEBF52
:1012D000FFF7FEBFFFF7FEBFFFF7FEBFFFF7FEBF42
:1012E000FFF7FEBFFFF7FEBFFFF7FEBFFFF7FEBF32
:1012F000FFF7FEBFFFF7FEBFFFF7FEBFFFF7FEBF22
:10130000FFF7FEBFFFF7FEBFFFF7FEBFFFF7FEBF11
:10131000FFF7FEBFFFF7FEBFFFF7FEBFFFF7FEBF01
:10132000FFF7FEBFFFF7FEBFFFF7FEBFFFF7FEBFF1
:10133000FFF7FEBFFFF7FEBFFFF7FEBFFFF7FEBFE1
:10134000FFF7FEBFFFF7FEBFFFF7FEBFFFF7FEBFD1
:10135000FFF7FEBFFFF7FEBFFFF7FEBFFFF7FEBFC1
:10136000FFF7FEBFFFF7FEBFFFF7FEBFFFF7FEBFB1
:10137000FFF7FEBFFFF7FEBFFFF7FEBFFFF7FEBFA1
:10138000FFF7FEBFFFF7FEBFFFF7FEBFFFF7FEBF91
:10139000FFF7FEBFFFF7FEBFFFF7FEBFFFF7FEBF81
:1013A000FFF7FEBFFFF7FEBFFFF7FEBFFFF7FEBF71
:1013B000FFF7FEBFFFF7FEBFFFF7FEBFFFF7FEBF61
:1013C000FFF7FEBFFFF7FEBFFFF7FEBFFFF7FEBF51
:1013D000FFF7FEBFFFF7FEBFFFF7FEBFFFF7FEBF41
:1013E000FFF7FEBFFFF7FEBFFFF7FEBFFFF7FEBF31
:1013F000FFF7FEBFFFF7FEBFFFF7FEBFFFF7FEBF21
:1014000000000000000000000000000000000000DC
:1014100000000000000000000000000000000000CC
:1014200000000000000000000000000000000000BC
:10143000000000001C0000200030004038000020A8
:101440000024F40000000020000000000100000063
:04000005080012B12C
:00000001FF
