:020000040800F2
:1000000050050020A9120008911200089312000860
:1000100095120008971200089912000800000000CD
:100020000000000000000000000000009B1200081B
:100030009D120008000000009F120008A112000895
:10004000C5120008C9120008CD120008D11200081C
:10005000D5120008D9120008DD120008E1120008CC
:10006000E5120008E9120008ED120008F11200087C
:10007000F5120008F9120008FD120008011300082B
:1000800005130008091300080D13000811130008D8
:1000900015130008191300081D1300082113000888
:1000A00025130008291300082D1300083113000838
:1000B00035130008391300083D13000841130008E8
:1000C00045130008491300084D1300085113000898
:1000D00055130008591300085D1300086113000848
:1000E00065130008691300086D13000871130008F8
:1000F00075130008791300087D13000881130008A8
:1001000085130008891300088D1300089113000857
:1001100095130008991300089D130008A113000807
:10012000A5130008A9130008AD130008B1130008B7
:10013000B5130008B9130008BD130008C113000867
:10014000C5130008C9130008CD130008D113000817
:10015000D5130008D9130008DD130008E1130008C7
:10016000E5130008E9130008ED130008F113000877
:10017000F5130008F9130008FD1300080000000043
:10018000011400080514000810B410F00703DFF88C
:10019000044422684FF6FF010A40DFF8FC1351EADD
:1001A00003210A43226010BC7047DFF8E8030068AF
:1001B000C0F30220704710B4020052B2002A0AD5E0
:1001C0000A01DFF8D833040064B214F00F042344AA
:1001D00003F8042C05E00A01DFF8C433040064B21C
:1001E0001A5510BC704770B4030013F00704D4F123
:1001F0000700052801D3042001E0D4F10700251DE4
:10020000072D01D2002500E0E51E012616FA00F0B8
:10021000401E0140A94016FA05F56D1E2A40114303
:10022000080070BC704781B0DFF878130A68024399
:100230000A60096801400091009901B070470428E4
:1002400005D1D9490A6852F004020A6004E0D6498F
:100250000A6832F004020A60704781617047D3492E
:100260000A6832F4804202430A607047CF4801684E
:1002700051F4807101607047CD48016851F48031BC
:1002800001607047CA480068400C10F001007047D8
:10029000C848016851F0010101607047C548006815
:1002A000400810F001007047C3490A6892089200A4
:1002B00002430A607047C048006810F00C007047A5
:1002C000BD490A6832F0F00202430A607047BA4939
:1002D0000A6832F4E05202430A607047B6490A687D
:1002E00032F4604202430A607047B4490A6832F44B
:1002F000407202430A607047B048016851F40041FF
:1003000001607047AD48016851F480310160704769
:10031000AA48016831F4803101607047A6490A6833
:1003200032F4F81202430A607047A148016851F0A4
:100330008071016070479E480068400E10F0010017
:10034000704770B49E4D2E689E4C264006430E4367
:1003500056EA82162E602C6834F440341C432C601C
:1003600070BC704770B4964D2E68974C264006437B
:100370000E4356EA82161E432E6070BC70479349A6
:100380000A681209120102430A6070478F48006828
:1003900010F00F0070478D48016851F480710160C2
:1003A00070478A48016851F40071016070478748BE
:1003B000016851F480610160704780B50520FFF746
:1003C000DEFFFFF7E3FF052803D01121804800F08E
:1003D0000FF94FF48040FFF742FFFFF74DFFFFF7A3
:1003E00051FF0128FBD1FFF753FFFFF757FF01280B
:1003F000FBD1FFF73BFFFFF785FFFFF789FF4FF4C6
:100400004070FFF772FF5FF40020FFF787FFFFF7F0
:1004100073FF0023A82204215FF48000FFF791FFFF
:100420005FF0E063A82204215FF48000FFF79AFFE9
:10043000FFF77BFFFFF77FFF0128FBD10020FFF7CD
:100440003FFF4FF4A050FFF742FF4FF40040FFF78B
:1004500045FF0220FFF728FFFFF72DFF0828FBD1FB
:100460000420FFF7ECFE5B4800F0C4F8FFF793FFB1
:10047000FFF79DFFFFF795FF01BD80B55FF080504E
:10048000FFF7D1FE0320FFF77FFEFFF78EFE00226D
:100490000021FFF7A8FE01007FF00B00FFF78BFEA5
:1004A000FFF783FE00220021FFF79DFE01007FF091
:1004B0000A00FFF780FEFFF778FE00220021FFF719
:1004C00092FE01007FF00900FFF775FEFFF76DFE59
:1004D00000220021FFF787FE01007FF00400FFF7F4
:1004E0006AFEFFF762FE00220021FFF77CFE01009A
:1004F0007FF00300FFF75FFEFFF757FE00220021A9
:10050000FFF771FE01007FF00100FFF754FE01BD0F
:1005100010B586B0FFF751FFFFF7AFFF00F079F895
:1005200000F07BF800F091F82B4C0121200000F046
:1005300067F84FF4005000900120019000200290D5
:1005400000200390012004900020059069462000BF
:1005500000F00FF94FF400512000FFF77EFE1F4C12
:100560001F4A2049206800F091F9206800F073FAD2
:1005700006B010BD80B5FFF7CBFF1848006800F04B
:100580006AFA4FF4FA7000F0AFFA4FF4FA7000F024
:10059000ABFAF2E70CED00E00000FA0518ED00E020
:1005A00000E400E04038024010E000E0007000404D
:1005B0000038024074380240083802407038024067
:1005C000043802400080BFFF0080BFF0003C0240C2
:1005D00058110008007A030A0004024000000020BD
:1005E000E90A0008DD0A000872B6704762B6704773
:1005F000FEE7000001490860704700000C00002081
:1006000038B504000D002900C9B2200000F072FACC
:1006100031BD80B500F077FA01BD80B500F077FA02
:1006200002BD10B50400200000F075FA10BD80B5C1
:1006300000F077FA02BD10B50400200000F075FA52
:1006400010BD80B500F077FA02BD80B500F077FAF2
:1006500001BD0000F0B4046891FAA1F5B5FA85F384
:1006600091FAA1F6B6FA86F75FF0030CDBB25B00F5
:100670001CFA03FC34EA0C04FFB27B0012FA03F309
:100680001C430460F0BC704710B444688C4302FB08
:1006900001F31C43446010BC7047F0B4846891FAC5
:1006A000A1F5B5FA85F391FAA1F6B6FA86F75FF0EF
:1006B000030CDBB25B001CFA03FC34EA0C04FFB24F
:1006C0007B0012FA03F31C438460F0BC7047F0B463
:1006D000C46891FAA1F5B5FA85F391FAA1F6B6FAD4
:1006E00086F75FF0030CDBB25B001CFA03FC34EA14
:1006F0000C04FFB27B0012FA03F31C43C460F0BC8D
:100700007047F0B4046A91FAA1F5B5FA85F391FA4D
:10071000A1F6B6FA86F75FF00F0CDBB29B001CFA6D
:1007200003FC34EA0C04FFB2BB0012FA03F31C43CF
:100730000462F0BC7047F0B4446A0B001B0A93FAE1
:10074000A3F5B5FA85F30E00360A96FAA6F6B6FAC0
:1007500086F75FF00F0CDBB29B001CFA03FC34EA57
:100760000C04FFB2BB0012FA03F31C434462F0BC5A
:100770007047F8B505000E0000200024316891FA9A
:10078000A1F1B1FA81F7FFB23068F840002832D009
:1007900030680121B94008400400002C29D072685B
:1007A00021002800FFF756FF7068012802D070680A
:1007B000022804D1B26821002800FFF76EFF3269D9
:1007C00021002800FFF783FF7068022811D194FAF6
:1007D000A4F0B0FA80F1C9B2082905D272692100EB
:1007E0002800FFF78EFF04E0726921002800FFF760
:1007F000A2FF7F1CC8E77068012802D07068022839
:1008000004D1F26831682800FFF73EFF0120F2BDF5
:1008100000690840884201D1012000E00020C0B2F8
:100820007047816170470A048261704701000020AF
:100830004861002008610020486000200860002016
:10084000704710B586B00400002C02D0E068002884
:1008500001D1012018E00121E068FFF7D1FEA06876
:1008600000900120019002200290012003900120BD
:100870000490002005906946E068FFF77AFFA168C0
:10088000E068FFF7CEFF002006B010BD70B5040091
:100890000D0016002000FFF7C9FF002C06D01148FC
:1008A0000068844202D1200000F013F82000FFF716
:1008B000C8FF2800002801D0256101E00A48206116
:1008C0003000002801D0666101E008486061002026
:1008D00070BD01004FF4804088600548C86000206A
:1008E0007047000000000020DD0A0008E90A000847
:1008F0000004024010B50400A168E068FFF791FF12
:100900002069002802D0022021698847A168E06898
:10091000FFF789FF6069002802D0142061698847C9
:10092000A168E068FFF77DFF2069002802D01E2043
:1009300021698847002010BD70B504000025A1681A
:10094000E068FFF765FF00280AD02069002802D080
:100950000120216988476D1C2800C0B2C928EEDB40
:100960002800C0B2C92801DB012018E00026A168D8
:10097000E068FFF74DFF00280AD12069002802D067
:10098000012021698847761C3000C0B2C928EEDBFF
:100990003000C0B2C92801DB012000E0002070BD9A
:1009A00010B504002000FFF7A5FF2000FFF7C4FFEB
:1009B00010BD38B504000025A168E068FFF728FFE6
:1009C00000280CD02069002802D001202169884726
:1009D0006D1C2800C0B29728EEDB002005002069BE
:1009E000002802D00A2021698847A168E068FFF743
:1009F0000FFF00280CD12069002802D001202169B6
:100A000088476D1C2800C0B29728EEDB0020050047
:100A10002069002802D0322021698847A168E06857
:100A2000FFF7F6FE002801D0012000E0002032BDD3
:100A300070B505000021002000263100C9B2082948
:100A400007DA400004002800FFF7B3FF2043761CBC
:100A5000F3E7C0B270BD7CB50400684600210022F7
:100A6000C0E9001200262000FFF79AFF002801D0FD
:100A7000012032E000252800C0B2052808DA200055
:100A8000FFF7D6FF69462A00D2B288546D1CF2E700
:100A9000A168E068FFF7C5FE69469DF800004A7846
:100AA00052FA80F08A788018CA7880180A799042C1
:100AB00001D0022011E09DF8000060604FF47A72CE
:100AC0006368487802FB03036360887820602368CA
:100AD000C87802FB03022260002076BD10B5040036
:100AE000200000F036F810BD10B50400200000F022
:100AF0002AF810BD38B504000D002900C9B2200045
:100B000000F049F831BD80B500F0D2F801BD80B5E4
:100B100000F083F902BD10B50400200000F0A2F936
:100B200010BD80B500F0B3F902BD10B5040020007F
:100B300000F0EDF910BD80B500F019FA02BD80B5E6
:100B400000F064FA01BD10B50400200000F070FA56
:100B500010BD10B50400200000F07AFA10BD0000AE
:100B600081B068490A6802430A600968014000913F
:100B7000009901B0704763490A6882430A60704770
:100B800081B061490A6802430A6009680140009126
:100B9000009901B0704738B504000D005B488442ED
:100BA0000BD12800C0B2002803D00120FFF7D8FFE6
:100BB00002E00120FFF7DFFF79E0554884420BD1C6
:100BC0002800C0B2002803D00220FFF7C9FF02E0CE
:100BD0000220FFF7D0FF6AE04E4884420BD1280084
:100BE000C0B2002803D00420FFF7BAFF02E00420BF
:100BF000FFF7C1FF5BE0484884420BD12800C0B238
:100C0000002803D00820FFF7ABFF02E00820FFF721
:100C1000B2FF4CE0414884420BD12800C0B200280A
:100C200003D01020FFF79CFF02E01020FFF7A3FF86
:100C30003DE03B4884420BD12800C0B2002803D0DD
:100C40002020FFF78DFF02E02020FFF794FF2EE029
:100C5000344884420BD12800C0B2002803D0402081
:100C6000FFF77EFF02E04020FFF785FF1FE02E48E0
:100C700084420BD12800C0B2002803D08020FFF7A7
:100C80006FFF02E08020FFF776FF10E027488442E4
:100C90000DD12800C0B2002804D04FF48070FFF7B7
:100CA0005FFF03E04FF48070FFF765FFFFE731BDA2
:100CB00080B501211548FFF76EFF01211448FFF7A9
:100CC0006AFF01211348FFF766FF01211248FFF771
:100CD00062FF01211148FFF75EFF01211048FFF775
:100CE0005AFF01210F48FFF756FF01210E48FFF779
:100CF00052FF01210D48FFF74EFF4FF48040FFF7F0
:100D00003FFF01BD3038024044380240000002403D
:100D10000004024000080240000C024000100240A3
:100D20000014024000180240001C02400020024053
:100D300010B410F007039E4C22684FF6FF010A40E2
:100D40009C4951EA03210A43226010BC704798482D
:100D50000068C0F30220704710B4020052B2002AAB
:100D600009D50A01944B040064B214F00F04234423
:100D700003F8042C04E00A01904B040064B21A55F5
:100D800010BC704770B4030013F00704D4F10700DF
:100D9000052801D3042001E0D4F10700251D072D0B
:100DA00001D2002500E0E51E012616FA00F0401EE3
:100DB0000140A94016FA05F56D1E2A4011430800AE
:100DC00070BC7047B0FBF1F2521E7D4B1A600022DE
:100DD0007C4B1A6005227C4B1A6070477A48016888
:100DE00031F002010160002070477748016851F03E
:100DF000020101600020704701000020086000200F
:100E00004860002088600020C86000200861002041
:100E10004861002088610020704710B56B4C206845
:100E2000FFF7EAFFFFF7DAFF4FF47A7168480068CE
:100E3000FFF7C8FF0320FFF77BFFFFF788FF0022C3
:100E40000021FFF79FFF01005FF0FF30FFF784FFF5
:100E5000FFF7CBFF01205F4908705F4821684861B8
:100E6000002010BD38B50400584D286800280CD06B
:100E70002868446028684068002804D05748006803
:100E800000F02BF9F6E7002000E0012032BD10B59C
:100E90004E4C2068002838D020680068401C21682B
:100EA00008602068C068401C2168C860206800682D
:100EB000002804D120688068401C21688860206870
:100EC0004069002802D02068406980472068006996
:100ED00000280FD0206800692168C968884209D1BC
:100EE00020688069002805D000202168C86020683B
:100EF0008069804720684068002804D020684068E6
:100F0000401E21684860002000E0012010BD2DE94E
:100F1000F04704002A4D2E682B4FD7F80080DFF8E9
:100F2000A490D9F800A004203860294800682C4912
:100F3000B0FBF1F0401E00FB04F028600020C9F86F
:100F40000000386850F0010038603868C00304D4ED
:100F50002248006800F0C1F8F7E7042038602E60EE
:100F6000C9F800A0C7F800800020BDE8F087164847
:100F7000006840070CD512480068154909684FF40D
:100F80007A72B1FBF2F1491E88420FD001200EE0C7
:100F90000B4800680E4909684FF47A72B1FBF2F110
:100FA000C908491E884201D0012000E00020704796
:100FB0000CED00E00000FA0518ED00E000E400E0B0
:100FC00014E000E018E000E010E000E01000002075
:100FD0000C0000204C0000207912000808000020BE
:100FE00040420F0081B010490A6802430A60096854
:100FF00001400091009901B07047016851F004016F
:1010000001607047406810F00100704710B5402043
:10101000FFF7E8FF054C2000FFF7EFFF2000FFF788
:10102000F1FF0128FAD110BD343802400008065003
:1010300010B50400002C0AD0FFF703FB002803D1F1
:101040002000FFF7EEFA02E0200000F01EF810BDCD
:1010500010B50400002C17D0FFF7C6FA072C03D3F5
:101060002000FFF7E8FA0DE0022C0BD3601E60436E
:10107000401C15490968154AB1FBF2F1491E484365
:1010800000F016F8FFF7B2FA10BD10B50400002CFE
:101090000CD02000441E002808D04FF47A70FFF7CF
:1010A000D7FF0848006800F018F8F2E710BD00000C
:1010B000002805D00100481E002901D000BFF9E733
:1010C00070470000080000200C00002040420F0084
:1010D0004AF6AA21074A1160704710B5040020683B
:1010E000002801D1034820602068FFF7F1FF0020AD
:1010F00010BD0000003000400F48016851F470013D
:1011000001600E49086850F00100086000200C4A98
:1011100010600A680B4802400A600B480B4A1060D6
:10112000086830F4802008600020094908605FF0FA
:10113000006008490860704788ED00E00038024010
:1011400008380240FFFFF6FE103000240438024049
:101150000C38024008ED00E04A3A5C53544D3332FB
:101160005F4D43555C53544D3332463430375C53F6
:10117000544D333246343037787850726F6A656335
:10118000745C4170706C69636174696F6E5C41502E
:10119000505C6D61696E2E630000000030B501681F
:1011A00084684218416802EB5103C9070BD54C44CF
:1011B00009E012F9011B12F8015B002904F8015B38
:1011C00005D5491CF9D19A42F3D10C3030BD491EE6
:1011D000F1D5F8E710B5074979441831064C7C443D
:1011E000163404E00A68081D114488470146A142EC
:1011F000F8D110BD2C000000380000004EF68851D8
:10120000CEF20001086840F470000860BFF34F8F11
:10121000BFF36F8F4FF00070E1EE100A70470000CF
:101220007DFFFFFFE401000032000000000000200D
:1012300000F00DF8002801D0FFF7CCFFAFF30080DD
:101240000020AFF30080FFF795F900F002F80120CD
:10125000704700F001B800000746384600F002F879
:10126000FBE7000080B5AFF30080024A11001820B0
:10127000ABBEFBE72600020003480168034A127870
:1012800089180160704700BF2C0000204C0000202E
:101290007047FEE7FEE7FEE7FEE7704770477047DE
:1012A00080B5FFF7C4F901BD0148804701480047F8
:1012B000F9100008B9120008AFF30080FFF79EFF95
:1012C000FFF7B6FFFFF7FEBFFFF7FEBFFFF7FEBF5A
:1012D000FFF7FEBFFFF7FEBFFFF7FEBFFFF7FEBF42
:1012E000FFF7FEBFFFF7FEBFFFF7FEBFFFF7FEBF32
:1012F000FFF7FEBFFFF7FEBFFFF7FEBFFFF7FEBF22
:10130000FFF7FEBFFFF7FEBFFFF7FEBFFFF7FEBF11
:10131000FFF7FEBFFFF7FEBFFFF7FEBFFFF7FEBF01
:10132000FFF7FEBFFFF7FEBFFFF7FEBFFFF7FEBFF1
:10133000FFF7FEBFFFF7FEBFFFF7FEBFFFF7FEBFE1
:10134000FFF7FEBFFFF7FEBFFFF7FEBFFFF7FEBFD1
:10135000FFF7FEBFFFF7FEBFFFF7FEBFFFF7FEBFC1
:10136000FFF7FEBFFFF7FEBFFFF7FEBFFFF7FEBFB1
:10137000FFF7FEBFFFF7FEBFFFF7FEBFFFF7FEBFA1
:10138000FFF7FEBFFFF7FEBFFFF7FEBFFFF7FEBF91
:10139000FFF7FEBFFFF7FEBFFFF7FEBFFFF7FEBF81
:1013A000FFF7FEBFFFF7FEBFFFF7FEBFFFF7FEBF71
:1013B000FFF7FEBFFFF7FEBFFFF7FEBFFFF7FEBF61
:1013C000FFF7FEBFFFF7FEBFFFF7FEBFFFF7FEBF51
:1013D000FFF7FEBFFFF7FEBFFFF7FEBFFFF7FEBF41
:1013E000FFF7FEBFFFF7FEBFFFF7FEBFFFF7FEBF31
:1013F000FFF7FEBFFFF7FEBFFFF7FEBFFFF7FEBF21
:10140000FFF7FEBFFFF7FEBF1314000020003000FF
:1014100040040000200024F40030000020C8000038
:0114200001CA
:04000005080012B924
:00000001FF
