:020000040800F2
:10000000002000105D1F0008451F0008471F000862
:10001000491F00084B1F00084D1F0008000000008A
:100020000000000000000000000000004F1F00085A
:10003000511F000800000000531F0008551F000852
:10004000791F00087D1F0008811F0008851F000818
:10005000891F00088D1F0008911F0008951F0008C8
:10006000991F00089D1F0008A11F0008A51F000878
:10007000A91F0008AD1F0008B11F0008B51F000828
:10008000B91F0008BD1F0008C11F0008C51F0008D8
:10009000C91F0008CD1F0008D11F0008D51F000888
:1000A000D91F0008DD1F0008E11F0008E51F000838
:1000B000E91F0008ED1F0008F11F0008F51F0008E8
:1000C000F91F0008FD1F0008012000080520000896
:1000D000092000080D200008112000081520000844
:1000E000192000081D2000082120000825200008F4
:1000F000292000082D2000083120000835200008A4
:10010000392000083D200008412000084520000853
:10011000492000084D200008512000085520000803
:10012000592000085D2000086120000865200008B3
:10013000692000086D200008712000087520000863
:10014000792000087D200008812000088520000813
:10015000892000088D2000089120000895200008C3
:10016000992000089D200008A1200008A520000873
:10017000A9200008AD200008B12000080000000000
:10018000B5200008B920000801210170012141704B
:10019000002181700021C170002101710021417195
:1001A000022181712321C1710D210172412141720E
:1001B0000D2181724121C17200210173002141731F
:1001C000002181730021C173002101740021417459
:1001D000002181740021C174002101750021417545
:1001E000002181750021C175002101760021417631
:1001F000002181760021C1760021C161DFF81C1544
:1002000001620021416200218164704701000020E9
:100210008862DFF80C05C86208634FF48070486399
:100220004FF400708863002081F83C00012081F8C1
:100230003D00002048643420C88700200864002066
:100240007047F8B504000D00160000272000FFF7E6
:100250009BFF2000FFF7DAFF3000C0B2002814D166
:10026000290014F1280000F083FA07000FF22100A2
:10027000A064211D200000F045F8211D200000F0A1
:1002800041F8A11D200000F03DF83800C0B2F2BDD9
:100290002DE9F84304000D0016005FF00009002767
:1002A000012114F1280000F06BFA80464046C0B2EC
:1002B000002802D0022080461CE000200700380001
:1002C0003100C0B2C9B2884214D23800C0B2295C31
:1002D00014F1280000F069FA14F1280000F05FFA28
:1002E00080464046C0B2002802D0F81C804601E09B
:1002F0007F1CE4E714F1280000F04BFA4046C0B23E
:10030000BDE8F28338B504000D00002C08D0A06CC5
:10031000002805D0022229002000A36C984700E0A5
:10032000012032BD000000000A00DFF8F013016276
:10033000DFF8F0138A4202D3DFF8EC130A0044F628
:1003400020618A4200D20A00DFF8E0138A4206D315
:10035000002181700021017000214170F4E0DFF87C
:10036000D0138A4209D3002181700121017000213C
:10037000417003214A435208E6E0DFF8B8138A428D
:1003800007D30021817002210170002141705200C9
:10039000DAE0DFF8A4138A4208D300218170032138
:1003A00001700021417003214A43CDE0DFF88C1336
:1003B0008A4207D30021817004210170002141701D
:1003C0009200C1E0DFF878138A4208D300218170DF
:1003D000052101700021417006214A43B4E0DFF895
:1003E00064138A4207D30021817006210170002125
:1003F0004170D200A8E0DFF850138A4208D30021F0
:10040000817007210170002141700C214A439BE05B
:10041000DFF838138A4207D300218170062101706A
:100420000121417012018FE0DFF824138A4208D3C2
:1004300000218170072101700121417018214A4378
:1004400082E0C4498A4207D30021817006210170ED
:1004500002214170520177E0BF498A4208D300214E
:100460008170072101700221417030214A436BE005
:10047000BA498A4208D30021817006210170032104
:10048000417040214A435FE0B5498A4208D30021C8
:100490008170072101700321417040214A4353E0DC
:1004A000B0498A4208D300218170042101700521DE
:1004B000417080214A4347E0AB498A4208D300217A
:1004C00081700521017005214170C0214A433BE044
:1004D000A6498A420BD301218170062101700421B3
:1004E000417080214A43016A490801622CE04BF2C5
:1004F0001C718A420BD301218170072101700421F4
:100500004170C0214A43016A490801621CE048F673
:1005100055118A420CD301218170062101700521F9
:1005200041704FF480714A43016A490801620BE04F
:100530000121817007210170052141704FF4C071C4
:100540004A43016A49080162910000EE101AF8EE70
:10055000400A90ED081AB8EE411AC0EE810AC0EDCB
:10056000090AD0ED090AFDEEE00A10EE901AC170FA
:10057000C17800EE901AF8EE600A90ED091A71EE5B
:10058000600A9FED651A60EE810AFCEEE00AC0ED9C
:10059000070A0D210172017849014172417A4278BE
:1005A00051EA82014172417A51F0010141724821C0
:1005B00001738178002901D1002100E010214173ED
:1005C000427BC1780A4342734A210174C169890C94
:1005D00011F03F014174C169490C11F0010151F062
:1005E0004C010175C169490A4175C169090A11F0D7
:1005F000010151F04E010176C1694176704770B535
:1006000004000D00002629002000FFF78DFE0222C5
:1006100014F10A0114F1080000F0D0F8002810D0FD
:10062000207AA072607AE07214F108012000FFF7CE
:1006300069FE06003000C0B2002802D0012006008A
:1006400066E0022214F10E0114F10C0000F0B6F87D
:10065000002810D0207BA073607BE07314F10C01A4
:100660002000FFF74FFE06003000C0B2002802D085
:10067000022006004CE0022214F1120114F11000D5
:1006800000F09CF8002810D0207CA074607CE074FE
:1006900014F110012000FFF735FE06003000C0B253
:1006A000002802D00320060032E0022214F11601D5
:1006B00014F1140000F082F8002810D0207DA075FD
:1006C000607DE07514F114012000FFF71BFE0600A9
:1006D0003000C0B2002802D00420060018E0022238
:1006E00014F11A0114F1180000F068F800280FD076
:1006F000207EA076607EE07614F118012000FFF7DE
:1007000001FE06003000C0B2002801D0052006001E
:100710003000C0B270BD0000FFFF7F4B001BB70070
:100720000004024081D5430280D5430281A8120112
:10073000011BB70041548900818D5B0021AA440050
:10074000C1C62D001155220061E31600892A11004F
:10075000B1710B0045950800D9B80500A34A040003
:100760006DDC020052250200376E0100A912010063
:1007700038B504000D002900200000F053F832BD08
:1007800038B504000D002900C9B2200000F052F86D
:1007900032BD10B50400200000F068F810BD10B59F
:1007A0000400200000F068F810BD38B504000D000A
:1007B0002900C9B2200000F065F832BD0300002016
:1007C00013F0030F09D0521E22BF13F8010B11F8CA
:1007D00001CBB0EB0C00F3D0704711F0030F14D134
:1007E000121F22BF53F8040B51F804CB6045F7D019
:1007F000121D0AD200BA9CFA8CFCB0EB0C0038BF78
:100800006FF0000088BF01207047521E22BF13F80E
:10081000010B11F801CBB0EB0C00F6D0521C08BF55
:100820001046704738B504000D002900200000F084
:1008300045F832BD38B504000D00200000F072F814
:100840002800C0B2002804D0A07D10F0FE00E08295
:1008500003E0E08A50F00100E082E18AC9B22000A2
:1008600000F0F0F8200000F0A9F832BD10B5040047
:10087000200000F07FF810BD10B50400200000F04B
:100880009DF810BD38B504000D002900C9B2200044
:1008900000F0D8F832BD00690840884201D101203B
:1008A00000E00020C0B27047816170470A04826195
:1008B000704701000020C8610020704738B586B03D
:1008C00004000D002000FFF7F4FF0121606800F034
:1008D000D0F80121A06800F0CCF8E1686068FFF76B
:1008E000E3FF2169A068FFF7DFFFE06800900120C7
:1008F000019002200290012003900120049000202A
:1009000005906946606800F050F9206900906946DA
:10091000A06800F04AF92800002800D0E561002016
:1009200007B030BD10B504002169A068FFF7BCFF17
:10093000E1686068FFF7B8FFE069002802D0607DD9
:10094000E16988472169A068FFF7B0FFE0690028E6
:1009500002D0607DE1698847E1686068FFF7A6FF23
:100960002169A068FFF797FF002801D0012000E06F
:10097000002010BD10B504002169A068FFF796FFA4
:10098000E1686068FFF790FFE069002802D0607DB1
:10099000E16988472169A068FFF786FFE0690028C0
:1009A00002D0607DE16988472169A068FFF773FF85
:1009B000002801D1012000E0002010BD38B504005E
:1009C00000252169A068FFF76FFFE1686068FFF705
:1009D0006BFFE069002802D0607DE16988472169EA
:1009E000A068FFF758FF002801D001200500E1684A
:1009F0006068FFF75BFF2800C0B232BD38B5040065
:100A00000D00280604D52169A068FFF74DFF03E01B
:100A10002169A068FFF74AFFE1686068FFF744FFBB
:100A2000E069002802D0607DE1698847E16860687C
:100A3000FFF73CFFE069002802D0607DE16988474C
:100A4000002032BDF8B504000D000026E1686068A2
:100A5000FFF72CFF00273800C0B2082807DA29006A
:100A6000C9B22000FFF7CAFF6D007F1CF3E700202A
:100A7000F2BD38B504000D002900C9B2200000F015
:100A8000E3F831BD80B500F0E8F801BDF0B40468CA
:100A900091FAA1F5B5FA85F391FAA1F6B6FA86F7BF
:100AA0005FF0030CDBB25B001CFA03FC34EA0C04BD
:100AB000FFB27B0012FA03F31C430460F0BC7047E2
:100AC00010B444688C4302FB01F31C43446010BC27
:100AD0007047F0B4846891FAA1F5B5FA85F391FAFC
:100AE000A1F6B6FA86F75FF0030CDBB25B001CFAE6
:100AF00003FC34EA0C04FFB27B0012FA03F31C433C
:100B00008460F0BC7047F0B4C46891FAA1F5B5FAFE
:100B100085F391FAA1F6B6FA86F75FF0030CDBB223
:100B20005B001CFA03FC34EA0C04FFB27B0012FAEF
:100B300003F31C43C460F0BC7047F0B4046A91FA3C
:100B4000A1F5B5FA85F391FAA1F6B6FA86F75FF04A
:100B50000F0CDBB29B001CFA03FC34EA0C04FFB25E
:100B6000BB0012FA03F31C430462F0BC7047F0B4FC
:100B7000446A0B001B0A93FAA3F5B5FA85F30E003D
:100B8000360A96FAA6F6B6FA86F75FF00F0CDBB2D5
:100B90009B001CFA03FC34EA0C04FFB2BB0012FAFF
:100BA00003F31C434462F0BC7047F8B505000E0027
:100BB00000200024316891FAA1F1B1FA81F7FFB267
:100BC0003068F840002832D030680121B940084030
:100BD0000400002C29D0726821002800FFF756FF7E
:100BE0007068012802D07068022804D1B268210020
:100BF0002800FFF76EFF326921002800FFF783FF0E
:100C00007068022811D194FAA4F0B0FA80F1C9B248
:100C1000082905D2726921002800FFF78EFF04E041
:100C2000726921002800FFF7A2FF7F1CC8E77068E7
:100C3000012802D07068022804D1F26831682800C7
:100C4000FFF73EFF0120F2BD38B504000D0029007A
:100C5000C9B2200000F03DF831BD80B500F0C6F803
:100C600001BD30B4002513E050F8042BD30744BF76
:100C7000A9F101039A18091F042942F8045BFAD26A
:100C800013468C0744BF15809B1CC90748BF1D70C5
:100C900050F8041B0029E7D130BC704781B0684987
:100CA0000A6802430A60096801400091009901B096
:100CB000704763490A6882430A60704781B061499E
:100CC0000A6802430A60096801400091009901B076
:100CD000704738B504000D005B4884420BD12800F2
:100CE000C0B2002803D00120FFF7D8FF02E00120A6
:100CF000FFF7DFFF79E0554884420BD12800C0B2EE
:100D0000002803D00220FFF7C9FF02E00220FFF70E
:100D1000D0FF6AE04E4884420BD12800C0B20028C0
:100D200003D00420FFF7BAFF02E00420FFF7C1FF61
:100D30005BE0484884420BD12800C0B2002803D0B1
:100D40000820FFF7ABFF02E00820FFF7B2FF4CE0FE
:100D5000414884420BD12800C0B2002803D01020A3
:100D6000FFF79CFF02E01020FFF7A3FF3DE03B48A8
:100D700084420BD12800C0B2002803D02020FFF706
:100D80008DFF02E02020FFF794FF2EE034488442DC
:100D90000BD12800C0B2002803D04020FFF77EFF0F
:100DA00002E04020FFF785FF1FE02E4884420BD170
:100DB0002800C0B2002803D08020FFF76FFF02E0B8
:100DC0008020FFF776FF10E0274884420DD12800ED
:100DD000C0B2002804D04FF48070FFF75FFF03E03B
:100DE0004FF48070FFF765FFFFE731BD80B501214B
:100DF0001548FFF76EFF01211448FFF76AFF012134
:100E00001348FFF766FF01211248FFF762FF012137
:100E10001148FFF75EFF01211048FFF75AFF01213B
:100E20000F48FFF756FF01210E48FFF752FF01213F
:100E30000D48FFF74EFF4FF48040FFF73FFF01BD25
:100E400030380240443802400000024000040240B2
:100E500000080240000C0240001002400014024052
:100E600000180240001C02400020024010B410F0A4
:100E70000703DFF8E84322684FF6FF010A40DFF876
:100E8000E01351EA03210A43226010BC7047DFF8E7
:100E9000CC030068C0F30220704710B4020052B2C5
:100EA000002A0AD50A01DFF8BC33040064B214F04A
:100EB0000F04234403F8042C05E00A01DFF8A833EB
:100EC000040064B21A5510BC704770B4030013F0EC
:100ED0000704D4F10700052801D3042001E0D4F170
:100EE0000700251D072D01D2002500E0E51E012683
:100EF00016FA00F0401E0140A94016FA05F56D1ED5
:100F00002A401143080070BC704781B0D7490A6875
:100F100002430A60096801400091009901B07047DE
:100F2000042805D1D2490A6852F004020A6004E09C
:100F3000CF490A6832F004020A607047CD490A6856
:100F400032F4804202430A607047CA48016851F493
:100F5000807101607047C848016851F480310160B8
:100F60007047C5480068400C10F001007047C34846
:100F7000016851F0010101607047C04800684008F5
:100F800010F001007047BE490A68920892000243BF
:100F90000A607047BA48006810F00C007047B84902
:100FA0000A6832F0F00202430A607047B4490A68E6
:100FB00032F4E05202430A607047B1490A6832F4E1
:100FC000604202430A607047AE490A6832F44072D8
:100FD00002430A607047AB48016851F40041016068
:100FE0007047A848016851F4803101607047A548F6
:100FF000016831F4803101607047A1490A6832F418
:10100000F81202430A6070479B48016851F08071F2
:101010000160704798480068400E10F0010070476A
:1010200070B4994D2E68994C264006430E4356EAFB
:1010300082162E602C6834F440341C432C6070BC43
:10104000704770B4904D2E68914C264006430E4375
:1010500056EA82161E432E6070BC70478D490A689E
:101060001209120102430A6070478A48006810F0B2
:101070000F0070478748016851F480710160704724
:101080008448016851F4007101607047814801682B
:1010900051F480610160704780B50520FFF7DEFFE5
:1010A000FFF7E3FF052803D017217B4800F00AF97A
:1010B0004FF48040FFF742FFFFF74DFFFFF751FF6E
:1010C0000128FBD1FFF753FFFFF757FF0128FBD1A2
:1010D000FFF73BFFFFF785FFFFF789FF4FF44070F5
:1010E000FFF772FF5FF40020FFF787FFFFF773FF42
:1010F0000023A82204215FF48000FFF791FF5FF036
:10110000E063A82204215FF48000FFF79AFFFFF755
:101110007BFFFFF77FFF0128FBD10020FFF73FFF98
:101120004FF4A050FFF742FF4FF40040FFF745FF98
:101130000220FFF728FFFFF72DFF0828FBD104202E
:10114000FFF7EEFE554800F0BFF8FFF793FFFFF7FB
:101150009DFFFFF795FF01BD80B55FF08050FFF761
:10116000D4FE0320FFF782FEFFF791FE002200214C
:10117000FFF7ABFE01007FF00B00FFF78EFEFFF7DD
:1011800086FE00220021FFF7A0FE01007FF00A008A
:10119000FFF783FEFFF77BFE00220021FFF795FE9D
:1011A00001007FF00900FFF778FEFFF770FE0022D4
:1011B0000021FFF78AFE01007FF00400FFF76DFEBB
:1011C000FFF765FE00220021FFF77FFE01007FF0A0
:1011D0000300FFF762FEFFF75AFE00220021FFF72F
:1011E00074FE01007FF00100FFF757FE01BD38B526
:1011F000FFF752FFFFF7B0FFFFF744FC00F06AF87B
:1012000000F080F800F082F8254C264D264A29008F
:10121000206800F07FF8206800F086F8234C002258
:1012200029002068FFF70DF821492068FFF7E7F94A
:1012300020492068FFF7E3F931BD80B5FFF7D7FFFC
:101240004FF4FA7000F07CF84FF4FA7000F078F880
:101250001948006800F07FF8F2E700000CED00E0AC
:101260000000FA0518ED00E000E400E0403802401C
:1012700010E000E000700040003802407438024086
:101280000838024070380240043802400080BFFF36
:101290000080BFF0003C0240041E0008007A030AF0
:1012A0000400002035130008411300081800002036
:1012B00040420F0080841E000C00002072B6704770
:1012C00062B67047FEE70000014908607047000001
:1012D0001000002080B500F04DF802BD10B50400EC
:1012E000200000F04BF810BD80B500F04DF802BDB5
:1012F00010B50400200000F04BF810BD80B500F0E0
:101300004DF802BD80B500F04DF801BD80B500F08C
:101310004DF801BD70B504000D0016003200290023
:10132000200000F047F870BD10B50400200000F068
:101330004BF810BD10B50400200000F051F810BDAE
:1013400010B50400200000F045F810BD4AF6AA21AF
:10135000074A1160704710B504002068002801D1C9
:10136000034820602068FFF7F1FF002010BD000057
:101370000030004080B500F0AEF802BD10B50400AA
:10138000200000F0CDF810BD80B500F0DEF802BD01
:1013900010B50400200000F018F910BD80B500F071
:1013A00044F902BD80B500F08FF901BD80B500F0B1
:1013B000B8F901BD70B504000D0016003200290017
:1013C000200000F075FA70BD10B50400200000F098
:1013D00054FB10BD10B50400200000F091FB10BDBF
:1013E00010B50400200000F09BFB10BD10B410F0FD
:1013F00007039E4C22684FF6FF010A409C4951EAC0
:1014000003210A43226010BC704798480068C0F36B
:101410000220704710B4020052B2002A09D50A0116
:10142000944B040064B214F00F04234403F8042C1A
:1014300004E00A01904B040064B21A5510BC7047D6
:1014400070B4030013F00704D4F10700052801D39A
:10145000042001E0D4F10700251D072D01D200254D
:1014600000E0E51E012616FA00F0401E0140A940EA
:1014700016FA05F56D1E2A401143080070BC70472E
:10148000B0FBF1F2521E7D4B1A6000227C4B1A60B9
:1014900005227C4B1A6070477A48016831F00201DE
:1014A0000160002070477748016851F00201016037
:1014B00000207047010000200860002048600020E4
:1014C00088600020C860002008610020486100207A
:1014D00088610020704710B56B4C2068FFF7EAFF69
:1014E000FFF7DAFF4FF47A7168480068FFF7C8FF2A
:1014F0000320FFF77BFFFFF788FF00220021FFF7A3
:101500009FFF01005FF0FF30FFF784FFFFF7CBFF85
:1015100001205F4908705F4821684861002010BDC4
:1015200038B50400584D286800280CD0286844605D
:1015300028684068002804D057480068FFF70BFF70
:10154000F6E7002000E0012032BD10B54E4C2068C7
:10155000002838D020680068401C21680860206896
:10156000C068401C2168C86020680068002804D159
:1015700020688068401C21688860206840690028D5
:1015800002D02068406980472068006900280FD099
:10159000206800692168C968884209D1206880698B
:1015A000002805D000202168C86020688069804735
:1015B00020684068002804D020684068401E2168E8
:1015C0004860002000E0012010BD2DE9F047040034
:1015D0002A4D2E682B4FD7F80080DFF8A490D9F859
:1015E00000A004203860294800682C49B0FBF1F0C5
:1015F00000FB04F0963828600020C9F80000386825
:1016000050F0010038603868C00304D422480068F4
:10161000FFF7A1FEF7E7042038602E60C9F800A0AC
:10162000C7F800800020BDE8F08716480068400732
:101630000CD512480068154909684FF47A72B1FB5D
:10164000F2F1491E88420FD001200EE00B480068DD
:101650000E4909684FF47A72B1FBF2F1C908491ECC
:10166000884201D0012000E0002070470CED00E02E
:101670000000FA0518ED00E000E400E014E000E0EE
:1016800018E000E010E000E014000020100000204E
:101690001C0000202D1F00080C00002040420F00FD
:1016A00081B010490A6802430A600968014000914C
:1016B000009901B07047016851F004010160704762
:1016C000406810F00100704710B54020FFF7E8FFB8
:1016D000054C2000FFF7EFFF2000FFF7F1FF012886
:1016E000FAD110BD343802400008065081B0454997
:1016F0000A6802430A60096801400091009901B03C
:101700007047012181607047016070470068704731
:101710000021C16000218160002141600021016041
:10172000704710B5384C2068FFF7F2FF00F015F84D
:101730004FF48050FFF7DAFF0FF2350021680860A0
:101740000FF26100216848600FF28D002168886007
:101750000FF2C1002168C86010BD80B52B4800F0B1
:1017600009FA01BD80B52948FFF7CBFF01BD000094
:101770002DE9F04104000D0000265FF00008FFF79E
:10178000F1FF0027AF4207D2E05D804641461F4887
:10179000FFF7BAFF7F1CF5E71C48FFF7B7FFBDE86E
:1017A000F081000070B403000020002200258D426B
:1017B0000ED20600B6B2360A5A5D56403400144ABC
:1017C0002600F6B232F8162092EA00206D1CEEE7F1
:1017D00080B270BC7047000070B40200002000248A
:1017E00000258D420AD2545D44402300084C1E005F
:1017F000F6B234F8164020006D1CF2E7C0B270BC9F
:1018000070470000303802400000002000300240E5
:10181000A41B000810B403000022002000248C4206
:1018200003D21A5D1018641CF9E74042C0B210BC24
:101830007047000000690840884201D1012000E0A3
:101840000020C0B27047816170470A04826170470E
:10185000010000204861002008610020486000204D
:1018600008600020704710B586B00400002C02D03C
:10187000E068002801D1012018E00121E068FFF7AD
:10188000F8F8A06800900120019002200290012049
:10189000039001200490002005906946E068FFF75E
:1018A00084F9A168E068FFF7CEFF002006B010BD04
:1018B00070B504000D0016002000FFF7C9FF002CD2
:1018C00006D011480068844202D1200000F013F8CD
:1018D0002000FFF7C8FF2800002801D0256101E0A3
:1018E0000A4820613000002801D0666101E0084804
:1018F0006061002070BD01004FF4804088600548A1
:10190000C860002070470000040000203513000864
:10191000411300080004024010B50400A168E0680B
:10192000FFF791FF2069002802D002202169884733
:10193000A168E068FFF789FF6069002802D01420E1
:1019400061698847A168E068FFF77DFF206900288A
:1019500002D01E2021698847002010BD70B5040008
:101960000025A168E068FFF765FF00280AD020691C
:10197000002802D00120216988476D1C2800C0B2D0
:10198000C928EEDB2800C0B2C92801DB012018E01D
:101990000026A168E068FFF74DFF00280AD1206902
:1019A000002802D0012021698847761C3000C0B28F
:1019B000C928EEDB3000C0B2C92801DB012000E0FD
:1019C000002070BD10B504002000FFF7A5FF200027
:1019D000FFF7C4FF10BD38B504000025A168E0681A
:1019E000FFF728FF00280CD02069002802D0012032
:1019F000216988476D1C2800C0B29728EEDB0020C3
:101A000005002069002802D00A2021698847A168C2
:101A1000E068FFF70FFF00280CD12069002802D0F2
:101A20000120216988476D1C2800C0B29728EEDB91
:101A3000002005002069002802D032202169884753
:101A4000A168E068FFF7F6FE002801D0012000E061
:101A5000002032BD70B505000021002000263100B5
:101A6000C9B2082907DA400004002800FFF7B3FFD5
:101A70002043761CF3E7C0B270BD7CB50400684615
:101A800000210022C0E9001200262000FFF79AFF83
:101A9000002801D0012032E000252800C0B205282E
:101AA00008DA2000FFF7D6FF69462A00D2B2885430
:101AB0006D1CF2E7A168E068FFF7C5FE69469DF876
:101AC00000004A7852FA80F08A788018CA78801824
:101AD0000A79904201D0022011E09DF80000606078
:101AE0004FF47A726368487802FB03036360887876
:101AF00020602368C87802FB03022260002076BDC4
:101B000010B50400002C0AD0FFF7F8FB002803D121
:101B10002000FFF7E3FB02E0200000F00DF810BD0D
:101B200010B50400002C06D0FFF7C8FB2000FFF71B
:101B3000DFFBFFF7C5FB10BD10B50400002C0CD077
:101B40002000441E002808D04FF47A70FFF7E8FF09
:101B500002480068FFF7FFFBF2E710BD0C00002011
:101B60000E490A6802430A6070470C490A688243BA
:101B70000A60704738B5040001250948844208D13D
:101B80004FF48050FFF7ECFF4FF48050FFF7EDFF6C
:101B900001E0002005002800C0B232BD103802402C
:101BA0000030024000002110422063308440A550E4
:101BB000C660E770088129914AA16BB18CC1ADD193
:101BC000CEE1EFF13112100273325222B55294423B
:101BD000F772D662399318837BB35AA3BDD39CC3E3
:101BE000FFF3DEE36224433420040114E664C77487
:101BF000A44485546AA54BB528850995EEE5CFF533
:101C0000ACC58DD55336722611163006D776F666DA
:101C10009556B4465BB77AA719973887DFF7FEE782
:101C20009DD7BCC7C448E5588668A77840086118A6
:101C300002282338CCC9EDD98EE9AFF948896999D2
:101C40000AA92BB9F55AD44AB77A966A711A500A7A
:101C5000333A122AFDDBDCCBBFFB9EEB799B588B22
:101C60003BBB1AABA66C877CE44CC55C222C033CC6
:101C7000600C411CAEED8FFDECCDCDDD2AAD0BBD72
:101C8000688D499D977EB66ED55EF44E133E322E1A
:101C9000511E700E9FFFBEEFDDDFFCCF1BBF3AAFC2
:101CA000599F788F8891A981CAB1EBA10CD12DC120
:101CB0004EF16FE18010A100C230E32004502540B6
:101CC00046706760B9839893FBA3DAB33DC31CD316
:101CD0007FE35EF3B1029012F322D2323542145206
:101CE00077625672EAB5CBA5A89589856EF54FE562
:101CF0002CD50DC5E234C324A01481046674476456
:101D000024540544DBA7FAB79987B8975FE77EF7B5
:101D10001DC73CD7D326F2369106B01657667676A5
:101D2000154634564CD96DC90EF92FE9C899E98981
:101D30008AB9ABA94458654806782768C018E108F5
:101D40008238A3287DCB5CDB3FEB1EFBF98BD89B55
:101D5000BBAB9ABB754A545A376A167AF10AD01A45
:101D6000B32A923A2EFD0FED6CDD4DCDAABD8BADA1
:101D7000E89DC98D267C076C645C454CA23C832C95
:101D8000E01CC10C1FEF3EFF5DCF7CDF9BAFBABFF5
:101D9000D98FF89F176E367E554E745E932EB23EE5
:101DA000D10EF01E0F48016851F4700101600E4918
:101DB000086850F00100086000200C4A10600A68B2
:101DC0000B4802400A600B480B4A1060086830F468
:101DD000802008600020094908605FF00060084921
:101DE0000860704788ED00E0003802400838024083
:101DF000FFFFF6FE10300024043802400C38024089
:101E000008ED00E0493A5C53544D33325F4D435581
:101E10005C53544D3332463430375C53544D333277
:101E200046343037787850726F6A6563745C4170FD
:101E3000706C69636174696F6E5C4150505C6D6178
:101E4000696E2E630000000030B450F8041B79B1B5
:101E50000268436802440830DC0744BFA9F101046A
:101E6000E31852F8045B43F8045B091FF9D1ECE76F
:101E700030BC704710B5074979441831064C7C4492
:101E8000163404E00A68081D114488470146A1423F
:101E9000F8D110BD2C0000004C0000004EF6885117
:101EA000CEF20001086840F470000860BFF34F8F65
:101EB000BFF36F8F4FF00070E1EE100A7047000023
:101EC000A3EDFFFF940000002000002000000000B0
:101ED00079FFFFFF20000000E40100000000002067
:101EE0000000000000F00DF8002801D0FFF7C2FF4D
:101EF000AFF300800020AFF30080FFF79EF900F001
:101F000002F80120704700F001B80000074638468B
:101F100000F002F8FBE7000080B5AFF30080024A52
:101F200011001820ABBEFBE7260002000348016841
:101F3000034A127889180160704700BFB000002082
:101F40001C0000207047FEE7FEE7FEE7FEE7704753
:101F50007047704780B5FFF7C7F901BD014880475A
:101F600001480047A51D00086D1F0008AFF3008061
:101F7000FFF794FFFFF7B6FFFFF7FEBFFFF7FEBFC7
:101F8000FFF7FEBFFFF7FEBFFFF7FEBFFFF7FEBF85
:101F9000FFF7FEBFFFF7FEBFFFF7FEBFFFF7FEBF75
:101FA000FFF7FEBFFFF7FEBFFFF7FEBFFFF7FEBF65
:101FB000FFF7FEBFFFF7FEBFFFF7FEBFFFF7FEBF55
:101FC000FFF7FEBFFFF7FEBFFFF7FEBFFFF7FEBF45
:101FD000FFF7FEBFFFF7FEBFFFF7FEBFFFF7FEBF35
:101FE000FFF7FEBFFFF7FEBFFFF7FEBFFFF7FEBF25
:101FF000FFF7FEBFFFF7FEBFFFF7FEBFFFF7FEBF15
:10200000FFF7FEBFFFF7FEBFFFF7FEBFFFF7FEBF04
:10201000FFF7FEBFFFF7FEBFFFF7FEBFFFF7FEBFF4
:10202000FFF7FEBFFFF7FEBFFFF7FEBFFFF7FEBFE4
:10203000FFF7FEBFFFF7FEBFFFF7FEBFFFF7FEBFD4
:10204000FFF7FEBFFFF7FEBFFFF7FEBFFFF7FEBFC4
:10205000FFF7FEBFFFF7FEBFFFF7FEBFFFF7FEBFB4
:10206000FFF7FEBFFFF7FEBFFFF7FEBFFFF7FEBFA4
:10207000FFF7FEBFFFF7FEBFFFF7FEBFFFF7FEBF94
:10208000FFF7FEBFFFF7FEBFFFF7FEBFFFF7FEBF84
:10209000FFF7FEBFFFF7FEBFFFF7FEBFFFF7FEBF74
:1020A000FFF7FEBFFFF7FEBFFFF7FEBFFFF7FEBF64
:1020B000FFF7FEBFFFF7FEBFFFF7FEBFA000002047
:1020C0008800002000300040080000200024F400B8
:0C20D0006C000020200000200100000037
:0400000508001F6D63
:00000001FF
