:020000040800F2
:1000000000200010554900083D4700083F47000800
:10001000414700084347000845470008000000002A
:10002000000000000000000000000000474700083A
:1000300049470008000000004B4700084D470008F2
:100040007F49000883490008874900088B49000858
:100050008F49000893490008974900089B49000808
:100060009F490008A3490008A7490008AB490008B8
:10007000AF490008B3490008B7490008BB49000868
:10008000BF490008C3490008C7490008CB49000818
:10009000CF490008D3490008D7490008DB490008C8
:1000A000DF490008E3490008E7490008EB49000878
:1000B000EF490008F3490008F7490008FB49000828
:1000C000FF490008034A0008074A00080B4A0008D5
:1000D0000F4A000855470008134A0008174A00084D
:1000E0001B4A00081F4A0008234A0008274A000844
:1000F0002B4A00082F4A0008334A0008374A0008F4
:100100003B4A00083F4A0008434A0008474A0008A3
:100110004B4A00084F4A0008534A0008574A000853
:100120005B4A00085F4A0008634A0008674A000803
:100130006B4A00086F4A0008734A0008774A0008B3
:100140007B4A00087F4A0008834A0008874A000863
:100150008B4A00088F4A0008934A0008974A000813
:100160009B4A00089F4A0008A34A0008A74A0008C3
:10017000AB4A0008AF4A0008B34A0008000000007C
:10018000B74A0008BB4A00082DE9F04F0FF2A41C43
:10019000A1B0DCE90089CDE900892A9DDFF8109C37
:1001A000049100248DF843500D944FF0FF3882469F
:1001B00016461F460FE0B3462C461BF8011B049859
:1001C000D0470028049000F0A2800D98401C641EC7
:1001D0000D90F2D176193078252808D1002100221F
:1001E0000791089209910A920B910C920DE06A46D0
:1001F0004146304600F0D4FF050001D10D98A1E042
:10020000D9D50125E6E741F0010116F8010F2028B4
:10021000F9D023280CD02B2804D02D2805D0302845
:1002200009D076E041F00201EFE741F00401ECE78C
:1002300041F00801E9E741F01001E6E70F9209E01B
:100240000F98484505DA00EB800402EB4402303A8F
:100250000F92761C3278A2F130000A28F0D3307861
:100260002E2818BFCDF8388022D116F8010F2A2881
:1002700007D138683860761C50F8042B38600E922D
:1002800016E02D280CBF761C002000220E920AE0FA
:1002900040B90E9A4A4505DA02EB820403EB4403A7
:1002A000303B0E93761C3378A3F130020A2AEFD349
:1002B000ADF8401021A0317800F07CFF08B116F8AD
:1002C000010B8DF842009DF84200682804D1307877
:1002D00068280AD1622105E06C2804BF30786C28B8
:1002E00003D171218DF84210761C12A806903A466F
:1002F00016F8013B02A9504600F064F838B912AA7A
:1003000002A9504600F0CAF900287FF564AF4046C4
:1003100018E02A2892D13A683A6052F8040B3A6001
:1003200000280F9003D540420F9041F00401761C45
:1003300095E700000000000000000000686A6C748F
:100340007A4C000021B0BDE8F08F622820D06828E8
:1003500011D06A2803D06C2827D0712825D10868CD
:10036000C01D20F007000860D0E9002308300860B5
:10037000194610467047002A0A680A60106803D0C0
:10038000121D0A6000B217E0121D0A6080B217E069
:10039000002A0A680A60106803D0121D0A6040B281
:1003A0000AE0121D0A60C0B20AE0002A0A680A6068
:1003B000106803D0121D0A60C1177047121D0A6031
:1003C000002170477CB50D4611461C462E69B4F1DC
:1003D000250200F051811C3A00F08680121F022A8B
:1003E00040F282800E3A00F00B81521F5AD0093A37
:1003F0007AD0921E16D0521E35D0521E022A73D9C0
:10040000121F30D0521F00F09A80521E4AD0521E46
:1004100000F0E480D21E00F00181921E42D0D21E74
:1004200040D02FE195F83A406C2C09D06869421C05
:100430006A610A680A6052F8043B0A6033542BE18F
:100440000A680A6052F8043B0A6000930022019295
:100450004FF0FF332B636A46294600F09AF90028D3
:1004600040F11A8105E195F83A000122FFF76DFF8E
:10047000C5E900010023994204DA6869411C6961F9
:100480002D220DE0288F810704D56869411C696120
:100490002B2205E0C00722D56869411C6961202232
:1004A00032541CE095F83A000022FFF74EFFC5E9F0
:1004B000000195F83800010711D5D5E90023002087
:1004C000834208BF82420AD044F02000782806D137
:1004D000686930213154401C421C6A613454214601
:1004E00068693044E86087E00868C01D20F00700B4
:1004F0000860D0E9002308300860C5E90023D5E989
:100500000001C80F04D06869411C69612D220DE00B
:10051000288F810704D56869411C69612B2205E099
:10052000C00704D56869411C69612022325468699A
:100530003044E8602146284600F03AFAACE005F184
:100540003A02507820B14FF0FF340FF6343074E0A7
:100550001078622808D0682824D06A2812D06C2825
:100560002ED071280ED02BE00A680A6052F8040BD6
:100570000A6020B94FF0FF340FF61C305DE0E96AE5
:10058000017089E00A680A6052F8040B0A6020B919
:100590004FF0FF340FF600304FE0EA6AD317C0E99E
:1005A000002379E00A680A6052F8040B0A6020B957
:1005B0004FF0FF340FF6E0203FE0E96A01806BE086
:1005C0000A680A6052F8040B0A6020B94FF0FF3441
:1005D0000FF6C42031E0E96A01605DE00A680A6054
:1005E00052F8040B0A60002120F0000221F0FF33D2
:1005F000C5E90023EE607821284600F02DF94BE094
:100600006C2285F83A200B680B6053F8042B0B60C2
:1006100052BB4FF0FF340FF6B4200EE095F83A20AD
:100620006C2AF0D00868086050F8044B0860EC6051
:100630003CB94FF0FF340FF6782000F0D5FD201ABA
:1006400076BD2E6B002E04D5204600F0EDFD04464D
:1006500008E032460021204600F00EFE002814BFBC
:10066000041B3446AC6117E0294600F092F80028DC
:1006700012D54FF0FF3076BD6869411C69612522B3
:10068000325409E06969481C6861252272542100CE
:1006900002D0431C6B613454002076BD2DE9F0413B
:1006A0000E4605469046726B7069316AB46A121A3A
:1006B000B069521A716A121AF069521A121A96F82F
:1006C0003800141B41070DD4002C0BDD2746B06801
:1006D0002021A8470028B06057D0F06A401C7F1E38
:1006E000F062F4D1736942463146284600F0B0FC0E
:1006F00000284AD1376A002F0ADDB0683021A847A8
:100700000028B06041D0F06A401C7F1EF062F4D136
:10071000B369F2683146284600F09AFCA8BB776AB4
:10072000002F09DDB0683021A847B06068B3F06AD7
:10073000401C7F1EF062F5D1F068B169F369421880
:100740003146284600F084FCF8B9B76A002F09DD6D
:10075000B0683021A847B060B8B1F06A401C7F1E75
:10076000F062F5D196F8380041070BD5002C09DD71
:10077000B0682021A847B06038B1F06A401C641E00
:10078000F062F5D10020BDE8F0814FF0FF30BDE808
:10079000F0812DE9F8470D46A3B02F6B002F0646D8
:1007A000904648BF6FF000470FF63C1400F090FDF4
:1007B000D4E90023696B4018CDE90123812828BFC3
:1007C0004FF0FF3042D20024002F33DDD8F8001064
:1007D00001AA684600F0E6FC8146B9F1000F38D462
:1007E000D8F8000010B9B9F1010932D44F4521DB26
:1007F0006869484481280AD30021696303AA29460D
:100800003046FFF74BFF040014D40020686103ABAF
:10081000D5F814A04A46694603EB0A0000F05EFDD5
:10082000CA44C5F814A058F8040B002818BFA7EB59
:100830000907C9D14CB903AA29463046FFF72EFF54
:10084000044614B9002068616863204624B0BDE8FE
:10085000F0874FF0FF34F8E72DE9FC4707468C4658
:100860003E69BCF16F0F08BF082405D04CF0200092
:10087000782814BF0A2410243C25D7E90023BCF1B2
:10088000640F18BFBCF1690F9046994606D100214C
:100890008B4203DAD8F1000869EB49094FF0000AEE
:1008A000D14508BFD0451FD1386BE8B9082C4BD1D2
:1008B00097F83800010747D530203B2586F83B00E4
:1008C00042E000280ED597F8380000F014001028F8
:1008D00008D17B6B7969386A5B1A1B1A9A1A002A4D
:1008E000C8BF3A62BDE8F3878DF800C0404649466C
:1008F0002246E31700F046FD3032D0B26D1E3A2892
:10090000019504DB9DF80000A0F151018A18725591
:10091000404649462246E31700F034FD89468046AA
:10092000D14508BFD04503D0F86871198842DDD39E
:10093000082C09D197F83800010705D5705D3028DB
:1009400002D06D1E30207055C5F13C02BA6171199C
:10095000F960386B8242B4DA821A3A624FF6EF706D
:10096000398F01403987BDE8F3872DE9D04306462A
:100970000F4614464FF00008DFF8389412E0E00705
:1009800007D542464B463046394600F013FE064630
:100990000F464046494642464B4600F00BFE641067
:1009A00080468946002CEAD130463946BDE8D083DE
:1009B0002DE9F34F054641F020048DB0D5E90089BB
:1009C000612C02AE09D0286B002848BF062003D452
:1009D00008BF672C01D101202863D5E90023580006
:1009E0004015401C0ED119030CD00320A8619DF8BE
:1009F000381061391A2902D20FF2F46111E00FF2B6
:100A0000F4610EE059004915491C0FD118030DD1AE
:100A10000320A8619DF8381061391A2914D30FF208
:100A2000DC61E868032200F059FCD3E1194621F0AB
:100A30000043B3F5801F10460DD20027BB4208BF0C
:100A4000BA42019703D111E00FF2AC61E9E701AAC4
:100A500000F082FE0AE0DFF8607307EB1352DFF864
:100A60005C3301921940DFF858331943C5E900019E
:100A7000612C0ED1E86830210170821CEA609DF87B
:100A8000381061290CBF7821582141706869801C99
:100A90006861D5E900AB2BF0004300202AF000028A
:100AA000834204BF8242002300F05B81612C40F04E
:100AB000AA80286B002847BF21210091401C00908C
:100AC000009F7F1C404649460022002300F07CFE28
:100AD000D94601998DF8082038BF89F00049091FCF
:100AE000002FD04601910DF1090040F34981B3492F
:100AF000DFF8D0B20C91064640464946002200235A
:100B000000F07AFE80F03B814800400D00F11C02AD
:100B100011D0002A0FDD40F2FF70824205DB09F0A0
:100B2000004040EA0B01002013E00C98014041EA2C
:100B3000025140460DE029F00043002028F0000259
:100B4000834208BF82420FBF40461C22404600F04D
:100B50006BFE8046894600F005FFFF1F002F04460C
:100B600009DD00F01DFF02460B464046494600F0F5
:100B700029FF80468946F01D072104E004F00F029A
:100B800000F8012D2411002C01DD491EF6D5491E67
:100B90005CBF002200F8012DF9D5ECE000201946D9
:100BA00002AA0A4400E05B1E12F80149491E844271
:100BB000F9D00F2804D10DF10900425C521C4254B7
:100BC000002904D50198001D02AE5B1C0190591E3E
:100BD00012D49DF838007218A0F13A07147804F185
:100BE00030085FFA88F43A2CA8BFB844491E02F8CE
:100BF0000189F3D58DF83800286B002840F1B080CA
:100C0000591E2963ACE0404649460022002300F00B
:100C1000DBFD019938BF89F0004947F29750414305
:100C2000694A91FBF2F20192D2F1070204DD4046DB
:100C30004946FFF79AFE0AE0524200206349FFF757
:100C400094FE02460B464046494600F02DFF804682
:100C5000662C286BDFF878B106BF019F0A3706279C
:100C60003F18142FC8BF142730208DF8080089467C
:100C70000DF1090000E03046002F34DD0646404605
:100C8000494601F035F801460A4606F108030420FA
:100C90000A26B2FBF6F606EB860EA2EB4E023032C7
:100CA00003F8012C0A22B6FBF2F202EB820EA6EB4D
:100CB0004E063036401E03F8026DE9D1083F002F82
:100CC00003F10806D7DD084601F026F802460B4678
:100CD0004046494600F076FE00225B4600F06AFC82
:100CE00080468946CBE70DF10901401A0DF109064E
:100CF00004E00199491E401E0191761C317830298B
:100D0000F7D0662C02D10199491C03E0652C0CBF79
:100D1000012100212B6BCB189842B8BF431E002B3A
:100D20001ED4834204DAF05C3528A8BF392000DAEB
:100D300030201946721E02EB010800E05B1E18F815
:100D40000199491E8145F9D0392802D1705C401CB7
:100D50007054002904D50198401C16465B1C019074
:100D6000019800B200901BB29DF838103246284618
:100D700000F034F82EE0C61D002F3FF7BDAE304620
:100D80000DF10901401A009903468842C8BF0B467D
:100D9000002B0DF109063FF52FAF8342BFF6FEAEE3
:100DA0000DF10900C15C07297FF7F8AE0F20F6E6C8
:100DB000CBCCCC0C0000244002FCFFFFFFFF0F80D7
:100DC0000000E03F0000F07FA08601000000F03F3F
:100DD00084D797410FB0BDE8F08F00002DE9F847A8
:100DE00083B006468A461746984600F0DDF9B8F10A
:100DF000000F406A356B90F8009002DC4FF001085C
:100E0000BFA74AF02000BDF93040662808BF641C27
:100E100015D0672840F0848014F1040FC0F286805A
:100E2000AC4280F2838096F83800641C010702D43B
:100E3000A845B8BF454620B22D1A48BF00250FFA75
:100E400084FAF068B169BAF1000F25DC4A1C30233E
:100E50004354002D03DC96F83800010703D5F068F1
:100E600000F80290521C15EB0A0FB8BF6C4220B27A
:100E7000441941424445B8BFA046B26171620FFABD
:100E800088F5F561F068B3692A463946184400F0E0
:100E900025FA641BB462C4E022B29045084417DA14
:100EA0004246394600F01AFAB0694044B061AAEBF4
:100EB0000801002D716203DC96F838100A0705D589
:100EC000F16801F80090F069401CF061B562A8E09B
:100ED000394600F003FAB069002D5044A8EB04082D
:100EE00003DC96F838100A0703D5F16801F8009082
:100EF000401CB0610FFA88F08542F368B069B8BF52
:100F0000A8460FFA88F207EB0A01184400F0E6F948
:100F1000B1690FFA88F00144B161281A706280E06B
:100F2000BAF1610F14D14FF0700A16E0A84504DA47
:100F300096F838100A0758BF45466D1E48BF002571
:100F4000BAF1670F14BF4FF0450A4FF0650A04E08D
:100F5000BAF1410F08BF4FF0500AB169F368481C5D
:100F6000B061002D17F8012B5A5403DC96F83810A5
:100F70000A071BD5F168431CB36101F80090002DEE
:100F800014DDA8F101080FFA88F039468542F768A8
:100F9000B8BFA8460FFA88F2F81800F09FF9B069B8
:100FA0000FFA88F108446D1AB0617562F068B16992
:100FB0000844002C80F800A003D42B224270811C2E
:100FC00003E02D2141706442811C00206A460AE042
:100FD00023460A2493FBF4F404EB8405A3EB4503B6
:100FE00002F8013B401C24B2002CF1DC012806DC95
:100FF0004AF02002652A04BF302201F8012B48B9CB
:10100000302001F8010B07E0401E1DF8003030339E
:1010100001F8013B0028F7DCF268B0691044091AB6
:10102000F16196F8380000F0140010280DD17269B3
:10103000B169706A8A18F1698218B06A8A188218D0
:10104000706B8242BCBF821A326204B0BDE8F08786
:10105000F8B505460E4617461C46002074B117F831
:10106000011BB068A847B06030B1F06A401CF06264
:101070000020641EF3D1F2BD4FF0FF30F2BD00003E
:101080007072696E74665F733A20256E20646973AE
:10109000616C6C6F776564007072696E74663A207B
:1010A00062616420256E20617267756D656E7400E3
:1010B0007072696E74665F733A2062616420257392
:1010C00020617267756D656E740000007072696EE4
:1010D00074665F733A2062616420256C73206172CC
:1010E00067756D656E740000000000000000000070
:1010F0006E616E004E414E00696E6600494E4600BC
:10110000300030B4002513E050F8042BD30744BF5F
:10111000A9F101039A18091F042942F8045BFAD2C5
:1011200013468C0744BF15809B1CC90748BF1D7020
:1011300050F8041B0029E7D130BC70471B487047AA
:1011400070B45368D418042B09DA41B1057804F857
:10115000015B10F8016B16B15B1C491EF3E753608D
:1011600070BC704738B514461D4661B1FFF7E8FF03
:1011700061686A6B204690476FF00102811A02D0C5
:10118000491E01D001E003E005E00021616032BDAD
:101190006FF0010032BD4FF0FF3032BDDA6B104707
:1011A000024BDFE7014BF9E70148704700000020E0
:1011B000480000200278C9B28A421AB11CBF10F858
:1011C000012FF9E718BF00207047B1F5807F02D3E7
:1011D0004FF0FF3070470170012070470078401ECB
:1011E0008041C043C00F704780B500B906A00549D3
:1011F0000B681BB122220021984701E000F099FD05
:10120000222002BDAC050020636F6E7374726169A9
:101210006E742068616E646C65723A20626164204D
:101220006D6573736167650000F10103810704D088
:1012300010F8011B820781B1FAD10268A2F10131D5
:10124000914311F0803104BF50F8042FF6E709BA3A
:10125000B1FA81F100EBD100401CC01A70478268DE
:10126000521C8260426832B10268531C03601170E4
:101270004168491E41607047C9B2830706D0521EBB
:1012800022D310F8013B9942F7D11FE0083A13D35B
:1012900002F1040241EA012141EA014150F8043B14
:1012A000121F21BF4B40A3F1013C2CEA030C1CF0A0
:1012B000803FF3D0C9B2001F083210F8013B521E24
:1012C00028BF91EA030FF8D818BF0120401E7047CD
:1012D00080B5FFF733FF006C02BD000062B38B07DF
:1012E00008D0521E11F8013B00F8013B00F02480A9
:1012F0008B07F6D1830740F0208000BF103A07D358
:1013000030B4B1E83810103AA0E83810F9D230BC47
:10131000530724BFB1E80810A0E8081044BF51F8F3
:10132000043B40F8043BD20724BF31F8022B20F8DD
:10133000022B44BF0B7803707047121F17D35B005A
:1013400009D151F8043B20F8023B1B0C121F20F876
:10135000023BF6D20BE051F8043B00F8013B1B0ABC
:1013600020F8023B1B0C121F00F8013BF3D238BFE0
:10137000121D521E24BF11F8013B00F8013BF8D8A2
:1013800070470000BBBBE1B1B2F5803F80F07E80CA
:10139000022A1ED98C46B1FBF2F102FB11C31B04D9
:1013A00043EA1043B3FBF2FC02FB1C3380B240EA79
:1013B0000343B3FBF2F002FB103240EA0C4000237F
:1013C0007047022A05D98446B0FBF2F002FB10C236
:1013D00070474AB105D100F0010249085FEA3000C8
:1013E000704700220023704700F0A6BC0B000200EB
:1013F000002100207047904271EB030CF6D3B3F547
:10140000803F2FD2F0B5B3FA83F7B1FA81F4A7F198
:101410000F0E3D1B5340CEF1200602FA0EF2F341AF
:101420005340B5F10F0746D80F3C2C444140C4F15E
:101430002006A040F1414140B1FBF3F603FB161139
:10144000A2FB0645001BA94102D2761E8018594115
:1014500080EA010221FA0EF362FA0EF200215A40EC
:101460003046F0BD30B4B1FBF3FC03FB1C11A2FB12
:101470000C45001BA94103D2ACF1010C8018594165
:1014800030BC02460B46604600217047B2F1807FB7
:1014900065D3F0B5B2FA82F7B1FA81F4C7F10F065D
:1014A0003D1B22FA06F307F1110EF24120355A4096
:1014B000B5F10F07B8D94140C4F12006A040F14171
:1014C0004140B1FBF3FC03FB1C11A2FB0C45001BCC
:1014D000A94103D2BCF1010C801859410F2F12D33E
:1014E0000F3FC90341EA5041B1FBF3F603FB16116C
:1014F000A2FB0645D4EBC030A94102D2761E80186B
:10150000594146EACC3C07B34140C7F12006B840F8
:10151000F1414140B1FBF3F603FB1611A2FB064576
:10152000001BA94102D2761E8018594180EA0102AF
:1015300021FA0EF3C7F1200462FA0EF20CFA07F05A
:101540005A402CFA04F13043F0BD80EA010221FA3E
:101550000EF3002162FA0EF260465A40F0BD8C464E
:10156000B1FBF2F102FB11C31B0243EA1063B3FBB0
:10157000F2FC02FB1C331B024CEA002043EA10631E
:10158000B3FBF2FC02FB1C331B024CEA002043EAD3
:101590001063B3FBF2FC02FB1C331B024CEA00207D
:1015A00043EA1063B3FBF2FC02FB1C324CEA00205E
:1015B00000237047B0B581EA030C0CF0004C40F2F8
:1015C000FF7515EA11541DBF15EA1357AC42AF421F
:1015D00039E0E41923EA455343F48013C90241F08A
:1015E000004141EA505EC7021100A7FB0202002839
:1015F0004FF00000EEFB01204FF00001E3FB07215C
:1016000018BF42F00102401800214941E3FB0E01DE
:10161000A4F580640F0302D252004041494154F1C5
:1016200001046CDD470872F1004250F1000051EBFB
:101630000451A1F580115CBF41EA0C01B0BD4CEA38
:1016400005510020B0BD05EA1357AC4214BFAF42AC
:1016500041E050EA410E1CBF52EA430E02E06146EF
:101660000020B0BD24423C441BD15FEA070EF6D0F7
:10167000090302BF01460020AEF1140EB1FA81F752
:10168000AEEB070401FA07FE0C37C7F1200100FAA0
:1016900007F7C8404EEA000E23EA455343F480138F
:1016A000A2E733F00043B3FA83F704BFB2FA82FE35
:1016B00077440B3FE41BB7F1200E2FBF02FA0EF365
:1016C000BB40C7F1200E22FA0EFE38BF43EA0E03DC
:1016D000BA40641C82E750EA410E14BF52EA430E3E
:1016E0006FF000014FF4001717EB430F8ABF194644
:1016F00017EB410FB5E74CEA05510020B0BDD4F11E
:101700000104B4F120070FDAC4F12007520828BF02
:1017100042F0010210FA07F501FA07F7E1BF2A4388
:10172000E0403843E1400FE0352C98DCC7F120045D
:1017300052EA400220FA07F218BF42F0010231FAE1
:1017400007F0A1400A43002172F1004250F100006D
:1017500051EB0C01B0BD000010B5144600F002F8CA
:10176000226010BDC1F30A5343B14A0012F5001FB5
:1017700028D2A3F2FE32A1EB0251704750EA410C8D
:1017800020D001F0004C31EA0C01B1FA81F204BF23
:10179000B0FA80F3D2180B3AB2F120032CBF00FA52
:1017A00003F1914041EA0C013EBFC2F1200C20FA46
:1017B0000CF319439040524240F2FD33D21A01EB30
:1017C00003517047002270474FF4001C1CEB410F7F
:1017D00094BF1CEB430F09E041EA030C50EA4C0CA8
:1017E00052EA0C0C03D2994208BF9042704714BFD2
:1017F0008B428242704700004FF4001C1CEB410FEB
:1018000094BF1CEB430F09E041EA030C50EA4C0C77
:1018100052EA0C0C03D28B4208BF8242704714BFBD
:101820009942904270470000124254D440F2FF7C2B
:101830001CEA11530FD0634531D09B1863453CBF60
:1018400001EB0251704701F0004141EA0C510020C8
:10185000AFF30080704750EA410320D001F0004C04
:1018600091EA0C011CD0B1FA81F30B3B9A420DD9DD
:10187000D21A994051EA0C01C3F1200C20FA0CFC59
:1018800061449840531C40F2FF7CD7E7914041EA05
:101890000C01C2F1200C20FA0CF319439040704760
:1018A000B0FA80F31533202BE0D3202AEED3203A70
:1018B000203B9A4209D9D21A00FA03F141EA0C01FD
:1018C0000020531C40F2FF7CB8E700FA02F141EA25
:1018D0000C0100207047524240F2FF7C1CEA115379
:1018E0000DD06345DBD0B2EB030C3CBFA1EB025142
:1018F00070470CF1010221EA035141F4801150EAD2
:10190000410CCCD001F0004C352A27DC30B481EA00
:101910000C01B2F1200309DAC2F12003044601FAF6
:1019200003F5D0402843D1409C400CE0C3F1200295
:10193000450020FA03F418BF44F0010421FA03F033
:1019400091400C43002174F1004550F1000051EB2F
:101950000C01244230BC7FF47BAF7047614600200D
:1019600076E70000C1F30A5340F2FE329B1A14DD01
:10197000D3F120034FEAE17208DDC90241EA505178
:1019800041F00040D84080185040704703F2E130E9
:1019900010B1D24382F00040704700207047000031
:1019A000C11768B14840401AB0FA80F29040D21C8A
:1019B000C907C2F5846241EA025202EBD021400518
:1019C0007047000070B44FF0004591EA030F40F1FA
:1019D000B5816B40841A71EB030603D2001BB14141
:1019E000121973414FF4001C1CEB410F34BF7CEB08
:1019F000430442E00C0DA4EB1356352E4FDC45EAB0
:101A0000C323DB0A45EAC121C912B6F120050DDD69
:101A100063FA05F6EB4086EA0305124218BF45F06B
:101A20000105C01851F100010CD213E062FA06F56D
:101A3000F2405540F3415A40B340F3405A408018B9
:101A4000594107D349085FEA30005FEA350528BFEE
:101A500045F0010501F58011420875F1004250F191
:101A6000000041EB04514E0016F5001F70BC38BF5A
:101A700070470020090D090570471CEB410F10D27B
:101A800052EA43060BD0BCEB410F05D80C0DAB431B
:101A9000661E342EB6DD02E0AB438018594170BC9F
:101AA000704770BC70470000F0B540F2FF7581EAE6
:101AB000030C0CF0004C15EA11541DBF15EA135726
:101AC000AC42AF42E5E0BC41C1F31301C3F31303E1
:101AD000801A994143F4801304D2641E40004941A6
:101AE00080185941C90241EA5051B1FBF3F603FB9A
:101AF0001611A2FB0675D7EBC020A94102D2761EB3
:101B000080185941C90241EA5051B1FBF3FE03FB71
:101B10001E11A2FB0E75D7EBC020A94103D2AEF176
:101B2000010E80185941890241EA9051760546EA32
:101B30008E2EB1FBF3F603FB1611A2FB0675D7EB55
:101B40008020A94102D2761E80185941C90241EA7B
:101B500050514EEA060EB1FBF3F603FB1611A2FB41
:101B60000675D7EBC020A94102D2761E80185941D4
:101B7000C90241EA5051B1FBF3F703FB1711A2FB75
:101B80000735D3EBC020A94167F100070CBF004225
:101B900047F0010766F3D5274FEA1E31B80814F560
:101BA000806412DDBD0775F1004250EB0E5051EB21
:101BB000045111F5801F5CBF41EA0C01F0BD4CF0EF
:101BC0007F6141F0E0410020F0BDBD076D0840EAB3
:101BD0000E5041F48011D4F10104B4F120060ADA68
:101BE000C4F120060200E04001FA06F3E140184388
:101BF000B24015430EE0342C13DCC6F1200445EA54
:101C000040056D0820FA06F2154321FA06F0A140BE
:101C10000D43002175F1004250F1000051EB0C0121
:101C2000F0BD00205FEA0C01F0BDCFB992185B4116
:101C3000B3FA83F704BFB2FA82F6BF190B3FB7F1CC
:101C400020062FBF02FA06F3BB40C7F1200622FA96
:101C500006F638BF3343BA401CB1E419641E33E7BB
:101C60007F4231F00041B1FA81F404BFB0FA80F64E
:101C7000A4190B3CB4F120062FBF00FA06F1A140D5
:101C8000C4F1200620FA06F638BF3143A0403C1BC1
:101C90001AE7AC421ABF05EA1357AF4212E050EA06
:101CA00041061CBF52EA4306BFE750EA41073046EF
:101CB00061461CBF41EA0551F0BD52EA430C08BF22
:101CC000C143F0BD00204FF4001616EB410F98BF42
:101CD00016EB430F08BF16EB410F24BFC14305E0CD
:101CE00016EB430F0CBF61464CEA0551F0BD0000F6
:101CF000400D491840EA81200CD2490DA1F58061C0
:101D0000491C40F0004005DBD1F11F0154BFC84021
:101D1000C017704700207047014648B1B0FA80F103
:101D20008840C91CC1F58461090501EBD02140053B
:101D30007047012000F0B8B870470000841A71EBBA
:101D4000030604D26E40001BB141121973414FF4D7
:101D5000001C1CEB410F34BF7CEB430683E00C0DF1
:101D6000A4EB1356362E00F37C80012E45EAC323E4
:101D700041DC43EA525312BFD20292025B082405AF
:101D800045EAC12141EA5051D2EBC020994125D406
:101D900007D1B0FA80F610FA06F162D000202036A2
:101DA00008E0B1FA81F6B140C6F1200220FA02F251
:101DB0001143B0404FEAF474B4EB465434F00106DA
:101DC0004FEA74040AD8D6F50016760D04F00044E4
:101DD000F04061FA06F25040F1404840C00A40EA43
:101DE000415021F0004128BF5FEA500550F100004A
:101DF00044EBD12135E0DB0A45EAC121C90AB6F13D
:101E000020050EDD42EA0242120CC5F1200603FA5B
:101E100006F6EB4042EA06056D42984161F1000189
:101E20000DE062FA06F5F240554063FA06FC82EADC
:101E30000C02F3405A406D42904161EB030111F4F2
:101E4000801F05D1641E620502D06D0040414941EA
:101E500021F48011430875F1004350F1000041EB7B
:101E6000045170BC70471CEB410F15D223F00043A6
:101E700052EA43060BD04FEA4C0CBCEB410F04D89E
:101E80000C0D661E342EB7DDEBE7801A994150EA3F
:101E9000410608BF0021E4E708BF1CEB430F28BF41
:101EA0006FF00001DDE7000080B5AFF30080024A6B
:101EB00011001820ABBEFBE726000200DFF80C067D
:101EC0000068C0F302207047012210F01F018A4011
:101ED000DFF8FC1503005BB25B0941F82320704773
:101EE00010B4020052B2002A0AD50A01DFF8E43524
:101EF000040064B214F00F04234403F8042C05E03A
:101F00000A01DFF8D435040064B21A5510BC7047DA
:101F100070B4030013F00704D4F10700052801D3BF
:101F2000042001E0D4F10700251D072D01D2002572
:101F300000E0E51E012616FA00F0401E0140A9400F
:101F400016FA05F56D1E2A401143080070BC704753
:101F500081B0DFF888150A6802430A600968014009
:101F60000091009901B07047DFF870150A6882434C
:101F70000A60704781B0DFF868150A6802430A609A
:101F8000096801400091009901B07047DFF85015D1
:101F90000A6882430A607047F0B4046891FAA1F5B8
:101FA000B5FA85F391FAA1F6B6FA86F75FF0030C5D
:101FB000DBB25B001CFA03FC34EA0C04FFB27B00CA
:101FC00012FA03F31C430460F0BC7047C16851F47B
:101FD0000051C1607047016931F49041016141696C
:101FE00031F02A01416170470068800910F001005A
:101FF00070470068C00910F0010070477FF0400191
:1020000001607047C16851F02001C1607047C0682D
:10201000800910F001007047C068C00910F001008D
:1020200070474068C0B270470A00D2B24260704741
:1020300001000020087000204870002088700020F7
:10204000C87000200871002088600020C86000204F
:10205000086100204861002088610020C8610020DC
:1020600081F83800002081F83900002081F83B0019
:10207000002088870020C8870020A1F840000020A9
:10208000A1F842000020A1F844000020886400204C
:10209000C864002081F82000002081F82100002081
:1020A00081F82300002088840020C884002008854F
:1020B00000204885002088850020086300204863B0
:1020C00000200865002070472DE9F84F04000F003C
:1020D000904699460A9DDDF82CA00C9EDDF834B0A0
:1020E000002C22D02000FFF7A3FF84F83990A4F839
:1020F0004270C4F84C80B4F84200FB2801DB012098
:10210000207084F821606585C4F834A0C4F850B00C
:10211000DFF8D00301688C4205D10068002802D0A6
:10212000200000F06FF9002000E00120BDE8F28FF0
:1021300010B50400002C06D0E069002803D0E06947
:10214000FFF76AFF00E0002010BD10B50400002C6E
:1021500006D0E069002803D0E069FFF74AFF00E0FD
:10216000002010BD10B50400002C06D0E069002846
:1021700003D0E069FFF74BFF00E0002010BD10B571
:102180000400002C06D0E069002803D0E069FFF7C6
:102190002BFF00E0002010BD10B50400002C07D07C
:1021A000E069002804D0E069FFF728FF002000E084
:1021B000012010BD38B504000D00002C13D0E069DB
:1021C000002810D02800C0B2012805D10122616981
:1021D000A069FFF7E1FE04E000226169A069FFF752
:1021E000DBFE002000E0012032BD38B504000D0008
:1021F000002C09D0E069002806D02900C9B2E069A6
:10220000FFF712FF002000E0012032BD10B50400EE
:10221000002C06D0E069002803D0E069FFF701FF39
:1022200000E0012010BD10B50400002C0FD0E069C3
:1022300000280CD0206D002803D0206D8047A060BE
:1022400001E00020A060A068E060002000E0012024
:1022500010BD38B504000D002900C9B22000FFF7F9
:10226000C4FF2000FFF78BFF002804D19E480068C0
:1022700000F053F9F5E72000FFF78EFF002032BD94
:102280000CB42DE9F84F04000D002000FFF750FFBB
:10229000002809D02000FFF758FF002804D09248FA
:1022A000006800F03AF9F5E72000FFF75BFF00282F
:1022B00010D02000FFF763FF002808D094F8230017
:1022C000002804D18848006800F027F9F1E72000D1
:1022D000FFF762FF01212000FFF76CFF5FF0000AAB
:1022E0005FF0000B0AAE814F33002A004FF480618B
:1022F000380000F021F980465FF000094846414669
:1023000080B289B2884208D2484680B2395C200047
:10231000FFF79FFF19F10109F0E700212000FFF707
:1023200049FFBDE8F10F5DF80CFB38B504000D0066
:102330006F4884420CD12800C0B2002803D010207E
:10234000FFF718FE02E01020FFF720FE002058E003
:10235000684884420ED12800C0B2002804D05FF43F
:102360000030FFF7F5FD03E05FF40030FFF7FCFD00
:10237000002046E0604884420ED12800C0B2002808
:1023800004D05FF48020FFF7E3FD03E05FF48020DA
:10239000FFF7EAFD002034E0584884420CD12800C1
:1023A000C0B2002803D02020FFF7E4FD02E0202087
:1023B000FFF7ECFD002024E0514884420ED12800B4
:1023C000C0B2002804D05FF40020FFF7C1FD03E095
:1023D0005FF40020FFF7C8FD002012E04948844266
:1023E0000ED12800C0B2002804D05FF48010FFF79F
:1023F000AFFD03E05FF48010FFF7B6FD002000E0C2
:10240000012032BD78B58DB004003F4D0121280078
:1024100000F0B0F8022008900320099000200A90F4
:1024200001200B904FF4C060079007200C9007A983
:10243000280000F03CF92E4E300000F037FA012160
:102440003000FFF772FF5FF4E13000900020019050
:1024500000200290002003900C20049000200590A2
:10246000002006906946300000F06CFA3000FFF75B
:10247000B2FDFFF723FD00220221FFF749FD010015
:102480002520FFF72DFD2520FFF71EFD3000FFF76B
:10249000B9FD3000FFF79AFD00203060A5614FF4D0
:1024A00000706061E6610220607064202061552048
:1024B000A0705A20E07000212000FFF77BFE134936
:1024C0002000FFF7DDFE00200EB070BD0CED00E037
:1024D00000E100E018ED00E000E400E040380240D8
:1024E00044380240A80000209C000020B4000020D6
:1024F000001001400044004000480040001401402A
:10250000004C004000500040000002401449000808
:102510004AF6AA21074A1160704710B504002068E6
:10252000002801D1034820602068FFF7F1FF002058
:1025300010BD00000030004008B584B000230393B4
:1025400000290EBF01930190491E0291009301A939
:1025500004AB074878441830FDF716FE019909B11D
:1025600000220A70002858BF039805B000BD00BFC4
:10257000EFECFFFF38B504000D002900C9B22000C0
:1025800000F04AFA31BD80B500F04FFA01BD0000FD
:10259000F0B4046891FAA1F5B5FA85F391FAA1F6C1
:1025A000B6FA86F75FF0030CDBB25B001CFA03FCA3
:1025B00034EA0C04FFB27B0012FA03F31C430460FC
:1025C000F0BC704710B444688C4302FB01F31C4319
:1025D000446010BC7047F0B4846891FAA1F5B5FA74
:1025E00085F391FAA1F6B6FA86F75FF0030CDBB239
:1025F0005B001CFA03FC34EA0C04FFB27B0012FA05
:1026000003F31C438460F0BC7047F0B4C46891FAD3
:10261000A1F5B5FA85F391FAA1F6B6FA86F75FF05F
:10262000030CDBB25B001CFA03FC34EA0C04FFB2BF
:102630007B0012FA03F31C43C460F0BC7047F0B493
:10264000046A91FAA1F5B5FA85F391FAA1F6B6FA02
:1026500086F75FF00F0CDBB29B001CFA03FC34EA38
:102660000C04FFB2BB0012FA03F31C430462F0BC7B
:102670007047F0B4446A0B001B0A93FAA3F5B5FA4D
:1026800085F30E00360A96FAA6F6B6FA86F75FF0DC
:102690000F0CDBB29B001CFA03FC34EA0C04FFB203
:1026A000BB0012FA03F31C434462F0BC7047F8B558
:1026B00005000E0000200024316891FAA1F1B1FA62
:1026C00081F7FFB23068F840002832D0306801212D
:1026D000B94008400400002C29D07268210028006D
:1026E000FFF756FF7068012802D07068022804D1F5
:1026F000B26821002800FFF76EFF32692100280030
:10270000FFF783FF7068022811D194FAA4F0B0FAA1
:1027100080F1C9B2082905D2726921002800FFF7AB
:102720008EFF04E0726921002800FFF7A2FF7F1CE2
:10273000C8E77068012802D07068022804D1F268E6
:1027400031682800FFF73EFF0120F2BDC068400B52
:1027500010F001007047026932F440520A430261EE
:102760007047426932F440720A4342617047F0B5E3
:10277000B2F5004F43D16424192505FB01F65F0033
:10278000B6FBF7F66427B6FBF7F605FB01F75FEA41
:10279000430CB7FBFCF705FB01FC5FEA430EBCFBF7
:1027A000FEFC5FF0640EBCFBFEFC04FB1C77FF002C
:1027B00032375FF0640CB7FBFCF77F0017F4F87753
:1027C00017EB061705FB01F65FEA430CB6FBFCF6B8
:1027D00005FB01F55FEA430CB5FBFCF55FF0640C0B
:1027E000B5FBFCF504FB1564E40032346425B4FB4E
:1027F000F5F414F00704E719BFB2876041E06424E0
:10280000192505FB01F69F00B6FBF7F66427B6FB1A
:10281000F7F605FB01F75FEA830CB7FBFCF705FB56
:1028200001FC5FEA830EBCFBFEFC5FF0640EBCFBA8
:10283000FEFC04FB1C773F0132375FF0640CB7FBF2
:10284000FCF717F0F00717EB061705FB01F65FEA38
:10285000830CB6FBFCF605FB01F55FEA830CB5FBC8
:10286000FCF55FF0640CB5FBFCF504FB156424017A
:1028700032346425B4FBF5F414F00F04E719BFB249
:102880008760F0BD5B490A6802430A607047594996
:102890000A6882430A60704757490A6802430A601F
:1028A000704755490A6882430A60704738B504008A
:1028B00001255248844206D11020FFF7EDFF102079
:1028C000FFF7EFFF3BE04E48844208D15FF4003051
:1028D000FFF7D8FF5FF40030FFF7D9FF2FE049483A
:1028E000844208D15FF48020FFF7CCFF5FF48020A2
:1028F000FFF7CDFF23E04448844206D12020FFF7B4
:10290000CBFF2020FFF7CDFF19E04048844208D1DB
:102910005FF40020FFF7B6FF5FF40020FFF7B7FF7A
:102920000DE03B48844208D15FF48010FFF7AAFF16
:102930005FF48010FFF7ABFF01E0002005002800E6
:10294000C0B232BDF8B584B005000E0000270024E7
:102950002800FFF7FBFE002846D1E9682D4801401A
:1029600070680143F068014330690143B069014375
:10297000E960B1682800FFF7EEFE71692800FFF7F3
:10298000F0FE684600F07EF81C48854202D10398AC
:1029900004001CE01A48854202D10298040016E0A7
:1029A0001848854202D10298040010E0164885427A
:1029B00002D1039804000AE01448854202D102982B
:1029C000040004E01248854201D102980400002C62
:1029D0000AD03068002807D0012007003368B269A8
:1029E00021002800FFF7C3FE3800C0B205B0F0BDDB
:1029F000000000002038024024380240001001404E
:102A0000004400400048004000140140004C0040D9
:102A100000500040F369FFFF38B504000D002900A5
:102A2000C9B2200000F0C9F831BD80B500F052F9FC
:102A300001BD00004D48006810F00C0070474B4885
:102A4000006810F0F00070474848006810F4E0504B
:102A500070474648006810F460407047444800687A
:102A600010F48000704742480068C0F38810704737
:102A70003F48006810F4403070473D48006810F04F
:102A80003F00704710B5040000F00EF82060206889
:102A900000F01FF86060606800F026F8A0606068D1
:102AA00000F02CF8E06010BD10B50024FFF7C2FF65
:102AB000002804D0042804D0082804D007E02D48BA
:102AC00006E02D4804E0082000F022F800E0294844
:102AD00010BD10B50400FFF7B2FF2849C0F3031082
:102AE000085CC440200010BD10B50400FFF7ACFF27
:102AF0002349800A085CC440200010BD10B50400C2
:102B0000FFF7A7FF1E49400B085CC440200010BD22
:102B10002DE9F84304005FF0000800270025FFF7C7
:102B20009DFF06003000002803D0B0F5800F02D0D2
:102B300003E0104F02E0104F00E00E4F082C11D1BF
:102B4000FFF79BFF8046FFF78EFF8146B7FBF8F04B
:102B500009FB00F9FFF78CFF000C401C4000B9FB9B
:102B6000F0F005002800BDE8F283000008380240BC
:102B7000043802400024F40000127A00444900089E
:102B80007049000881B068490A6802430A60096810
:102B900001400091009901B0704763490A6882437F
:102BA0000A60704781B061490A6802430A60096897
:102BB00001400091009901B0704738B504000D0044
:102BC0005B4884420BD12800C0B2002803D001200A
:102BD000FFF7D8FF02E00120FFF7DFFF79E055485B
:102BE00084420BD12800C0B2002803D00220FFF796
:102BF000C9FF02E00220FFF7D0FF6AE04E4884429E
:102C00000BD12800C0B2002803D00420FFF7BAFF80
:102C100002E00420FFF7C1FF5BE0484884420BD18B
:102C20002800C0B2002803D00820FFF7ABFF02E065
:102C30000820FFF7B2FF4CE0414884420BD1280046
:102C4000C0B2002803D01020FFF79CFF02E0102044
:102C5000FFF7A3FF3DE03B4884420BD12800C0B200
:102C6000002803D02020FFF78DFF02E02020FFF78F
:102C700094FF2EE0344884420BD12800C0B20028D3
:102C800003D04020FFF77EFF02E04020FFF785FFE2
:102C90001FE02E4884420BD12800C0B2002803D088
:102CA0008020FFF76FFF02E08020FFF776FF10E043
:102CB000274884420DD12800C0B2002804D04FF428
:102CC0008070FFF75FFF03E04FF48070FFF765FF50
:102CD000FFE731BD80B501211548FFF76EFF0121E7
:102CE0001448FFF76AFF01211348FFF766FF01212F
:102CF0001248FFF762FF01211148FFF75EFF012133
:102D00001048FFF75AFF01210F48FFF756FF012136
:102D10000E48FFF752FF01210D48FFF74EFF4FF419
:102D20008040FFF73FFF01BD303802404438024089
:102D3000000002400004024000080240000C024073
:102D4000001002400014024000180240001C024023
:102D50000020024001210170012141700021817099
:102D60000021C17000210171002141710221817196
:102D70002321C1710D210172412141720D21817206
:102D80004121C1720021017300214173002181732F
:102D90000021C1730021017400214174002181745C
:102DA0000021C17400210175002141750021817548
:102DB0000021C17500210176002141760021817634
:102DC0000021C1760021C161DFF81C1501620021DC
:102DD0004162002181647047010000208862DFF8B1
:102DE0000C05C86208634FF4807048634FF40070AC
:102DF0008863002081F83C00012081F83D0000201C
:102E000048643420C8870020086400207047F8B563
:102E100004000D00160000272000FFF79BFF200094
:102E2000FFF7DAFF3000C0B2002814D1290014F1F6
:102E3000280000F083FA07000FF22100A064211D92
:102E4000200000F045F8211D200000F041F8A11DF0
:102E5000200000F03DF83800C0B2F2BD2DE9F84383
:102E600004000D0016005FF000090027012114F195
:102E7000280000F06BFA80464046C0B2002802D01D
:102E8000022080461CE00020070038003100C0B25C
:102E9000C9B2884214D23800C0B2295C14F12800AB
:102EA00000F069FA14F1280000F05FFA804640460D
:102EB000C0B2002802D0F81C804601E07F1CE4E785
:102EC00014F1280000F04BFA4046C0B2BDE8F2838E
:102ED00038B504000D00002C08D0A06C002805D0E7
:102EE000022229002000A36C984700E0012032BD97
:102EF000000000000A00DFF8F0130162DFF8F013B1
:102F00008A4202D3DFF8EC130A0044F620618A42B9
:102F100000D20A00DFF8E0138A4206D30021817054
:102F20000021017000214170F4E0DFF8D0138A42E3
:102F300009D300218170012101700021417003211A
:102F40004A435208E6E0DFF8B8138A4207D300216B
:102F5000817002210170002141705200DAE0DFF837
:102F6000A4138A4208D3002181700321017000213B
:102F7000417003214A43CDE0DFF88C138A4207D326
:102F80000021817004210170002141709200C1E094
:102F9000DFF878138A4208D300218170052101707F
:102FA0000021417006214A43B4E0DFF864138A42ED
:102FB00007D3002181700621017000214170D200E9
:102FC000A8E0DFF850138A4208D30021817007215E
:102FD0000170002141700C214A439BE0DFF8381357
:102FE0008A4207D3002181700621017001214170BE
:102FF00012018FE0DFF824138A4208D30021817088
:10300000072101700121417018214A4382E0C4491F
:103010008A4207D30021817006210170022141708C
:10302000520177E0BF498A4208D30021817007210D
:1030300001700221417030214A436BE0BA498A4253
:1030400008D30021817006210170032141704021C5
:103050004A435FE0B5498A4208D3002181700721C5
:1030600001700321417040214A4353E0B0498A4234
:1030700008D3002181700421017005214170802155
:103080004A4347E0AB498A4208D3002181700521B9
:10309000017005214170C0214A433BE0A6498A42A4
:1030A0000BD3012181700621017004214170802120
:1030B0004A43016A490801622CE04BF21C718A42C2
:1030C0000BD3012181700721017004214170C021BF
:1030D0004A43016A490801621CE048F655118A42D8
:1030E0000CD30121817006210170052141704FF43C
:1030F00080714A43016A490801620BE00121817035
:1031000007210170052141704FF4C0714A43016AE3
:1031100049080162910000EE101AF8EE400A90EDA5
:10312000081AB8EE411AC0EE810AC0ED090AD0EDC6
:10313000090AFDEEE00A10EE901AC170C17800EEA7
:10314000901AF8EE600A90ED091A71EE600A9FED90
:10315000651A60EE810AFCEEE00AC0ED070A0D2157
:103160000172017849014172417A427851EA820143
:103170004172417A51F00101417248210173817815
:10318000002901D1002100E010214173427BC17868
:103190000A4342734A210174C169890C11F03F014D
:1031A0004174C169490C11F0010151F04C010175E4
:1031B000C169490A4175C169090A11F0010151F05B
:1031C0004E010176C1694176704770B504000D006B
:1031D000002629002000FFF78DFE022214F10A01CB
:1031E00014F1080000F0D0F8002810D0207AA07266
:1031F000607AE07214F108012000FFF769FE060012
:103200003000C0B2002802D00120060066E0022291
:1032100014F10E0114F10C0000F0B6F8002810D0E3
:10322000207BA073607BE07314F10C012000FFF79A
:103230004FFE06003000C0B2002802D00220060077
:103240004CE0022214F1120114F1100000F09CF87D
:10325000002810D0207CA074607CE07414F1100170
:103260002000FFF735FE06003000C0B2002802D073
:103270000320060032E0022214F1160114F11400BA
:1032800000F082F8002810D0207DA075607DE075E8
:1032900014F114012000FFF71BFE06003000C0B23D
:1032A000002802D00420060018E0022214F11A01BE
:1032B00014F1180000F068F800280FD0207EA076E6
:1032C000607EE07614F118012000FFF701FE060091
:1032D0003000C0B2002801D0052006003000C0B286
:1032E00070BD0000FFFF7F4B001BB70000040240D1
:1032F00081D5430280D5430281A81201011BB7008A
:1033000041548900818D5B0021AA4400C1C62D0073
:103310001155220061E31600892A1100B1710B00DA
:1033200045950800D9B80500A34A04006DDC0200E9
:1033300052250200376E0100A912010038B50400C1
:103340000D002900200000F053F832BD38B504000C
:103350000D002900C9B2200000F052F832BD10B5AE
:103360000400200000F068F810BD10B50400200033
:1033700000F068F810BD38B504000D002900C9B28E
:10338000200000F065F832BD0300002013F0030FA9
:1033900009D0521E22BF13F8010B11F801CBB0EB7C
:1033A0000C00F3D0704711F0030F14D1121F22BF8D
:1033B00053F8040B51F804CB6045F7D0121D0AD224
:1033C00000BA9CFA8CFCB0EB0C0038BF6FF0000028
:1033D00088BF01207047521E22BF13F8010B11F85D
:1033E00001CBB0EB0C00F6D0521C08BF1046704762
:1033F00038B504000D002900200000F045F832BD6A
:1034000038B504000D00200000F072F82800C0B2AA
:10341000002804D0A07D10F0FE00E08203E0E08AE6
:1034200050F00100E082E18AC9B2200000F0F0F81B
:10343000200000F0A9F832BD10B50400200000F013
:103440007FF810BD10B50400200000F09DF810BDFD
:1034500038B504000D002900C9B2200000F0D8F8EA
:1034600032BD00690840884201D1012000E00020FF
:10347000C0B27047816170470A04826170470100E1
:103480000020C8610020704738B586B004000D00E8
:103490002000FFF7F4FF01216068FFF76BF80121BE
:1034A000A068FFF767F8E1686068FFF7E3FF21694C
:1034B000A068FFF7DFFFE068009001200190022084
:1034C000029001200390012004900020059069469D
:1034D0006068FFF7ECF8206900906946A068FFF784
:1034E000E6F82800002800D0E561002007B030BDD4
:1034F00010B504002169A068FFF7BCFFE1686068AF
:10350000FFF7B8FFE069002802D0607DE1698847D5
:103510002169A068FFF7B0FFE069002802D0607D54
:10352000E1698847E1686068FFF7A6FF2169A06844
:10353000FFF797FF002801D0012000E0002010BD18
:1035400010B504002169A068FFF796FFE168606884
:10355000FFF790FFE069002802D0607DE1698847AD
:103560002169A068FFF786FFE069002802D0607D2E
:10357000E16988472169A068FFF773FF002801D13E
:10358000012000E0002010BD38B5040000252169AD
:10359000A068FFF76FFFE1686068FFF76BFFE06905
:1035A000002802D0607DE16988472169A068FFF7A3
:1035B00058FF002801D001200500E1686068FFF78E
:1035C0005BFF2800C0B232BD38B504000D002806EC
:1035D00004D52169A068FFF74DFF03E02169A068C9
:1035E000FFF74AFFE1686068FFF744FFE0690028E1
:1035F00002D0607DE1698847E1686068FFF73CFFC1
:10360000E069002802D0607DE1698847002032BD72
:10361000F8B504000D000026E1686068FFF72CFF94
:1036200000273800C0B2082807DA2900C9B22000F4
:10363000FFF7CAFF6D007F1CF3E70020F2BD00001A
:1036400010B410F00703DFF80C4422684FF6FF01B6
:103650000A40DFF8041451EA03210A43226010BC37
:103660007047DFF8F0030068C0F30220704710B421
:10367000020052B2002A0AD50A01DFF8E033040042
:1036800064B214F00F04234403F8042C05E00A018B
:10369000DFF8CC33040064B21A5510BC704770B424
:1036A000030013F00704D4F10700052801D3042018
:1036B00001E0D4F10700251D072D01D2002500E00F
:1036C000E51E012616FA00F0401E0140A94016FA38
:1036D00005F56D1E2A401143080070BC704781B08B
:1036E000DFF880130A6802430A600968014000910C
:1036F000009901B07047042806D1DFF86C130A68FE
:1037000052F004020A6004E0D7490A6832F0040269
:103710000A607047D5490A6832F4804202430A6061
:103720007047D248016851F4807101607047D048F9
:10373000016851F4803101607047CD480068400C49
:1037400010F001007047CB48016851F001010160A1
:103750007047C8480068400810F001007047C6492B
:103760000A689208920002430A607047C2480068E3
:1037700010F00C007047C0490A6832F0F0020243B2
:103780000A607047BC490A6832F4E05202430A609A
:103790007047B9490A6832F4604202430A607047D0
:1037A000B6490A6832F4407202430A607047B3486F
:1037B000016851F4004101607047B048016851F45C
:1037C000803101607047AD48016831F4803101609B
:1037D0007047A9490A6832F4F81202430A60704738
:1037E000A348016851F0807101607047A0480068EB
:1037F000400E10F00100704770B4A14D2E68A14C2E
:10380000264006430E4356EA82162E602C6834F496
:1038100040341C432C6070BC704770B4984D2E68C7
:10382000994C264006430E4356EA82161E432E60EC
:1038300070BC704795490A681209120102430A6078
:1038400070479248006810F00F0070478F48016879
:1038500051F48071016070478C48016851F4007127
:10386000016070478948016851F4806101607047C8
:1038700080B50520FFF7DEFFFFF7E3FF052803D043
:103880001721834800F022F94FF48040FFF742FFF0
:10389000FFF74DFFFFF751FF0128FBD1FFF753FF63
:1038A000FFF757FF0128FBD1FFF73BFFFFF785FF2D
:1038B000FFF789FF4FF44070FFF772FF5FF40020BD
:1038C000FFF787FFFFF773FF0023A82204215FF4AF
:1038D0008000FFF791FF5FF0E063A82204215FF40E
:1038E0008000FFF79AFFFFF77BFFFFF77FFF0128BC
:1038F000FBD10020FFF73FFF4FF4A050FFF742FF3E
:103900004FF40040FFF745FF0220FFF728FFFFF7C5
:103910002DFF0828FBD10420FFF7EDFE5D4800F0E5
:10392000D7F8FFF793FFFFF79DFFFFF795FF01BD66
:1039300080B55FF08050FFF7D2FE0320FFF780FED6
:10394000FFF78FFE00220021FFF7A9FE01007FF0A4
:103950000B00FFF78CFEFFF784FE00220021FFF72B
:103960009EFE01007FF00A00FFF781FEFFF779FE5F
:1039700000220021FFF793FE01007FF00900FFF70E
:1039800076FEFFF76EFE00220021FFF788FE0100A1
:103990007FF00400FFF76BFEFFF763FE00220021BB
:1039A000FFF77DFE01007FF00300FFF760FEFFF7E9
:1039B00058FE00220021FFF772FE01007FF0010097
:1039C000FFF755FE01BD38B584B0FFF751FFFFF793
:1039D000AFFFFEF7D8FD00F081F800F09BF800F093
:1039E0009DF82D4C2D4D2E4A2900206800F09AF8A4
:1039F000206800F0A1F82B4C002229002068FFF776
:103A000006FA29492068FFF7E0FB28492068FFF7FC
:103A1000DCFB2748039000200290264801901020EC
:103A200000900023244A10212448006800F08AF8FE
:103A300005B030BD80B5FFF7C6FF4FF4FA7000F057
:103A4000B8F84FF4FA7000F0B4F81D480068FEF7BB
:103A500064FDF2E70CED00E00000FA0518ED00E06F
:103A600000E400E04038024010E000E00070004058
:103A70000038024074380240083802407038024072
:103A8000043802400080BFFF0080BFF0003C0240CD
:103A900000480008007A030A94000020A73B0008B1
:103AA000B33B0008AC00002040420F0080841E00A1
:103AB000F13A00089805002080000020A8000020AE
:103AC0009C00002072B6704762B67047FEE70000A7
:103AD0000149086070470000A000002080B500F098
:103AE0006EF802BD10B50400200000F06CF810BDA7
:103AF00080B500F06EF802BD80B500F06EF802BD32
:103B000010B50400200000F06CF810BD80B500F086
:103B10006EF802BD80B500F06EF801BD80B500F012
:103B20006FF801BD70B504000D00160032002900C9
:103B3000200000F069F870BD10B50400200000F00E
:103B40006DF810BD2DE9F84F84B006000F009046C7
:103B500099460E9CDDF83CA0109DDDF844B0CDF8F0
:103B60000CB02800C0B20290CDF804A0200080B2B2
:103B700000904B46DBB24246390089B2300000F07B
:103B800053F805B0BDE8F08F10B50400200000F038
:103B90006DF810BD38B504000D002900C9B2200031
:103BA00000F070F832BD10B50400200000F0CCF831
:103BB00010BD10B50400200000F0C0F810BD80B5A5
:103BC00000F03DF902BD10B50400200000F05CF9E2
:103BD00010BD80B500F06DF902BD80B500F072F93E
:103BE00002BD10B50400200000F0ACF910BD80B596
:103BF00000F0D8F902BD80B500F024FA01BD000044
:103C000080B500F04CFA01BD70B504000D0016003F
:103C100032002900200000F009FB70BD10B504003F
:103C2000200000F0E8FB10BD2DE9F84F84B006003D
:103C30000F00904699460E9CDDF83CA0109DDDF8E3
:103C400044B0CDF80CB02800C0B20290CDF804A06A
:103C5000200080B200904B46DBB24246390089B268
:103C60003000FEF731FA05B0BDE8F08F10B5040062
:103C70002000FEF7CBFA10BD10B504002000FEF7BF
:103C8000D2FA10BD38B504000D002B490D70002C80
:103C90004FD0E06900284CD0E06C002849D094F85F
:103CA0003B00002803D002282BD011D33FE0A08F87
:103CB00000280CD1A0780A78904208D10878E16CED
:103CC0000870012084F83B002000FFF7D5FF30E0AA
:103CD000087800280ED00878B4F84220D2B290427A
:103CE00008D20878E26C50700878E087022084F8E7
:103CF0003B0002E0002084F83B002000FFF7BCFFFF
:103D000017E0E06CA28F104409788170A08F401CEE
:103D1000A087A08FE18F884205D3032084F83B0061
:103D2000012084F83A002000FFF7A6FF01E0002000
:103D3000A060002032BD0000B005002010B50400D6
:103D4000200000F09BFB10BD10B50400200000F027
:103D5000A5FB10BD10B410F00703A34C22684FF66A
:103D6000FF010A40A14951EA03210A43226010BC25
:103D700070479D480068C0F30220704710B40200ED
:103D800052B2002A09D50A01994B040064B214F01A
:103D90000F04234403F8042C04E00A01954B0400AB
:103DA00064B21A5510BC704770B4030013F00704D6
:103DB000D4F10700052801D3042001E0D4F1070065
:103DC000251D072D01D2002500E0E51E012616FA6B
:103DD00000F0401E0140A94016FA05F56D1E2A406C
:103DE0001143080070BC7047B0FBF1F2521E824BC9
:103DF0001A600022814B1A600522814B1A607047BD
:103E00007F48016831F002010160002070477C4862
:103E1000016851F00201016000207047010000209C
:103E2000086000204860002088600020C8600020F2
:103E3000086100204861002088610020704710B5AB
:103E4000704C2068FFF7EAFFFFF7DAFF4FF47A7152
:103E50006D480068FFF7C8FF0320FFF77BFFFFF7FF
:103E600088FF00220021FFF79FFF01005FF0FF3075
:103E7000FFF784FFFFF7CBFF012064490870644817
:103E800021684861002010BD38B504005D4D2868E8
:103E900000280CD02868446028684068002804D0B6
:103EA0005C480068FEF739FBF6E7002000E00120DF
:103EB00032BD54490868002802D00868006800E054
:103EC0000020704710B54F4C2068002838D020687B
:103ED0000068401C216808602068C068401C216898
:103EE000C86020680068002804D120688068401CF1
:103EF0002168886020684069002802D020684069F5
:103F000080472068006900280FD020680069216878
:103F1000C968884209D120688069002805D000203E
:103F20002168C86020688069804720684068002850
:103F300004D020684068401E21684860002000E0EE
:103F4000012010BD2DE9F04704002B4D2E682C4FA9
:103F5000D7F80080DFF8A490D9F800A004203860DA
:103F6000294800682C49B0FBF1F000FB04F09638BA
:103F700028600020C9F80000386850F0010038605F
:103F80003868C00304D423480068FEF7C6FAF7E790
:103F9000042038602E60C9F800A0C7F80080002017
:103FA000BDE8F0871648006840070CD51248006845
:103FB000154909684FF47A72B1FBF2F1491E884243
:103FC0000FD001200EE00C4800680F4909684FF43B
:103FD0007A72B1FBF2F1C908491E884201D0012072
:103FE00000E00020704700000CED00E00000FA0542
:103FF00018ED00E000E400E014E000E018E000E06C
:1040000010E000E0A4000020A0000020B00000208C
:104010002D4900089C00002040420F0081B010494B
:104020000A6802430A60096801400091009901B0E2
:104030007047016851F0040101607047406810F05A
:104040000100704710B54020FFF7E8FF054C200045
:10405000FFF7EFFF2000FFF7F1FF0128FAD110BDB5
:10406000343802400008065081B045490A680243CE
:104070000A60096801400091009901B07047012170
:104080008160704701607047006870470021C1601F
:10409000002181600021416000210160704710B55E
:1040A000384C2068FFF7F2FF00F015F84FF480500D
:1040B000FFF7DAFF0FF23500216808600FF26100A8
:1040C000216848600FF28D00216888600FF2C100FE
:1040D0002168C86010BD80B52B4800F009FA01BD09
:1040E00080B52948FFF7CBFF01BD00002DE9F04165
:1040F00004000D0000265FF00008FFF7F1FF002725
:10410000AF4207D2E05D804641461F48FFF7BAFF45
:104110007F1CF5E71C48FFF7B7FFBDE8F081000002
:1041200070B403000020002200258D420ED206004C
:10413000B6B2360A5A5D56403400144A2600F6B22A
:1041400032F8162092EA00206D1CEEE780B270BCB7
:104150007047000070B402000020002400258D424A
:104160000AD2545D44402300084C1E00F6B234F8D5
:10417000164020006D1CF2E7C0B270BC7047000012
:1041800030380240900000200030024020450008F6
:1041900010B403000022002000248C4203D21A5DD8
:1041A0001018641CF9E74042C0B210BC7047000010
:1041B00000690840884201D1012000E00020C0B21F
:1041C0007047816170470A048261704701000020D6
:1041D000486100200861002048600020086000203D
:1041E000704710B586B00400002C02D0E0680028AB
:1041F00001D1012018E00121E068FEF7BBF9A068B9
:1042000000900120019002200290012003900120E3
:104210000490002005906946E068FEF748FAA1681E
:10422000E068FFF7CEFF002006B010BD70B50400B7
:104230000D0016002000FFF7C9FF002C06D0114822
:104240000068844202D1200000F013F82000FFF73C
:10425000C8FF2800002801D0256101E00A4820613C
:104260003000002801D0666101E00848606100204C
:1042700070BD01004FF4804088600548C860002090
:104280007047000094000020A73B0008B33B0008E3
:104290000004024010B50400A168E068FFF791FF38
:1042A0002069002802D0022021698847A168E068BF
:1042B000FFF789FF6069002802D0142061698847F0
:1042C000A168E068FFF77DFF2069002802D01E206A
:1042D00021698847002010BD70B504000025A16841
:1042E000E068FFF765FF00280AD02069002802D0A7
:1042F0000120216988476D1C2800C0B2C928EEDB67
:104300002800C0B2C92801DB012018E00026A168FE
:10431000E068FFF74DFF00280AD12069002802D08D
:10432000012021698847761C3000C0B2C928EEDB25
:104330003000C0B2C92801DB012000E0002070BDC0
:1043400010B504002000FFF7A5FF2000FFF7C4FF11
:1043500010BD38B504000025A168E068FFF728FF0C
:1043600000280CD02069002802D00120216988474C
:104370006D1C2800C0B29728EEDB002005002069E4
:10438000002802D00A2021698847A168E068FFF769
:104390000FFF00280CD12069002802D001202169DC
:1043A00088476D1C2800C0B29728EEDB002005006E
:1043B0002069002802D0322021698847A168E0687E
:1043C000FFF7F6FE002801D0012000E0002032BDFA
:1043D00070B505000021002000263100C9B208296F
:1043E00007DA400004002800FFF7B3FF2043761CE3
:1043F000F3E7C0B270BD7CB504006846002100221E
:10440000C0E9001200262000FFF79AFF002801D023
:10441000012032E000252800C0B2052808DA20007B
:10442000FFF7D6FF69462A00D2B288546D1CF2E726
:10443000A168E068FFF7C5FE69469DF800004A786C
:1044400052FA80F08A788018CA7880180A799042E7
:1044500001D0022011E09DF8000060604FF47A72F4
:104460006368487802FB03036360887820602368F0
:10447000C87802FB03022260002076BD10B504005C
:10448000002C0AD0FFF742FB002803D12000FFF7E1
:1044900029FB02E0200000F00DF810BD10B504006B
:1044A000002C06D0FFF70EFB2000FFF729FBFFF7DB
:1044B0000BFB10BD10B50400002C0CD02000441ED6
:1044C000002808D04FF47A70FFF7E8FF0248006830
:1044D000FEF723F8F2E710BD9C0000200E490A68A1
:1044E00002430A6070470C490A6882430A607047B9
:1044F00038B5040001250948844208D14FF48050A2
:10450000FFF7ECFF4FF48050FFF7EDFF01E00020D4
:1045100005002800C0B232BD103802400030024011
:1045200000002110422063308440A550C660E7702F
:10453000088129914AA16BB18CC1ADD1CEE1EFF1D7
:104540003112100273325222B5529442F772D6627F
:10455000399318837BB35AA3BDD39CC3FFF3DEE327
:104560006224433420040114E664C774A4448554CF
:104570006AA54BB528850995EEE5CFF5ACC58DD577
:104580005336722611163006D776F6669556B4461F
:104590005BB77AA719973887DFF7FEE79DD7BCC7C7
:1045A000C448E5588668A77840086118022823386F
:1045B000CCC9EDD98EE9AFF9488969990AA92BB917
:1045C000F55AD44AB77A966A711A500A333A122ABF
:1045D000FDDBDCCBBFFB9EEB799B588B3BBB1AAB67
:1045E000A66C877CE44CC55C222C033C600C411C0F
:1045F000AEED8FFDECCDCDDD2AAD0BBD688D499DB7
:10460000977EB66ED55EF44E133E322E511E700E5E
:104610009FFFBEEFDDDFFCCF1BBF3AAF599F788F06
:104620008891A981CAB1EBA10CD12DC14EF16FE1E6
:104630008010A100C230E32004502540467067601E
:10464000B9839893FBA3DAB33DC31CD37FE35EF336
:10465000B1029012F322D23235421452776256726E
:10466000EAB5CBA5A89589856EF54FE52CD50DC586
:10467000E234C324A01481046674476424540544BE
:10468000DBA7FAB79987B8975FE77EF71DC73CD7D6
:10469000D326F2369106B01657667676154634560E
:1046A0004CD96DC90EF92FE9C899E9898AB9ABA926
:1046B0004458654806782768C018E1088238A3285E
:1046C0007DCB5CDB3FEB1EFBF98BD89BBBAB9ABB76
:1046D000754A545A376A167AF10AD01AB32A923AAE
:1046E0002EFD0FED6CDD4DCDAABD8BADE89DC98DC6
:1046F000267C076C645C454CA23C832CE01CC10CFE
:104700001FEF3EFF5DCF7CDF9BAFBABFD98FF89F15
:10471000176E367E554E745E932EB23ED10EF01E4D
:104720000068400910F0010070477FF0200101602F
:104730007047C068400910F0010070477047FEE7FD
:10474000FEE7FEE7FEE770477047704780B5FFF76A
:10475000D3F901BD10B5104C2068C069FFF7E0FF28
:10476000002818D02068C069FFF7E3FF002812D0A6
:1047700020680078002808D12068FFF705FA0100BA
:10478000C9B22068FFF706FA02E02068FFF7FCF9DB
:104790000248FFF7CAFF10BDA8000020001001402A
:1047A0000F48016851F4700101600E49086850F02B
:1047B0000100086000200C4A10600A680B480240A3
:1047C0000A600B480B4A1060086830F480200860CB
:1047D0000020094908605FF00060084908607047E0
:1047E00088ED00E00038024008380240FFFFF6FE86
:1047F00010300024043802400C38024008ED00E07C
:104800004A3A5C53544D33325F4D43555C53544DDB
:104810003332463430375C53544D333246343037BC
:10482000787850726F6A6563745C4170706C69630C
:104830006174696F6E5C4150505C6D61696E2E638E
:104840000000000030B450F8041B79B102684368DE
:1048500002440830DC0744BFA9F10104E31852F810
:10486000045B43F8045B091FF9D1ECE730BC7047E7
:1048700010B5074979441831064C7C44163404E0DD
:104880000A68081D114488470146A142F8D110BDAD
:104890002C0000004C0000004EF68851CEF20001C2
:1048A000086840F470000860BFF34F8FBFF36F8F4C
:1048B0004FF00070E1EE100A7047000047C8FFFF9C
:1048C00000050000B40000200000000079FFFFFF99
:1048D000B4000000EC010000000000200000000017
:1048E00000F00DF8002801D0FFF7C2FFAFF3008001
:1048F0000020AFF30080FFF79DF800F002F80120E0
:10490000704700F001B8000007463846FDF7CCFAC2
:10491000FBE700003D3E3EB4AEBFDA31B5C4B3F5AF
:10492000CABCBBAF3C3C3D0D0A0000000348016817
:10493000034A127889180160704700BFA80500205B
:10494000B00000200000000000000000010203048D
:10495000060708090148804701480047A1470008A9
:1049600065490008AFF30080FFF796FFFFF7B8FF37
:10497000000000000102030400002E004300FFF7C6
:10498000FEBFFFF7FEBFFFF7FEBFFFF7FEBFFFF75B
:10499000FEBFFFF7FEBFFFF7FEBFFFF7FEBFFFF74B
:1049A000FEBFFFF7FEBFFFF7FEBFFFF7FEBFFFF73B
:1049B000FEBFFFF7FEBFFFF7FEBFFFF7FEBFFFF72B
:1049C000FEBFFFF7FEBFFFF7FEBFFFF7FEBFFFF71B
:1049D000FEBFFFF7FEBFFFF7FEBFFFF7FEBFFFF70B
:1049E000FEBFFFF7FEBFFFF7FEBFFFF7FEBFFFF7FB
:1049F000FEBFFFF7FEBFFFF7FEBFFFF7FEBFFFF7EB
:104A0000FEBFFFF7FEBFFFF7FEBFFFF7FEBFFFF7DA
:104A1000FEBFFFF7FEBFFFF7FEBFFFF7FEBFFFF7CA
:104A2000FEBFFFF7FEBFFFF7FEBFFFF7FEBFFFF7BA
:104A3000FEBFFFF7FEBFFFF7FEBFFFF7FEBFFFF7AA
:104A4000FEBFFFF7FEBFFFF7FEBFFFF7FEBFFFF79A
:104A5000FEBFFFF7FEBFFFF7FEBFFFF7FEBFFFF78A
:104A6000FEBFFFF7FEBFFFF7FEBFFFF7FEBFFFF77A
:104A7000FEBFFFF7FEBFFFF7FEBFFFF7FEBFFFF76A
:104A8000FEBFFFF7FEBFFFF7FEBFFFF7FEBFFFF75A
:104A9000FEBFFFF7FEBFFFF7FEBFFFF7FEBFFFF74A
:104AA000FEBFFFF7FEBFFFF7FEBFFFF7FEBFFFF73A
:104AB000FEBFFFF7FEBFFFF7FEBFFFF7FEBF000020
:104AC0007C490008010000004800002000000000B0
:104AD00000000000000000000000000000000000D6
:104AE00000000000000000000000000000000000C6
:104AF00000000000DD11000800000000CB110008DC
:104B00000100000000000000784900087849000812
:104B10007849000878490008784900087849000871
:104B200078490008FFFFFFFFFFFFFFFF7A490008F9
:104B30007849000878490008FFFFFFFFFFFF0000E9
:104B4000000102030405060708090A0B0C0D0E0FED
:104B500088050020700500200030004098000020EB
:104B60000024F40054050020B404002008050020AF
:044B70000100000040
:040000050800496541
:00000001FF
