:020000040800F2
:1000000000200010C1420008C13F0008C33F0008A3
:10001000C53F0008C73F0008C93F000800000000B6
:10002000000000000000000000000000CB3F0008BE
:10003000CD3F000800000000CF3F0008D13F00087E
:10004000EB420008EF420008F3420008F7420008C4
:10005000FB420008FF420008034300080743000872
:100060000B4300080F430008134300081743000820
:100070001B4300081F4300082343000827430008D0
:100080002B4300082F430008334300083743000880
:100090003B4300083F430008434300084743000830
:1000A0004B4300084F4300085343000857430008E0
:1000B0005B4300085F430008634300086743000890
:1000C0006B4300086F430008734300087743000840
:1000D0007B430008D93F00087F43000883430008A2
:1000E000874300088B4300088F43000893430008B0
:1000F000974300089B4300089F430008A343000860
:10010000A7430008AB430008AF430008B34300080F
:10011000B7430008BB430008BF430008C3430008BF
:10012000C7430008CB430008CF430008D34300086F
:10013000D7430008DB430008DF430008E34300081F
:10014000E7430008EB430008EF430008F3430008CF
:10015000F7430008FB430008FF430008034400087E
:10016000074400080B4400080F440008134400082B
:10017000174400081B4400081F440008000000004A
:1001800077400008234400082DE9F04F0FF2A41C2B
:10019000A1B0DCE90089CDE900892A9DDFF8109C37
:1001A000049100248DF843500D944FF0FF3882469F
:1001B00016461F460FE0B3462C461BF8011B049859
:1001C000D0470028049000F0A2800D98401C641EC7
:1001D0000D90F2D176193078252808D1002100221F
:1001E0000791089209910A920B910C920DE06A46D0
:1001F0004146304600F0D4FF050001D10D98A1E042
:10020000D9D50125E6E741F0010116F8010F2028B4
:10021000F9D023280CD02B2804D02D2805D0302845
:1002200009D076E041F00201EFE741F00401ECE78C
:1002300041F00801E9E741F01001E6E70F9209E01B
:100240000F98484505DA00EB800402EB4402303A8F
:100250000F92761C3278A2F130000A28F0D3307861
:100260002E2818BFCDF8388022D116F8010F2A2881
:1002700007D138683860761C50F8042B38600E922D
:1002800016E02D280CBF761C002000220E920AE0FA
:1002900040B90E9A4A4505DA02EB820403EB4403A7
:1002A000303B0E93761C3378A3F130020A2AEFD349
:1002B000ADF8401021A0317800F07CFF08B116F8AD
:1002C000010B8DF842009DF84200682804D1307877
:1002D00068280AD1622105E06C2804BF30786C28B8
:1002E00003D171218DF84210761C12A806903A466F
:1002F00016F8013B02A9504600F064F838B912AA7A
:1003000002A9504600F0CAF900287FF564AF4046C4
:1003100018E02A2892D13A683A6052F8040B3A6001
:1003200000280F9003D540420F9041F00401761C45
:1003300095E700000000000000000000686A6C748F
:100340007A4C000021B0BDE8F08F622820D06828E8
:1003500011D06A2803D06C2827D0712825D10868CD
:10036000C01D20F007000860D0E9002308300860B5
:10037000194610467047002A0A680A60106803D0C0
:10038000121D0A6000B217E0121D0A6080B217E069
:10039000002A0A680A60106803D0121D0A6040B281
:1003A0000AE0121D0A60C0B20AE0002A0A680A6068
:1003B000106803D0121D0A60C1177047121D0A6031
:1003C000002170477CB50D4611461C462E69B4F1DC
:1003D000250200F051811C3A00F08680121F022A8B
:1003E00040F282800E3A00F00B81521F5AD0093A37
:1003F0007AD0921E16D0521E35D0521E022A73D9C0
:10040000121F30D0521F00F09A80521E4AD0521E46
:1004100000F0E480D21E00F00181921E42D0D21E74
:1004200040D02FE195F83A406C2C09D06869421C05
:100430006A610A680A6052F8043B0A6033542BE18F
:100440000A680A6052F8043B0A6000930022019295
:100450004FF0FF332B636A46294600F09AF90028D3
:1004600040F11A8105E195F83A000122FFF76DFF8E
:10047000C5E900010023994204DA6869411C6961F9
:100480002D220DE0288F810704D56869411C696120
:100490002B2205E0C00722D56869411C6961202232
:1004A00032541CE095F83A000022FFF74EFFC5E9F0
:1004B000000195F83800010711D5D5E90023002087
:1004C000834208BF82420AD044F02000782806D137
:1004D000686930213154401C421C6A613454214601
:1004E00068693044E86087E00868C01D20F00700B4
:1004F0000860D0E9002308300860C5E90023D5E989
:100500000001C80F04D06869411C69612D220DE00B
:10051000288F810704D56869411C69612B2205E099
:10052000C00704D56869411C69612022325468699A
:100530003044E8602146284600F03AFAACE005F184
:100540003A02507820B14FF0FF340FF6343074E0A7
:100550001078622808D0682824D06A2812D06C2825
:100560002ED071280ED02BE00A680A6052F8040BD6
:100570000A6020B94FF0FF340FF61C305DE0E96AE5
:10058000017089E00A680A6052F8040B0A6020B919
:100590004FF0FF340FF600304FE0EA6AD317C0E99E
:1005A000002379E00A680A6052F8040B0A6020B957
:1005B0004FF0FF340FF6E0203FE0E96A01806BE086
:1005C0000A680A6052F8040B0A6020B94FF0FF3441
:1005D0000FF6C42031E0E96A01605DE00A680A6054
:1005E00052F8040B0A60002120F0000221F0FF33D2
:1005F000C5E90023EE607821284600F02DF94BE094
:100600006C2285F83A200B680B6053F8042B0B60C2
:1006100052BB4FF0FF340FF6B4200EE095F83A20AD
:100620006C2AF0D00868086050F8044B0860EC6051
:100630003CB94FF0FF340FF6782000F0D5FD201ABA
:1006400076BD2E6B002E04D5204600F0EDFD04464D
:1006500008E032460021204600F00EFE002814BFBC
:10066000041B3446AC6117E0294600F092F80028DC
:1006700012D54FF0FF3076BD6869411C69612522B3
:10068000325409E06969481C6861252272542100CE
:1006900002D0431C6B613454002076BD2DE9F0413B
:1006A0000E4605469046726B7069316AB46A121A3A
:1006B000B069521A716A121AF069521A121A96F82F
:1006C0003800141B41070DD4002C0BDD2746B06801
:1006D0002021A8470028B06057D0F06A401C7F1E38
:1006E000F062F4D1736942463146284600F0B0FC0E
:1006F00000284AD1376A002F0ADDB0683021A847A8
:100700000028B06041D0F06A401C7F1EF062F4D136
:10071000B369F2683146284600F09AFCA8BB776AB4
:10072000002F09DDB0683021A847B06068B3F06AD7
:10073000401C7F1EF062F5D1F068B169F369421880
:100740003146284600F084FCF8B9B76A002F09DD6D
:10075000B0683021A847B060B8B1F06A401C7F1E75
:10076000F062F5D196F8380041070BD5002C09DD71
:10077000B0682021A847B06038B1F06A401C641E00
:10078000F062F5D10020BDE8F0814FF0FF30BDE808
:10079000F0812DE9F8470D46A3B02F6B002F0646D8
:1007A000904648BF6FF000470FF63C1400F090FDF4
:1007B000D4E90023696B4018CDE90123812828BFC3
:1007C0004FF0FF3042D20024002F33DDD8F8001064
:1007D00001AA684600F0E6FC8146B9F1000F38D462
:1007E000D8F8000010B9B9F1010932D44F4521DB26
:1007F0006869484481280AD30021696303AA29460D
:100800003046FFF74BFF040014D40020686103ABAF
:10081000D5F814A04A46694603EB0A0000F05EFDD5
:10082000CA44C5F814A058F8040B002818BFA7EB59
:100830000907C9D14CB903AA29463046FFF72EFF54
:10084000044614B9002068616863204624B0BDE8FE
:10085000F0874FF0FF34F8E72DE9FC4707468C4658
:100860003E69BCF16F0F08BF082405D04CF0200092
:10087000782814BF0A2410243C25D7E90023BCF1B2
:10088000640F18BFBCF1690F9046994606D100214C
:100890008B4203DAD8F1000869EB49094FF0000AEE
:1008A000D14508BFD0451FD1386BE8B9082C4BD1D2
:1008B00097F83800010747D530203B2586F83B00E4
:1008C00042E000280ED597F8380000F014001028F8
:1008D00008D17B6B7969386A5B1A1B1A9A1A002A4D
:1008E000C8BF3A62BDE8F3878DF800C0404649466C
:1008F0002246E31700F046FD3032D0B26D1E3A2892
:10090000019504DB9DF80000A0F151018A18725591
:10091000404649462246E31700F034FD89468046AA
:10092000D14508BFD04503D0F86871198842DDD39E
:10093000082C09D197F83800010705D5705D3028DB
:1009400002D06D1E30207055C5F13C02BA6171199C
:10095000F960386B8242B4DA821A3A624FF6EF706D
:10096000398F01403987BDE8F3872DE9D04306462A
:100970000F4614464FF00008DFF8389412E0E00705
:1009800007D542464B463046394600F013FE064630
:100990000F464046494642464B4600F00BFE641067
:1009A00080468946002CEAD130463946BDE8D083DE
:1009B0002DE9F34F054641F020048DB0D5E90089BB
:1009C000612C02AE09D0286B002848BF062003D452
:1009D00008BF672C01D101202863D5E90023580006
:1009E0004015401C0ED119030CD00320A8619DF8BE
:1009F000381061391A2902D20FF2F46111E00FF2B6
:100A0000F4610EE059004915491C0FD118030DD1AE
:100A10000320A8619DF8381061391A2914D30FF208
:100A2000DC61E868032200F059FCD3E1194621F0AB
:100A30000043B3F5801F10460DD20027BB4208BF0C
:100A4000BA42019703D111E00FF2AC61E9E701AAC4
:100A500000F082FE0AE0DFF8607307EB1352DFF864
:100A60005C3301921940DFF858331943C5E900019E
:100A7000612C0ED1E86830210170821CEA609DF87B
:100A8000381061290CBF7821582141706869801C99
:100A90006861D5E900AB2BF0004300202AF000028A
:100AA000834204BF8242002300F05B81612C40F04E
:100AB000AA80286B002847BF21210091401C00908C
:100AC000009F7F1C404649460022002300F07CFE28
:100AD000D94601998DF8082038BF89F00049091FCF
:100AE000002FD04601910DF1090040F34981B3492F
:100AF000DFF8D0B20C91064640464946002200235A
:100B000000F07AFE80F03B814800400D00F11C02AD
:100B100011D0002A0FDD40F2FF70824205DB09F0A0
:100B2000004040EA0B01002013E00C98014041EA2C
:100B3000025140460DE029F00043002028F0000259
:100B4000834208BF82420FBF40461C22404600F04D
:100B50006BFE8046894600F005FFFF1F002F04460C
:100B600009DD00F01DFF02460B464046494600F0F5
:100B700029FF80468946F01D072104E004F00F029A
:100B800000F8012D2411002C01DD491EF6D5491E67
:100B90005CBF002200F8012DF9D5ECE000201946D9
:100BA00002AA0A4400E05B1E12F80149491E844271
:100BB000F9D00F2804D10DF10900425C521C4254B7
:100BC000002904D50198001D02AE5B1C0190591E3E
:100BD00012D49DF838007218A0F13A07147804F185
:100BE00030085FFA88F43A2CA8BFB844491E02F8CE
:100BF0000189F3D58DF83800286B002840F1B080CA
:100C0000591E2963ACE0404649460022002300F00B
:100C1000DBFD019938BF89F0004947F29750414305
:100C2000694A91FBF2F20192D2F1070204DD4046DB
:100C30004946FFF79AFE0AE0524200206349FFF757
:100C400094FE02460B464046494600F02DFF804682
:100C5000662C286BDFF878B106BF019F0A3706279C
:100C60003F18142FC8BF142730208DF8080089467C
:100C70000DF1090000E03046002F34DD0646404605
:100C8000494601F035F801460A4606F108030420FA
:100C90000A26B2FBF6F606EB860EA2EB4E023032C7
:100CA00003F8012C0A22B6FBF2F202EB820EA6EB4D
:100CB0004E063036401E03F8026DE9D1083F002F82
:100CC00003F10806D7DD084601F026F802460B4678
:100CD0004046494600F076FE00225B4600F06AFC82
:100CE00080468946CBE70DF10901401A0DF109064E
:100CF00004E00199491E401E0191761C317830298B
:100D0000F7D0662C02D10199491C03E0652C0CBF79
:100D1000012100212B6BCB189842B8BF431E002B3A
:100D20001ED4834204DAF05C3528A8BF392000DAEB
:100D300030201946721E02EB010800E05B1E18F815
:100D40000199491E8145F9D0392802D1705C401CB7
:100D50007054002904D50198401C16465B1C019074
:100D6000019800B200901BB29DF838103246284618
:100D700000F034F82EE0C61D002F3FF7BDAE304620
:100D80000DF10901401A009903468842C8BF0B467D
:100D9000002B0DF109063FF52FAF8342BFF6FEAEE3
:100DA0000DF10900C15C07297FF7F8AE0F20F6E6C8
:100DB000CBCCCC0C0000244002FCFFFFFFFF0F80D7
:100DC0000000E03F0000F07FA08601000000F03F3F
:100DD00084D797410FB0BDE8F08F00002DE9F847A8
:100DE00083B006468A461746984600F0DDF9B8F10A
:100DF000000F406A356B90F8009002DC4FF001085C
:100E0000BFA74AF02000BDF93040662808BF641C27
:100E100015D0672840F0848014F1040FC0F286805A
:100E2000AC4280F2838096F83800641C010702D43B
:100E3000A845B8BF454620B22D1A48BF00250FFA75
:100E400084FAF068B169BAF1000F25DC4A1C30233E
:100E50004354002D03DC96F83800010703D5F068F1
:100E600000F80290521C15EB0A0FB8BF6C4220B27A
:100E7000441941424445B8BFA046B26171620FFABD
:100E800088F5F561F068B3692A463946184400F0E0
:100E900025FA641BB462C4E022B29045084417DA14
:100EA0004246394600F01AFAB0694044B061AAEBF4
:100EB0000801002D716203DC96F838100A0705D589
:100EC000F16801F80090F069401CF061B562A8E09B
:100ED000394600F003FAB069002D5044A8EB04082D
:100EE00003DC96F838100A0703D5F16801F8009082
:100EF000401CB0610FFA88F08542F368B069B8BF52
:100F0000A8460FFA88F207EB0A01184400F0E6F948
:100F1000B1690FFA88F00144B161281A706280E06B
:100F2000BAF1610F14D14FF0700A16E0A84504DA47
:100F300096F838100A0758BF45466D1E48BF002571
:100F4000BAF1670F14BF4FF0450A4FF0650A04E08D
:100F5000BAF1410F08BF4FF0500AB169F368481C5D
:100F6000B061002D17F8012B5A5403DC96F83810A5
:100F70000A071BD5F168431CB36101F80090002DEE
:100F800014DDA8F101080FFA88F039468542F768A8
:100F9000B8BFA8460FFA88F2F81800F09FF9B069B8
:100FA0000FFA88F108446D1AB0617562F068B16992
:100FB0000844002C80F800A003D42B224270811C2E
:100FC00003E02D2141706442811C00206A460AE042
:100FD00023460A2493FBF4F404EB8405A3EB4503B6
:100FE00002F8013B401C24B2002CF1DC012806DC95
:100FF0004AF02002652A04BF302201F8012B48B9CB
:10100000302001F8010B07E0401E1DF8003030339E
:1010100001F8013B0028F7DCF268B0691044091AB6
:10102000F16196F8380000F0140010280DD17269B3
:10103000B169706A8A18F1698218B06A8A188218D0
:10104000706B8242BCBF821A326204B0BDE8F08786
:10105000F8B505460E4617461C46002074B117F831
:10106000011BB068A847B06030B1F06A401CF06264
:101070000020641EF3D1F2BD4FF0FF30F2BD00003E
:101080007072696E74665F733A20256E20646973AE
:10109000616C6C6F776564007072696E74663A207B
:1010A00062616420256E20617267756D656E7400E3
:1010B0007072696E74665F733A2062616420257392
:1010C00020617267756D656E740000007072696EE4
:1010D00074665F733A2062616420256C73206172CC
:1010E00067756D656E740000000000000000000070
:1010F0006E616E004E414E00696E6600494E4600BC
:10110000300030B4002513E050F8042BD30744BF5F
:10111000A9F101039A18091F042942F8045BFAD2C5
:1011200013468C0744BF15809B1CC90748BF1D7020
:1011300050F8041B0029E7D130BC70471B487047AA
:1011400070B45368D418042B09DA41B1057804F857
:10115000015B10F8016B16B15B1C491EF3E753608D
:1011600070BC704738B514461D4661B1FFF7E8FF03
:1011700061686A6B204690476FF00102811A02D0C5
:10118000491E01D001E003E005E00021616032BDAD
:101190006FF0010032BD4FF0FF3032BDDA6B104707
:1011A000024BDFE7014BF9E70148704700000020E0
:1011B000480000200278C9B28A421AB11CBF10F858
:1011C000012FF9E718BF00207047B1F5807F02D3E7
:1011D0004FF0FF3070470170012070470078401ECB
:1011E0008041C043C00F704780B500B906A00549D3
:1011F0000B681BB122220021984701E000F099FD05
:10120000222002BD34050020636F6E737472616921
:101210006E742068616E646C65723A20626164204D
:101220006D6573736167650000F10103810704D088
:1012300010F8011B820781B1FAD10268A2F10131D5
:10124000914311F0803104BF50F8042FF6E709BA3A
:10125000B1FA81F100EBD100401CC01A70478268DE
:10126000521C8260426832B10268531C03601170E4
:101270004168491E41607047C9B2830706D0521EBB
:1012800022D310F8013B9942F7D11FE0083A13D35B
:1012900002F1040241EA012141EA014150F8043B14
:1012A000121F21BF4B40A3F1013C2CEA030C1CF0A0
:1012B000803FF3D0C9B2001F083210F8013B521E24
:1012C00028BF91EA030FF8D818BF0120401E7047CD
:1012D00080B5FFF733FF006C02BD000062B38B07DF
:1012E00008D0521E11F8013B00F8013B00F02480A9
:1012F0008B07F6D1830740F0208000BF103A07D358
:1013000030B4B1E83810103AA0E83810F9D230BC47
:10131000530724BFB1E80810A0E8081044BF51F8F3
:10132000043B40F8043BD20724BF31F8022B20F8DD
:10133000022B44BF0B7803707047121F17D35B005A
:1013400009D151F8043B20F8023B1B0C121F20F876
:10135000023BF6D20BE051F8043B00F8013B1B0ABC
:1013600020F8023B1B0C121F00F8013BF3D238BFE0
:10137000121D521E24BF11F8013B00F8013BF8D8A2
:1013800070470000BBBBE1B1B2F5803F80F07E80CA
:10139000022A1ED98C46B1FBF2F102FB11C31B04D9
:1013A00043EA1043B3FBF2FC02FB1C3380B240EA79
:1013B0000343B3FBF2F002FB103240EA0C4000237F
:1013C0007047022A05D98446B0FBF2F002FB10C236
:1013D00070474AB105D100F0010249085FEA3000C8
:1013E000704700220023704700F0A6BC0B000200EB
:1013F000002100207047904271EB030CF6D3B3F547
:10140000803F2FD2F0B5B3FA83F7B1FA81F4A7F198
:101410000F0E3D1B5340CEF1200602FA0EF2F341AF
:101420005340B5F10F0746D80F3C2C444140C4F15E
:101430002006A040F1414140B1FBF3F603FB161139
:10144000A2FB0645001BA94102D2761E8018594115
:1014500080EA010221FA0EF362FA0EF200215A40EC
:101460003046F0BD30B4B1FBF3FC03FB1C11A2FB12
:101470000C45001BA94103D2ACF1010C8018594165
:1014800030BC02460B46604600217047B2F1807FB7
:1014900065D3F0B5B2FA82F7B1FA81F4C7F10F065D
:1014A0003D1B22FA06F307F1110EF24120355A4096
:1014B000B5F10F07B8D94140C4F12006A040F14171
:1014C0004140B1FBF3FC03FB1C11A2FB0C45001BCC
:1014D000A94103D2BCF1010C801859410F2F12D33E
:1014E0000F3FC90341EA5041B1FBF3F603FB16116C
:1014F000A2FB0645D4EBC030A94102D2761E80186B
:10150000594146EACC3C07B34140C7F12006B840F8
:10151000F1414140B1FBF3F603FB1611A2FB064576
:10152000001BA94102D2761E8018594180EA0102AF
:1015300021FA0EF3C7F1200462FA0EF20CFA07F05A
:101540005A402CFA04F13043F0BD80EA010221FA3E
:101550000EF3002162FA0EF260465A40F0BD8C464E
:10156000B1FBF2F102FB11C31B0243EA1063B3FBB0
:10157000F2FC02FB1C331B024CEA002043EA10631E
:10158000B3FBF2FC02FB1C331B024CEA002043EAD3
:101590001063B3FBF2FC02FB1C331B024CEA00207D
:1015A00043EA1063B3FBF2FC02FB1C324CEA00205E
:1015B00000237047B0B581EA030C0CF0004C40F2F8
:1015C000FF7515EA11541DBF15EA1357AC42AF421F
:1015D00039E0E41923EA455343F48013C90241F08A
:1015E000004141EA505EC7021100A7FB0202002839
:1015F0004FF00000EEFB01204FF00001E3FB07215C
:1016000018BF42F00102401800214941E3FB0E01DE
:10161000A4F580640F0302D252004041494154F1C5
:1016200001046CDD470872F1004250F1000051EBFB
:101630000451A1F580115CBF41EA0C01B0BD4CEA38
:1016400005510020B0BD05EA1357AC4214BFAF42AC
:1016500041E050EA410E1CBF52EA430E02E06146EF
:101660000020B0BD24423C441BD15FEA070EF6D0F7
:10167000090302BF01460020AEF1140EB1FA81F752
:10168000AEEB070401FA07FE0C37C7F1200100FAA0
:1016900007F7C8404EEA000E23EA455343F480138F
:1016A000A2E733F00043B3FA83F704BFB2FA82FE35
:1016B00077440B3FE41BB7F1200E2FBF02FA0EF365
:1016C000BB40C7F1200E22FA0EFE38BF43EA0E03DC
:1016D000BA40641C82E750EA410E14BF52EA430E3E
:1016E0006FF000014FF4001717EB430F8ABF194644
:1016F00017EB410FB5E74CEA05510020B0BDD4F11E
:101700000104B4F120070FDAC4F12007520828BF02
:1017100042F0010210FA07F501FA07F7E1BF2A4388
:10172000E0403843E1400FE0352C98DCC7F120045D
:1017300052EA400220FA07F218BF42F0010231FAE1
:1017400007F0A1400A43002172F1004250F100006D
:1017500051EB0C01B0BD000010B5144600F002F8CA
:10176000226010BDC1F30A5343B14A0012F5001FB5
:1017700028D2A3F2FE32A1EB0251704750EA410C8D
:1017800020D001F0004C31EA0C01B1FA81F204BF23
:10179000B0FA80F3D2180B3AB2F120032CBF00FA52
:1017A00003F1914041EA0C013EBFC2F1200C20FA46
:1017B0000CF319439040524240F2FD33D21A01EB30
:1017C00003517047002270474FF4001C1CEB410F7F
:1017D00094BF1CEB430F09E041EA030C50EA4C0CA8
:1017E00052EA0C0C03D2994208BF9042704714BFD2
:1017F0008B428242704700004FF4001C1CEB410FEB
:1018000094BF1CEB430F09E041EA030C50EA4C0C77
:1018100052EA0C0C03D28B4208BF8242704714BFBD
:101820009942904270470000124254D440F2FF7C2B
:101830001CEA11530FD0634531D09B1863453CBF60
:1018400001EB0251704701F0004141EA0C510020C8
:10185000AFF30080704750EA410320D001F0004C04
:1018600091EA0C011CD0B1FA81F30B3B9A420DD9DD
:10187000D21A994051EA0C01C3F1200C20FA0CFC59
:1018800061449840531C40F2FF7CD7E7914041EA05
:101890000C01C2F1200C20FA0CF319439040704760
:1018A000B0FA80F31533202BE0D3202AEED3203A70
:1018B000203B9A4209D9D21A00FA03F141EA0C01FD
:1018C0000020531C40F2FF7CB8E700FA02F141EA25
:1018D0000C0100207047524240F2FF7C1CEA115379
:1018E0000DD06345DBD0B2EB030C3CBFA1EB025142
:1018F00070470CF1010221EA035141F4801150EAD2
:10190000410CCCD001F0004C352A27DC30B481EA00
:101910000C01B2F1200309DAC2F12003044601FAF6
:1019200003F5D0402843D1409C400CE0C3F1200295
:10193000450020FA03F418BF44F0010421FA03F033
:1019400091400C43002174F1004550F1000051EB2F
:101950000C01244230BC7FF47BAF7047614600200D
:1019600076E70000C1F30A5340F2FE329B1A14DD01
:10197000D3F120034FEAE17208DDC90241EA505178
:1019800041F00040D84080185040704703F2E130E9
:1019900010B1D24382F00040704700207047000031
:1019A000C11768B14840401AB0FA80F29040D21C8A
:1019B000C907C2F5846241EA025202EBD021400518
:1019C0007047000070B44FF0004591EA030F40F1FA
:1019D000B5816B40841A71EB030603D2001BB14141
:1019E000121973414FF4001C1CEB410F34BF7CEB08
:1019F000430442E00C0DA4EB1356352E4FDC45EAB0
:101A0000C323DB0A45EAC121C912B6F120050DDD69
:101A100063FA05F6EB4086EA0305124218BF45F06B
:101A20000105C01851F100010CD213E062FA06F56D
:101A3000F2405540F3415A40B340F3405A408018B9
:101A4000594107D349085FEA30005FEA350528BFEE
:101A500045F0010501F58011420875F1004250F191
:101A6000000041EB04514E0016F5001F70BC38BF5A
:101A700070470020090D090570471CEB410F10D27B
:101A800052EA43060BD0BCEB410F05D80C0DAB431B
:101A9000661E342EB6DD02E0AB438018594170BC9F
:101AA000704770BC70470000F0B540F2FF7581EAE6
:101AB000030C0CF0004C15EA11541DBF15EA135726
:101AC000AC42AF42E5E0BC41C1F31301C3F31303E1
:101AD000801A994143F4801304D2641E40004941A6
:101AE00080185941C90241EA5051B1FBF3F603FB9A
:101AF0001611A2FB0675D7EBC020A94102D2761EB3
:101B000080185941C90241EA5051B1FBF3FE03FB71
:101B10001E11A2FB0E75D7EBC020A94103D2AEF176
:101B2000010E80185941890241EA9051760546EA32
:101B30008E2EB1FBF3F603FB1611A2FB0675D7EB55
:101B40008020A94102D2761E80185941C90241EA7B
:101B500050514EEA060EB1FBF3F603FB1611A2FB41
:101B60000675D7EBC020A94102D2761E80185941D4
:101B7000C90241EA5051B1FBF3F703FB1711A2FB75
:101B80000735D3EBC020A94167F100070CBF004225
:101B900047F0010766F3D5274FEA1E31B80814F560
:101BA000806412DDBD0775F1004250EB0E5051EB21
:101BB000045111F5801F5CBF41EA0C01F0BD4CF0EF
:101BC0007F6141F0E0410020F0BDBD076D0840EAB3
:101BD0000E5041F48011D4F10104B4F120060ADA68
:101BE000C4F120060200E04001FA06F3E140184388
:101BF000B24015430EE0342C13DCC6F1200445EA54
:101C000040056D0820FA06F2154321FA06F0A140BE
:101C10000D43002175F1004250F1000051EB0C0121
:101C2000F0BD00205FEA0C01F0BDCFB992185B4116
:101C3000B3FA83F704BFB2FA82F6BF190B3FB7F1CC
:101C400020062FBF02FA06F3BB40C7F1200622FA96
:101C500006F638BF3343BA401CB1E419641E33E7BB
:101C60007F4231F00041B1FA81F404BFB0FA80F64E
:101C7000A4190B3CB4F120062FBF00FA06F1A140D5
:101C8000C4F1200620FA06F638BF3143A0403C1BC1
:101C90001AE7AC421ABF05EA1357AF4212E050EA06
:101CA00041061CBF52EA4306BFE750EA41073046EF
:101CB00061461CBF41EA0551F0BD52EA430C08BF22
:101CC000C143F0BD00204FF4001616EB410F98BF42
:101CD00016EB430F08BF16EB410F24BFC14305E0CD
:101CE00016EB430F0CBF61464CEA0551F0BD0000F6
:101CF000400D491840EA81200CD2490DA1F58061C0
:101D0000491C40F0004005DBD1F11F0154BFC84021
:101D1000C017704700207047014648B1B0FA80F103
:101D20008840C91CC1F58461090501EBD02140053B
:101D30007047012000F0B8B870470000841A71EBBA
:101D4000030604D26E40001BB141121973414FF4D7
:101D5000001C1CEB410F34BF7CEB430683E00C0DF1
:101D6000A4EB1356362E00F37C80012E45EAC323E4
:101D700041DC43EA525312BFD20292025B082405AF
:101D800045EAC12141EA5051D2EBC020994125D406
:101D900007D1B0FA80F610FA06F162D000202036A2
:101DA00008E0B1FA81F6B140C6F1200220FA02F251
:101DB0001143B0404FEAF474B4EB465434F00106DA
:101DC0004FEA74040AD8D6F50016760D04F00044E4
:101DD000F04061FA06F25040F1404840C00A40EA43
:101DE000415021F0004128BF5FEA500550F100004A
:101DF00044EBD12135E0DB0A45EAC121C90AB6F13D
:101E000020050EDD42EA0242120CC5F1200603FA5B
:101E100006F6EB4042EA06056D42984161F1000189
:101E20000DE062FA06F5F240554063FA06FC82EADC
:101E30000C02F3405A406D42904161EB030111F4F2
:101E4000801F05D1641E620502D06D0040414941EA
:101E500021F48011430875F1004350F1000041EB7B
:101E6000045170BC70471CEB410F15D223F00043A6
:101E700052EA43060BD04FEA4C0CBCEB410F04D89E
:101E80000C0D661E342EB7DDEBE7801A994150EA3F
:101E9000410608BF0021E4E708BF1CEB430F28BF41
:101EA0006FF00001DDE7000080B5AFF30080024A6B
:101EB00011001820ABBEFBE7260002002DE9F34F0E
:101EC00085B0060017009846109CDDF84490129DDE
:101ED000DDF84CA000208DF81000CDF80CA02800F3
:101EE000C0B20290CDF80490200080B2009043462A
:101EF000DBB23A00BDF81810300000F08FFC8346CA
:101F00005846C0B2002808D100F004FF002804D0D1
:101F1000002086F82D00002070775846C0B207B028
:101F2000BDE8F08F38B504000D002900C9B22000CB
:101F300000F0A0FC32BD38B504000D002900C9B284
:101F4000200000F0C8FC32BD38B504000D002900A7
:101F5000C9B2200000F0FEFC32BD38B504000D000F
:101F60002900C9B2200000F010FD32BD10B50400F8
:101F7000200000F01BFD10BD0100002081F82F00A3
:101F80000020088600204886002081F82E000020CE
:101F900048600020704710B50400200000F064FD88
:101FA00010BD10B50400200000F00DFD10BD38B5C7
:101FB00004000D002900200000F01BFD32BD10B50B
:101FC0000400200000F049FD10BD38B504000025D4
:101FD0006068002815D0E068002812D0E168200071
:101FE000FFF7E5FF05002800C0B2002809D02278DD
:101FF000521EDFF8FC15200000F03EFD2000FFF728
:10200000BBFF2800C0B232BD38B504000D00DFF8B8
:10201000E4150D70002C51D0A06900284ED0A06BA3
:1020200000284BD094F82F00002803D002282DD090
:1020300014D341E0208E00280FD160780A789042B6
:102040000BD10878A16B0870012084F82F002000C4
:10205000FFF7A7FF2000FFF7B2FF2FE00878002866
:102060000DD00878E28ED2B2904208D20878A26BE6
:10207000507008786086022084F82F0002E000206B
:1020800084F82F002000FFF78CFF17E0A06B228E52
:10209000104409788170208E401C2086208E618E2D
:1020A000884205D3032084F82F00012084F82E00F5
:1020B0002000FFF776FF01E000206060002032BDC5
:1020C00038B504000D00DFF830150D70002C64D019
:1020D000A069002861D0A06B00285ED094F82F0082
:1020E000002805D0022826D016D303283DD052E080
:1020F000208E00280FD160780A7890420BD10878A2
:10210000A16B0870012084F82F002000FFF749FF21
:102110002000FFF754FF40E00878A26B5070087869
:102120006086608E00026086022084F82F00200006
:10213000FFF737FF31E00878A26B9070608E097866
:1021400050FA81F06086608E002807D0608EE18EA4
:10215000884203D2032084F82F0002E0002084F894
:102160002F002000FFF71DFF17E0A06B228E104408
:102170000978C170208E401C2086208E618E884296
:1021800005D3042084F82F00012084F82E002000BD
:10219000FFF707FF01E000206060002032BD10B5AE
:1021A0000400002020840120A0770020608400210A
:1021B0002000FFF7C9FE002010BD10B50400208CE0
:1021C00000281ED0A06A00281BD0A06A618C415C48
:1021D0002000FFF7C2FE608C401C6084608CE18CA4
:1021E000884201D300206084608C218C88420FD10A
:1021F00000212000FFF796FE01212000FFF79BFE43
:1022000006E000212000FFF78DFE2000FFF7C7FF4A
:10221000002010BD10B5040000212000FFF78BFE48
:102220002000FFF7BCFF002010BD10B40300986A27
:1022300000281ED0188CDC8CA04201D3002018840A
:10224000188C00280DD11000C0B2012809D1D88CFB
:10225000FF2803DA188C801C188402E0188CC01C3C
:102260001884986A1C8C0155188C401C1884002016
:1022700000E0012010BC70472DE9F84304000D0078
:1022800016001F0000205FF000085FF000094846BC
:10229000310080B289B288420FD23A00D2B24846A9
:1022A00080B2295C2000FFF7C0FF80464046C0B2E4
:1022B000002802D119F10109E9E74046C0B2BDE8A2
:1022C000F2832DE9F04104000D0000260027B4F848
:1022D000308000F01FFD002840F0E98094F82D00C8
:1022E000012827D1B8F10108E08EFA280BDAA06B9B
:1022F00080F80180A06B414689B2084480780700CD
:1023000018F102080FE0404680B2000AA16B487045
:10231000A06B80F80280A06B414689B20844C07867
:10232000070018F10308414689B2A06B00F00EFDCA
:102330000600B8E094F82D00022827D1B8F1010872
:10234000E08EFA280BDAA06B80F80180A06B414682
:1023500089B208448078070018F102080FE040466F
:1023600080B2000AA16B4870A06B80F80280A06B5D
:10237000414689B20844C078070018F10308414675
:1023800089B2A06B00F0DAFC06008CE094F82D0016
:10239000032835D1B8F10208E08EFA2812DAA06BD2
:1023A00080F80180A06B414689B208444078A16B57
:1023B000424692B21144897808318840070018F1EA
:1023C000020816E0404680B2000AA16B4870A06B7C
:1023D00080F80280A06B414689B208448078A16BE6
:1023E000424692B21144C97808318840070018F17A
:1023F0000308414689B2A06B00F098FC060052E049
:10240000607F04284FD1B8F10408E08EFA2820DA62
:10241000A06B80F80180A06B414689B2084410F897
:10242000010CA16B424692B2895C08318840A16BD5
:10243000424692B21144497808318840A16B424625
:1024400092B21144897808318840070018F10208D7
:1024500023E0404680B2000AA16B4870A06B80F870
:102460000280A06B414689B2405CA16B424692B2A9
:102470001144497808318840A16B424692B2114418
:10248000897808318840A16B424692B21144C978DC
:1024900008318840070018F10308414689B2A06B53
:1024A00000F03CFC0600BE4209D001200AE0E08EAC
:1024B000FA2802DA18F1020801E018F10308A5F879
:1024C00000800020BDE8F081F8B504000D00A07F79
:1024D000002804D14948006800F045FCF7E70020D7
:1024E000A07700F017FC00285FD10026607F01284C
:1024F0000CD1218CA06A00F029FC07002A00D2B27E
:102500003900C9B22000FFF790FE4EE0607F02283C
:102510000CD1218CA06A00F011FC07002A00D2B275
:102520003900C9B22000FFF780FE3EE0607F03283B
:1025300014D1218CA06A00F0F9FB07002A00D2B266
:102540003900090AC9B22000FFF76FFE2A00D2B293
:102550003900C9B22000FFF768FE26E0607F04283A
:1025600023D1218CA06A00F0D9FB07002A00D2B247
:102570003900090EC9B22000FFF757FE2A00D2B277
:102580003900090CC9B22000FFF74FFE2A00D2B271
:102590003900090AC9B22000FFF747FE2A00D2B26B
:1025A0003900C9B22000FFF740FE2800C0B2012860
:1025B00013D1A078A16A0870E08CFF2804DA208C7F
:1025C000801EA16A487008E0208CC01E0012A16A1B
:1025D0004870208CC01EA16A88700121200000F084
:1025E000B9F901212000FFF79DFC0020F2BD000099
:1025F0000C4200083805002039050020AC000020FE
:10260000DFF8CC060068C0F302207047012210F00A
:102610001F018A40DFF8BC1603005BB25B0941F87A
:102620002320704710B4020052B2002A0AD50A01D2
:10263000DFF8A436040064B214F00F04234403F856
:10264000042C05E00A01DFF89436040064B21A5540
:1026500010BC704770B4030013F00704D4F10700F6
:10266000052801D3042001E0D4F10700251D072D22
:1026700001D2002500E0E51E012616FA00F0401EFA
:102680000140A94016FA05F56D1E2A4011430800C5
:1026900070BC704781B0DFF848160A6802430A60D0
:1026A000096801400091009901B07047DFF83016C9
:1026B0000A6882430A60704781B0DFF828160A680A
:1026C00002430A60096801400091009901B0704717
:1026D000DFF810160A6882430A607047F0B4046895
:1026E00091FAA1F5B5FA85F391FAA1F6B6FA86F753
:1026F0005FF0030CDBB25B001CFA03FC34EA0C0451
:10270000FFB27B0012FA03F31C430460F0BC704775
:10271000C16851F40051C1607047016931F49041C2
:102720000161416931F02A01416170470068800907
:1027300010F0010070470068C00910F001007047F8
:102740007FF0400101607047C16851F02001C16015
:102750007047C16851F04001C1607047C16851F0D5
:102760008001C1607047C16831F04001C1607047AD
:10277000C16831F08001C1607047C068800910F005
:1027800001007047C068C00910F001007047406840
:10279000C0B270470A00D2B2426070470100002008
:1027A000087000204870002088700020C870002049
:1027B0004860002088600020C86000200861002078
:1027C000486100208861002081F82C00002081F8F9
:1027D0002D00002081F82F00002008860020488668
:1027E000002088860020C886002088770020886323
:1027F00000200877002048770020C8770020088450
:1028000000204884002088840020C8840120887724
:10281000002088620020C863002070472DE9F84F2F
:1028200004000F00904699460A9DDDF82CA00C9EEE
:10283000DDF834B0002C1AD02000FFF7AFFF84F889
:102840002D90E786C4F838806677E584C4F828A020
:10285000C4F83CB0DFF8900401688C4205D10068F0
:10286000002802D0200000F0C8F9002000E001207C
:10287000BDE8F28F38B504000D00002C0FD0A06920
:1028800000280CD02800C0B2002803D0A069FFF7B0
:1028900065FF02E0A069FFF76BFF002000E0012068
:1028A00032BD10B50400002C06D0A069002803D06A
:1028B000A069FFF767FF00E0002010BD10B504001D
:1028C000002C06D0A069002803D0A069FFF733FFD1
:1028D00000E0002010BD38B504000D00002C0FD022
:1028E000A06900280CD02800C0B2002803D0A0693D
:1028F000FFF72FFF02E0A069FFF735FF002000E09F
:10290000012032BD10B50400002C06D0A0690028BB
:1029100003D0A069FFF731FF00E0002010BD10B523
:102920000400002C06D0A069002803D0A069FFF79E
:10293000FDFE00E0002010BD10B50400002C07D003
:10294000A069002804D0A069FFF7FAFE002000E08B
:10295000012010BD38B504000D00002C13D0A06973
:10296000002810D02800C0B2012805D10222216918
:102970006069FFF7B3FE04E0002221696069FFF798
:10298000ADFE002000E0012032BD38B504000D008E
:10299000002C09D0A069002806D02900C9B2A0697E
:1029A000FFF7F8FE002000E0012032BD10B5040062
:1029B000002C06D0A069002803D0A069FFF7E7FE2D
:1029C00000E0012010BD10B50400002C0FD0A0695C
:1029D00000280CD0E06B002803D0E06B80476060DB
:1029E00001E0002060606068A060002000E001203D
:1029F00010BD38B504000D00002C15D0A0690028CA
:102A000012D0E06B002804D0E06B8047801CA060EF
:102A100001E00020A060A1686068091A8D4203D21D
:102A20000120E070012000E0002032BD38B5040034
:102A30000D002900C9B22000FFF7A7FF2000FFF713
:102A40006EFF002804D1A948006800F08CF9F5E772
:102A50002000FFF771FF002032BD0100002901D0E6
:102A60000020C870002070470100002902D091F8B2
:102A70002E0000E0002070470CB42DE9F84F040050
:102A80000D002000FFF70DFF002809D02000FFF700
:102A900015FF002804D09548006800F064F9F5E7B8
:102AA0002000FFF72FFF00280FD02000FFF737FF8F
:102AB000002807D0E07F002804D18C48006800F08F
:102AC00052F9F2E72000FFF737FF01212000FFF75E
:102AD00041FF5FF0000A5FF0000B0AAE844F330045
:102AE0002A004FF48061380000F04CF980465FF016
:102AF00000094846414680B289B2884208D2484619
:102B000080B2395C2000FFF791FF19F10109F0E76D
:102B100000212000FFF71EFFBDE8F10F5DF80CFB60
:102B200038B504000D00734884420CD12800C0B2AF
:102B3000002803D01020FFF7BFFD02E01020FFF7B0
:102B4000C7FD002058E06C4884420ED12800C0B276
:102B5000002804D05FF40030FFF79CFD03E05FF431
:102B60000030FFF7A3FD002046E0644884420ED108
:102B70002800C0B2002804D05FF48020FFF78AFD4F
:102B800003E05FF48020FFF791FD002034E05C4813
:102B900084420CD12800C0B2002803D02020FFF7C7
:102BA0008BFD02E02020FFF793FD002024E0554834
:102BB00084420ED12800C0B2002804D05FF4002067
:102BC000FFF768FD03E05FF40020FFF76FFD0020D2
:102BD00012E04D4884420ED12800C0B2002804D033
:102BE0005FF48010FFF756FD03E05FF48010FFF7FD
:102BF0005DFD002000E0012032BD78B58DB00400FD
:102C0000424D0121280000F0DBF80220089003204B
:102C1000099000200A9001200B904FF4C0600790AB
:102C200007200C9007A9280000F067F9314E30000A
:102C300000F062FA01213000FFF772FF5FF4E1302B
:102C400000900020019000200290002003900C20B2
:102C5000049000200590002006906946300000F0A6
:102C600097FA3000FFF759FDFFF7CAFC0022022156
:102C7000FFF7F0FC01002520FFF7D4FC2520FFF72B
:102C8000C5FC3000FFF760FD3000FFF741FD00207C
:102C9000306065614FF400702061A66102202070F1
:102CA000E06B002802D06420E06001E00020E060DA
:102CB000552060705A20A07000212000FFF74AFEC6
:102CC00013492000FFF7D8FE00200EB070BD0000B1
:102CD0000CED00E000E100E018ED00E000E400E0B1
:102CE0004038024044380240B8000020AC000020C8
:102CF000C000002000100140004400400048004097
:102D000000140140004C0040005000400000024010
:102D10008042000880B500F0A5FA02BD38B5040075
:102D20000D002900200000F0A1FA32BD38B50400E2
:102D30000D002900200000F0ACFA32BD38B50400C7
:102D40000D002900200000F0B7FA32BD38B50400AC
:102D50000D002900200000F0C2FA32BD4AF6AA2177
:102D6000074A1160704710B504002068002801D19F
:102D7000034820602068FFF7F1FF002010BD00002D
:102D80000030004008B584B00023039300290EBF33
:102D900001930190491E0291009301A904AB0748D9
:102DA00078441830FDF7F0F9019909B100220A7052
:102DB000002858BF039805B000BD00BFA3E4FFFF83
:102DC00038B504000D002900C9B2200000F09CFABB
:102DD00031BD80B500F0A1FA01BD0000F0B4046877
:102DE00091FAA1F5B5FA85F391FAA1F6B6FA86F74C
:102DF0005FF0030CDBB25B001CFA03FC34EA0C044A
:102E0000FFB27B0012FA03F31C430460F0BC70476E
:102E100010B444688C4302FB01F31C43446010BCB3
:102E20007047F0B4846891FAA1F5B5FA85F391FA88
:102E3000A1F6B6FA86F75FF0030CDBB25B001CFA72
:102E400003FC34EA0C04FFB27B0012FA03F31C43C8
:102E50008460F0BC7047F0B4C46891FAA1F5B5FA8B
:102E600085F391FAA1F6B6FA86F75FF0030CDBB2B0
:102E70005B001CFA03FC34EA0C04FFB27B0012FA7C
:102E800003F31C43C460F0BC7047F0B4046A91FAC9
:102E9000A1F5B5FA85F391FAA1F6B6FA86F75FF0D7
:102EA0000F0CDBB29B001CFA03FC34EA0C04FFB2EB
:102EB000BB0012FA03F31C430462F0BC7047F0B489
:102EC000446A0B001B0A93FAA3F5B5FA85F30E00CA
:102ED000360A96FAA6F6B6FA86F75FF00F0CDBB262
:102EE0009B001CFA03FC34EA0C04FFB2BB0012FA8C
:102EF00003F31C434462F0BC7047F8B505000E00B4
:102F000000200024316891FAA1F1B1FA81F7FFB2F3
:102F10003068F840002832D030680121B9400840BC
:102F20000400002C29D0726821002800FFF756FF0A
:102F30007068012802D07068022804D1B2682100AC
:102F40002800FFF76EFF326921002800FFF783FF9A
:102F50007068022811D194FAA4F0B0FA80F1C9B2D5
:102F6000082905D2726921002800FFF78EFF04E0CE
:102F7000726921002800FFF7A2FF7F1CC8E7706874
:102F8000012802D07068022804D1F2683168280054
:102F9000FFF73EFF0120F2BDC068400B10F00100BA
:102FA0007047026932F440520A4302617047426935
:102FB00032F440720A4342617047F0B5B2F5004FF7
:102FC00043D16424192505FB01F65F00B6FBF7F633
:102FD0006427B6FBF7F605FB01F75FEA430CB7FB86
:102FE000FCF705FB01FC5FEA430EBCFBFEFC5FF057
:102FF000640EBCFBFEFC04FB1C77FF0032375FF065
:10300000640CB7FBFCF77F0017F4F87717EB061793
:1030100005FB01F65FEA430CB6FBFCF605FB01F588
:103020005FEA430CB5FBFCF55FF0640CB5FBFCF507
:1030300004FB1564E40032346425B4FBF5F414F0A9
:103040000704E719BFB2876041E06424192505FB36
:1030500001F69F00B6FBF7F66427B6FBF7F605FB13
:1030600001F75FEA830CB7FBFCF705FB01FC5FEAA5
:10307000830EBCFBFEFC5FF0640EBCFBFEFC04FB9D
:103080001C773F0132375FF0640CB7FBFCF717F099
:10309000F00717EB061705FB01F65FEA830CB6FB9A
:1030A000FCF605FB01F55FEA830CB5FBFCF55FF070
:1030B000640CB5FBFCF504FB156424013234642573
:1030C000B4FBF5F414F00F04E719BFB28760F0BD4C
:1030D0005B490A6802430A60704759490A6882439B
:1030E0000A60704757490A6802430A6070475549A9
:1030F0000A6882430A60704738B5040001255248C7
:10310000844206D11020FFF7EDFF1020FFF7EFFFFC
:103110003BE04E48844208D15FF40030FFF7D8FF0F
:103120005FF40030FFF7D9FF2FE04948844208D10F
:103130005FF48020FFF7CCFF5FF48020FFF7CDFF26
:1031400023E04448844206D12020FFF7CBFF202013
:10315000FFF7CDFF19E04048844208D15FF400201A
:10316000FFF7B6FF5FF40020FFF7B7FF0DE03B4825
:10317000844208D15FF48010FFF7AAFF5FF480104B
:10318000FFF7ABFF01E0002005002800C0B232BD10
:10319000F8B584B005000E00002700242800FFF7D2
:1031A000FBFE002846D1E9682D48014070680143C4
:1031B000F068014330690143B0690143E960B168D7
:1031C0002800FFF7EEFE71692800FFF7F0FE684661
:1031D00000F0D0F81C48854202D1039804001CE09E
:1031E0001A48854202D10298040016E01848854228
:1031F00002D10298040010E01648854202D10398DB
:1032000004000AE01448854202D10298040004E058
:103210001248854201D102980400002C0AD030687F
:10322000002807D0012007003368B2692100280078
:10323000FFF7C3FE3800C0B205B0F0BD00000000CB
:103240002038024024380240001001400044004071
:103250000048004000140140004C00400050004075
:10326000F369FFFF274800680078704738B504000D
:103270000D00244A1068002809D010684068002812
:1032800005D02900200012685268904700E0002015
:1032900032BD38B504000D001A4A1068002809D064
:1032A00010688068002805D0290020001268926804
:1032B000904700E0002032BD38B504000D00114AEF
:1032C0001068002809D01068C068002805D02900BF
:1032D00020001268D268904700E0002032BD38B567
:1032E00004000D00074A1068002809D01068006922
:1032F000002805D02900200012681269904700E0DC
:10330000002032BDA400002038B504000D002900C3
:10331000C9B2200000F0C9F831BD80B500F052F903
:1033200001BD00004D48006810F00C0070474B488C
:10333000006810F0F00070474848006810F4E05052
:1033400070474648006810F4604070474448006881
:1033500010F48000704742480068C0F3881070473E
:103360003F48006810F4403070473D48006810F056
:103370003F00704710B5040000F00EF82060206890
:1033800000F01FF86060606800F026F8A0606068D8
:1033900000F02CF8E06010BD10B50024FFF7C2FF6C
:1033A000002804D0042804D0082804D007E02D48C1
:1033B00006E02D4804E0082000F022F800E029484B
:1033C00010BD10B50400FFF7B2FF2849C0F3031089
:1033D000085CC440200010BD10B50400FFF7ACFF2E
:1033E0002349800A085CC440200010BD10B50400C9
:1033F000FFF7A7FF1E49400B085CC440200010BD2A
:103400002DE9F84304005FF0000800270025FFF7CE
:103410009DFF06003000002803D0B0F5800F02D0D9
:1034200003E0104F02E0104F00E00E4F082C11D1C6
:10343000FFF79BFF8046FFF78EFF8146B7FBF8F052
:1034400009FB00F9FFF78CFF000C401C4000B9FBA2
:10345000F0F005002800BDE8F283000008380240C3
:10346000043802400024F40000127A00B042000840
:10347000DC42000881B068490A6802430A600968B2
:1034800001400091009901B0704763490A68824386
:103490000A60704781B061490A6802430A6009689E
:1034A00001400091009901B0704738B504000D004B
:1034B0005B4884420BD12800C0B2002803D0012011
:1034C000FFF7D8FF02E00120FFF7DFFF79E0554862
:1034D00084420BD12800C0B2002803D00220FFF79D
:1034E000C9FF02E00220FFF7D0FF6AE04E488442A5
:1034F0000BD12800C0B2002803D00420FFF7BAFF88
:1035000002E00420FFF7C1FF5BE0484884420BD192
:103510002800C0B2002803D00820FFF7ABFF02E06C
:103520000820FFF7B2FF4CE0414884420BD128004D
:10353000C0B2002803D01020FFF79CFF02E010204B
:10354000FFF7A3FF3DE03B4884420BD12800C0B207
:10355000002803D02020FFF78DFF02E02020FFF796
:1035600094FF2EE0344884420BD12800C0B20028DA
:1035700003D04020FFF77EFF02E04020FFF785FFE9
:103580001FE02E4884420BD12800C0B2002803D08F
:103590008020FFF76FFF02E08020FFF776FF10E04A
:1035A000274884420DD12800C0B2002804D04FF42F
:1035B0008070FFF75FFF03E04FF48070FFF765FF57
:1035C000FFE731BD80B501211548FFF76EFF0121EE
:1035D0001448FFF76AFF01211348FFF766FF012136
:1035E0001248FFF762FF01211148FFF75EFF01213A
:1035F0001048FFF75AFF01210F48FFF756FF01213E
:103600000E48FFF752FF01210D48FFF74EFF4FF420
:103610008040FFF73FFF01BD303802404438024090
:10362000000002400004024000080240000C02407A
:10363000001002400014024000180240001C02402A
:103640000020024010B410F00703DFF8CC432268DA
:103650004FF6FF010A40DFF8C41351EA03210A4381
:10366000226010BC7047DFF8B0030068C0F302208E
:10367000704710B4020052B2002A0AD50A01DFF8DE
:10368000A033040064B214F00F04234403F8042CA4
:1036900005E00A01DFF88C33040064B21A5510BC4F
:1036A000704770B4030013F00704D4F10700052835
:1036B00001D3042001E0D4F10700251D072D01D21C
:1036C000002500E0E51E012616FA00F0401E01402C
:1036D000A94016FA05F56D1E2A401143080070BC7A
:1036E000704781B0D0490A6802430A600968014006
:1036F0000091009901B07047042805D1CB490A68B0
:1037000052F004020A6004E0C8490A6832F0040278
:103710000A607047C6490A6832F4804202430A6070
:103720007047C348016851F4807101607047C14817
:10373000016851F4803101607047BE480068400C58
:1037400010F001007047BC48016851F001010160B0
:103750007047B9480068400810F001007047B74949
:103760000A689208920002430A607047B3480068F2
:1037700010F00C007047B1490A6832F0F0020243C1
:103780000A607047AD490A6832F4E05202430A60A9
:103790007047AA490A6832F4604202430A607047DF
:1037A000A7490A6832F4407202430A607047A4488D
:1037B000016851F4004101607047A148016851F46B
:1037C0008031016070479E48016831F480310160AA
:1037D00070479A490A6832F4F81202430A60704747
:1037E0009448016851F08071016070479148006809
:1037F000400E10F00100704770B4924D2E68924C4C
:10380000264006430E4356EA82162E602C6834F496
:1038100040341C432C6070BC704770B4894D2E68D6
:103820008A4C264006430E4356EA82161E432E60FB
:1038300070BC704786490A681209120102430A6087
:1038400070478348006810F00F0070478048016897
:1038500051F48071016070477D48016851F4007136
:10386000016070477A48016851F4806101607047D7
:1038700080B50520FFF7DEFFFFF7E3FF052803D043
:103880001721744800F0F4F84FF48040FFF742FF2E
:10389000FFF74DFFFFF751FF0128FBD1FFF753FF63
:1038A000FFF757FF0128FBD1FFF73BFFFFF785FF2D
:1038B000FFF789FF4FF44070FFF772FF5FF40020BD
:1038C000FFF787FFFFF773FF0023A82204215FF4AF
:1038D0008000FFF791FF5FF0E063A82204215FF40E
:1038E0008000FFF79AFFFFF77BFFFFF77FFF0128BC
:1038F000FBD10020FFF73FFF4FF4A050FFF742FF3E
:103900004FF40040FFF745FF0220FFF728FFFFF7C5
:103910002DFF0828FBD10420FFF7EEFE4E4800F0F3
:10392000A9F8FFF793FFFFF79DFFFFF795FF01BD94
:1039300080B55FF08050FFF7D4FE0320FFF782FED2
:10394000FFF791FE00220021FFF7ABFE01007FF0A0
:103950000B00FFF78EFEFFF786FE00220021FFF727
:10396000A0FE01007FF00A00FFF783FEFFF77BFE59
:1039700000220021FFF795FE01007FF00900FFF70C
:1039800078FEFFF770FE00220021FFF78AFE01009B
:103990007FF00400FFF76DFEFFF765FE00220021B7
:1039A000FFF77FFE01007FF00300FFF762FEFFF7E5
:1039B0005AFE00220021FFF774FE01007FF0010093
:1039C000FFF757FE01BDF8B5FFF752FFFFF7B0FF55
:1039D000FFF7FFF900F054F800F05EF81F4803907D
:1039E000002002901E4801901020009001231D4AE3
:1039F00010211D48006800F053F805B000BD80B5E7
:103A0000FFF7E1FF00211848006800F0C0F81748F0
:103A10000068FFF7A8F9F5E70CED00E00000FA05F3
:103A200018ED00E000E400E04038024010E000E063
:103A300000700040003802407438024008380240EC
:103A400070380240043802400080BFFF0080BFF0A1
:103A5000003C02402C410008007A030A893A000821
:103A60001C05002094000020B8000020AC000020BD
:103A7000FEE700000149086070470000B000002028
:103A800080B500F0BDF802BD80B500F0BDF802BD04
:103A900080B500F0BDF802BD80B500F0BDF801BDF5
:103AA0002DE9F84F84B006000F00904699460E9C11
:103AB000DDF83CA0109DDDF844B0CDF80CB0280036
:103AC000C0B20290CDF804A0200080B200904B4616
:103AD000DBB24246390089B23000FEF7EFF905B09B
:103AE000BDE8F08F10B504002000FEF73FFA10BDCE
:103AF00010B504002000FEF74EFA10BD10B504000A
:103B00002000FEF762FA10BD38B504000D00290050
:103B1000C9B22000FEF778FA32BD38B504000D00B6
:103B20002900C9B22000FEF7CBFA32BD10B504005F
:103B30002000FEF721FA10BD10B504002000FEF7AA
:103B40003CFB10BD10B504002000FEF763FB10BD68
:103B5000F8B504000D0016001F003B00DBB2320078
:103B600092B229002000FEF787FBF2BD38B50400B1
:103B70000D0029002000FEF7A4FB32BD38B504007B
:103B80000D002900C9B22000FEF79EFC32BD38B5F9
:103B900004000D000020ADF80000002C2BD0200008
:103BA000FFF7A6FF012822D169462000FFF7DEFFBC
:103BB000002812D12800002803D0A16AA06BA847D2
:103BC00006E00023BDF80020A16B2000FFF7C0FF36
:103BD00001212000FFF7D2FF05E02278521E07499D
:103BE0002000FEF749FF2000FFF7A0FF04E02000BF
:103BF000FFF784FF00E0022032BD00002C420008E5
:103C000080B500F082F802BD80B500F0A3F802BDD7
:103C100080B500F0A8F802BD80B500F05AF901BDEA
:103C200010B410F00703704C22684FF6FF010A40F1
:103C30006E4951EA03210A43226010BC70476A486A
:103C40000068C0F30220704710B4020052B2002A8C
:103C500009D50A01664B040064B214F00F04234432
:103C600003F8042C04E00A01624B040064B21A5504
:103C700010BC704770B4030013F00704D4F10700C0
:103C8000052801D3042001E0D4F10700251D072DEC
:103C900001D2002500E0E51E012616FA00F0401EC4
:103CA0000140A94016FA05F56D1E2A40114308008F
:103CB00070BC7047B0FBF1F2521E4F4B1A600022ED
:103CC0004E4B1A6005224E4B1A6070474C480168F3
:103CD00031F002010160002070474948016851F04D
:103CE00002010160002070470100002008600020F0
:103CF0004860002088600020C86000200861002023
:103D00004861002088610020704710B53D4C206854
:103D1000FFF7EAFFFFF7DAFF4FF47A713A480068DD
:103D2000FFF7C8FF0320FFF77BFFFFF788FF0022A4
:103D30000021FFF79FFF01005FF0FF30FFF784FFD6
:103D4000FFF7CBFF012031490870314821684861F5
:103D5000002010BD2B490868002802D008680068C0
:103D600000E00020704710B5264C2068002838D0AD
:103D700020680068401C216808602068C068401CFA
:103D80002168C86020680068002804D12068806825
:103D9000401C2168886020684069002802D02068A3
:103DA000406980472068006900280FD020680069BA
:103DB0002168C968884209D120688069002805D037
:103DC00000202168C86020688069804720684068BA
:103DD000002804D020684068401E21684860002008
:103DE00000E0012010BD00000CED00E00000FA052D
:103DF00018ED00E000E400E014E000E018E000E06E
:103E000010E000E0B4000020B0000020BC00002062
:103E1000994200083F480068C0F302207047012221
:103E200010F01F018A403C4903005BB25B0941F876
:103E30002320704710B4020052B2002A09D50A01AB
:103E4000364B040064B214F00F04234403F8042C2E
:103E500004E00A01324B040064B21A5510BC7047EA
:103E600070B4030013F00704D4F10700052801D350
:103E7000042001E0D4F10700251D072D01D2002503
:103E800000E0E51E012616FA00F0401E0140A940A0
:103E900016FA05F56D1E2A401143080070BC7047E4
:103EA00081B020490A6802430A6009680140009114
:103EB000009901B07047016851F00401016070473A
:103EC000406810F001007047016851F0080101607E
:103ED000704710B54020FFF7E3FFFFF79BFF00227C
:103EE0000F21FFF7BDFF01005020FFF7A3FF502077
:103EF000FFF795FF0C4C2000FFF7E6FF2000FFF7CF
:103F0000DAFF2000FFF7DCFF0128FAD10020074983
:103F1000086010BD0CED00E000E100E018ED00E0ED
:103F200000E400E034380240000806502C05002070
:103F3000016851F0040101607047016831F004012B
:103F400001607047406810F0010070474068400908
:103F500010F0010070474068800910F001007047C0
:103F60007FF02001416070477FF040014160704761
:103F7000806870470068400910F0010070470068D1
:103F8000800910F0010070470068C00910F00100BE
:103F900070477FF04001016070477FF020010160B1
:103FA0007047C068400910F001007047C068800980
:103FB00010F001007047C068C00910F001007047A0
:103FC0007047FEE7FEE7FEE7FEE770477047704781
:103FD00080B5FFF75DFD01BD10B5384C20680028A5
:103FE00048D020688069002844D020688069FFF7A5
:103FF000C1FF00281DD020688069FFF7D2FF00288C
:1040000017D02068C08EFA2808DA2068FFF76AFD0A
:104010000100C9B22068FFF777FD07E02068FFF7CD
:1040200061FD0100C9B22068FFF777FD2448FFF762
:10403000B4FF20688069FFF7A7FF002808D0206838
:104040008069FFF7B8FF002802D02068FFF774FDF1
:1040500020688069FFF793FF00280BD020688069F3
:10406000FFF7A4FF002805D02068FFF76BFD144878
:10407000FFF78FFF10BD10B5124C2000FFF76BFF4C
:10408000002808D02000FFF76FFF2000FFF755FF42
:104090002000FFF74DFF2000FFF758FF002802D057
:1040A0002000FFF75DFF2000FFF74CFF002804D041
:1040B0002000FFF75DFF0449086010BDB800002034
:1040C00000100140000806502C0500200F48016830
:1040D00051F4700101600E49086850F00100086059
:1040E00000200C4A10600A680B4802400A600B4826
:1040F0000B4A1060086830F48020086000200949ED
:1041000008605FF0006008490860704788ED00E0D3
:104110000038024008380240FFFFF6FE103000244D
:10412000043802400C38024008ED00E04A3A5C5383
:10413000544D33325F4D43555C53544D3332463406
:1041400030375C53544D33324634303778785072C0
:104150006F6A6563745C4170706C69636174696FE8
:104160006E5C4150505C6D61696E2E630000000012
:1041700030B450F8041B79B1026843680244083037
:10418000DC0744BFA9F10104E31852F8045B43F8CB
:10419000045B091FF9D1ECE730BC704710B5074943
:1041A00079441831064C7C44163404E00A68081D32
:1041B000114488470146A142F8D110BD2C000000EF
:1041C0004C0000004EF68851CEF20001086840F421
:1041D00070000860BFF34F8FBFF36F8F4FF0007018
:1041E000E1EE100A704700001BCFFFFF7C040000C7
:1041F000C00000200000000079FFFFFFC0000000A9
:104200002802000000000020000000003D3E3EBDEE
:10421000D3CAD5B4AEBFDA2564B7A2C9FAB3ACCA63
:10422000B1B4EDCEF3213C3C3D0D0A003D3E3EB421
:10423000AEBFDA25643AB7A2C9FA435243D0A3D13C
:10424000E9B4EDCEF33C3C3D0D0A000000F00DF862
:10425000002801D0FFF7A2FFAFF300800020AFF3EA
:104260000080FFF7CCFB00F002F80120704700F05F
:1042700001B8000007463846FDF716FEFBE70000D0
:104280003D3E3EB4AEBFDA31B5C4B3F5CABCBBAF38
:104290003C3C3D0D0A00000003480168034A1278C7
:1042A00089180160704700BF30050020BC00002065
:1042B00000000000000000000102030406070809D6
:1042C0000148804701480047CD400008D14200081E
:1042D000AFF30080FFF776FFFFF7B8FF00000000A4
:1042E0000102030400002E004300FFF7FEBFFFF7AA
:1042F000FEBFFFF7FEBFFFF7FEBFFFF7FEBFFFF7F2
:10430000FEBFFFF7FEBFFFF7FEBFFFF7FEBFFFF7E1
:10431000FEBFFFF7FEBFFFF7FEBFFFF7FEBFFFF7D1
:10432000FEBFFFF7FEBFFFF7FEBFFFF7FEBFFFF7C1
:10433000FEBFFFF7FEBFFFF7FEBFFFF7FEBFFFF7B1
:10434000FEBFFFF7FEBFFFF7FEBFFFF7FEBFFFF7A1
:10435000FEBFFFF7FEBFFFF7FEBFFFF7FEBFFFF791
:10436000FEBFFFF7FEBFFFF7FEBFFFF7FEBFFFF781
:10437000FEBFFFF7FEBFFFF7FEBFFFF7FEBFFFF771
:10438000FEBFFFF7FEBFFFF7FEBFFFF7FEBFFFF761
:10439000FEBFFFF7FEBFFFF7FEBFFFF7FEBFFFF751
:1043A000FEBFFFF7FEBFFFF7FEBFFFF7FEBFFFF741
:1043B000FEBFFFF7FEBFFFF7FEBFFFF7FEBFFFF731
:1043C000FEBFFFF7FEBFFFF7FEBFFFF7FEBFFFF721
:1043D000FEBFFFF7FEBFFFF7FEBFFFF7FEBFFFF711
:1043E000FEBFFFF7FEBFFFF7FEBFFFF7FEBFFFF701
:1043F000FEBFFFF7FEBFFFF7FEBFFFF7FEBFFFF7F1
:10440000FEBFFFF7FEBFFFF7FEBFFFF7FEBFFFF7E0
:10441000FEBFFFF7FEBFFFF7FEBFFFF7FEBFFFF7D0
:10442000FEBFFFF7FEBF0000E842000801000000E9
:104430004800002000000000000000000000000014
:10444000000000000000000000000000000000006C
:10445000000000000000000000000000DD11000866
:1044600000000000CB110008010000000000000067
:10447000E4420008E4420008E4420008E442000884
:10448000E4420008E4420008E4420008FFFFFFFFA6
:10449000FFFFFFFFE6420008E4420008E442000894
:1044A000FFFFFFFFFFFF0000010000000000000011
:1044B00000000000000000000000000000010203F6
:1044C0000405060708090A0B0C0D0E0F80000020DA
:1044D00000300040A80000200024F4000005002067
:0844E000C004002001000000EF
:04000005080042D1DC
:00000001FF
