:020000040800F2
:100000000020001041160008291600082B160008D1
:100010002D1600082F1600083116000800000000F9
:10002000000000000000000000000000331600087F
:1000300035160008000000003716000839160008C1
:100040005D160008611600086516000869160008AC
:100050006D1600087116000875160008791600085C
:100060007D1600088116000885160008891600080C
:100070008D160008911600089516000899160008BC
:100080009D160008A1160008A5160008A91600086C
:10009000AD160008B1160008B5160008B91600081C
:1000A000BD160008C1160008C5160008C9160008CC
:1000B000CD160008D1160008D5160008D91600087C
:1000C000DD160008E1160008E5160008E91600082C
:1000D000ED160008F1160008F5160008F9160008DC
:1000E000FD16000801170008051700080917000889
:1000F0000D17000811170008151700081917000838
:100100001D170008211700082517000829170008E7
:100110002D17000831170008351700083917000897
:100120003D17000841170008451700084917000847
:100130004D170008511700085517000859170008F7
:100140005D170008611700086517000869170008A7
:100150006D17000871170008751700087917000857
:100160007D17000881170008851700088917000807
:100170008D1700089117000895170008000000006F
:10018000991700089D17000810B410F00703DFF856
:10019000C84322684FF6FF010A40DFF8C01351EA56
:1001A00003210A43226010BC7047DFF8AC030068EB
:1001B000C0F30220704710B4020052B2002A0AD5E0
:1001C0000A01DFF89C33040064B214F00F042344E6
:1001D00003F8042C05E00A01DFF88833040064B258
:1001E0001A5510BC704770B4030013F00704D4F123
:1001F0000700052801D3042001E0D4F10700251DE4
:10020000072D01D2002500E0E51E012616FA00F0B8
:10021000401E0140A94016FA05F56D1E2A40114303
:10022000080070BC704781B0CF490A6802430A6079
:10023000096801400091009901B07047042805D178
:10024000CA490A6852F004020A6004E0C7490A6811
:1002500032F004020A607047C5490A6832F48042ED
:1002600002430A607047C248016851F4807101601E
:100270007047C048016851F4803101607047BD4843
:100280000068400C10F001007047BB48016851F055
:10029000010101607047B8480068400810F0010093
:1002A0007047B6490A689208920002430A60704794
:1002B000B248006810F00C007047B0490A6832F08C
:1002C000F00202430A607047AC490A6832F4E05217
:1002D00002430A607047A9490A6832F46042024347
:1002E0000A607047A6490A6832F4407202430A6005
:1002F0007047A348016851F4004101607047A0486D
:10030000016851F48031016070479D48016831F403
:1003100080310160704799490A6832F4F81202434B
:100320000A6070479348016851F08071016070471E
:1003300090480068400E10F00100704770B4914D75
:100340002E68914C264006430E4356EA82162E60D4
:100350002C6834F440341C432C6070BC704770B47B
:10036000884D2E68894C264006430E4356EA821675
:100370001E432E6070BC704785490A68120912013D
:1003800002430A6070478248006810F00F0070470F
:100390007F48016851F48071016070477C480168B2
:1003A00051F40071016070477948016851F480612F
:1003B0000160704780B50520FFF7DEFFFFF7E3FF20
:1003C000052803D01721734800F0F4F84FF480405B
:1003D000FFF742FFFFF74DFFFFF751FF0128FBD169
:1003E000FFF753FFFFF757FF0128FBD1FFF73BFF54
:1003F000FFF785FFFFF789FF4FF44070FFF772FFAB
:100400005FF40020FFF787FFFFF773FF0023A822A8
:1004100004215FF48000FFF791FF5FF0E063A82202
:1004200004215FF48000FFF79AFFFFF77BFFFFF7DF
:100430007FFF0128FBD10020FFF73FFF4FF4A050C2
:10044000FFF742FF4FF40040FFF745FF0220FFF7A0
:1004500028FFFFF72DFF0828FBD10420FFF7EEFE51
:100460004D4800F0A9F8FFF793FFFFF79DFFFFF756
:1004700095FF01BD80B55FF08050FFF7D4FE0320EB
:10048000FFF782FEFFF791FE00220021FFF7ABFE8F
:1004900001007FF00B00FFF78EFEFFF786FE0022C3
:1004A0000021FFF7A0FE01007FF00A00FFF783FEA6
:1004B000FFF77BFE00220021FFF795FE01007FF091
:1004C0000900FFF778FEFFF770FE00220021FFF71A
:1004D0008AFE01007FF00400FFF76DFEFFF765FE66
:1004E00000220021FFF77FFE01007FF00300FFF7ED
:1004F00062FEFFF75AFE00220021FFF774FE0100A2
:100500007FF00100FFF757FE01BD10B5FFF752FF66
:10051000FFF7B0FF00F05FF800F061F800F077F847
:1005200000F079F81D4C1E4A1E49206800F077F84B
:10053000206800F07EF810BD80B5FFF7E6FF4FF4AD
:10054000FA7000F082F84FF4FA7000F07EF8164866
:10055000006800F086F8F2E70CED00E00000FA0514
:1005600018ED00E000E400E04038024010E000E058
:1005700000700040003802407438024008380240E1
:1005800070380240043802400080BFFF0080BFF096
:10059000003C0240F8140008007A030A48000020DA
:1005A0004B0600083F0600085000002072B6704756
:1005B00062B67047FEE7000001490860704700001E
:1005C0005400002038B504000D002900C9B22000F5
:1005D00000F056F831BD80B500F05BF801BD80B584
:1005E00000F05BF802BD10B50400200000F059F8DF
:1005F00010BD80B500F05BF802BD10B5040020000E
:1006000000F059F810BD80B500F05BF802BD80B570
:1006100000F05BF801BD80B500F05CF801BD70B57D
:1006200004000D00160032002900200000F056F8EA
:1006300070BD10B50400200000F05AF810BD10B5D0
:100640000400200000F060F810BD10B50400200088
:1006500000F054F810BD00004AF6AA21074A1160C4
:10066000704710B504002068002801D103482060BD
:100670002068FFF7F1FF002010BD000000300040AF
:1006800038B504000D002900C9B2200000F05DF863
:1006900031BD80B500F0E6F801BD80B500F097F9F6
:1006A00002BD10B50400200000F0B6F910BD80B501
:1006B00000F0C7F902BD10B50400200000F001FAF7
:1006C00010BD80B500F02DFA02BD80B500F078FABB
:1006D00001BD000080B500F0A0FA01BD70B50400B6
:1006E0000D00160032002900200000F05DFB70BDF7
:1006F00010B50400200000F03CFC10BD10B5040053
:10070000200000F079FC10BD10B50400200000F0BE
:1007100083FC10BD81B068490A6802430A60096819
:1007200001400091009901B0704763490A68824313
:100730000A60704781B061490A6802430A6009682B
:1007400001400091009901B0704738B504000D00D8
:100750005B4884420BD12800C0B2002803D001209E
:10076000FFF7D8FF02E00120FFF7DFFF79E05548EF
:1007700084420BD12800C0B2002803D00220FFF72A
:10078000C9FF02E00220FFF7D0FF6AE04E48844232
:100790000BD12800C0B2002803D00420FFF7BAFF15
:1007A00002E00420FFF7C1FF5BE0484884420BD120
:1007B0002800C0B2002803D00820FFF7ABFF02E0FA
:1007C0000820FFF7B2FF4CE0414884420BD12800DB
:1007D000C0B2002803D01020FFF79CFF02E01020D9
:1007E000FFF7A3FF3DE03B4884420BD12800C0B295
:1007F000002803D02020FFF78DFF02E02020FFF724
:1008000094FF2EE0344884420BD12800C0B2002867
:1008100003D04020FFF77EFF02E04020FFF785FF76
:100820001FE02E4884420BD12800C0B2002803D01C
:100830008020FFF76FFF02E08020FFF776FF10E0D7
:10084000274884420DD12800C0B2002804D04FF4BC
:100850008070FFF75FFF03E04FF48070FFF765FFE4
:10086000FFE731BD80B501211548FFF76EFF01217B
:100870001448FFF76AFF01211348FFF766FF0121C3
:100880001248FFF762FF01211148FFF75EFF0121C7
:100890001048FFF75AFF01210F48FFF756FF0121CB
:1008A0000E48FFF752FF01210D48FFF74EFF4FF4AE
:1008B0008040FFF73FFF01BD30380240443802401E
:1008C000000002400004024000080240000C024008
:1008D000001002400014024000180240001C0240B8
:1008E0000020024010B410F007039E4C22684FF61F
:1008F000FF010A409C4951EA03210A43226010BCCF
:10090000704798480068C0F30220704710B4020096
:1009100052B2002A09D50A01944B040064B214F0C3
:100920000F04234403F8042C04E00A01904B040054
:1009300064B21A5510BC704770B4030013F007047A
:10094000D4F10700052801D3042001E0D4F1070009
:10095000251D072D01D2002500E0E51E012616FA0F
:1009600000F0401E0140A94016FA05F56D1E2A4010
:100970001143080070BC7047B0FBF1F2521E7D4B72
:100980001A6000227C4B1A6005227C4B1A6070476B
:100990007A48016831F00201016000207047774811
:1009A000016851F002010160002070470100002041
:1009B000086000204860002088600020C860002097
:1009C000086100204861002088610020704710B550
:1009D0006B4C2068FFF7EAFFFFF7DAFF4FF47A71FC
:1009E00068480068FFF7C8FF0320FFF77BFFFFF7A9
:1009F00088FF00220021FFF79FFF01005FF0FF301A
:100A0000FFF784FFFFF7CBFF01205F4908705F48C5
:100A100021684861002010BD38B50400584D286891
:100A200000280CD02868446028684068002804D05A
:100A300057480068FFF715FEF6E7002000E00120A8
:100A400032BD10B54E4C2068002838D020680068B0
:100A5000401C216808602068C068401C2168C8608C
:100A600020680068002804D120688068401C216844
:100A7000886020684069002802D02068406980476B
:100A80002068006900280FD0206800692168C968C3
:100A9000884209D120688069002805D0002021689B
:100AA000C86020688069804720684068002804D0BA
:100AB00020684068401E21684860002000E0012056
:100AC00010BD2DE9F04704002A4D2E682B4FD7F8B2
:100AD0000080DFF8A490D9F800A0042038602948ED
:100AE00000682C49B0FBF1F0401E00FB04F02860C8
:100AF0000020C9F80000386850F0010038603868FC
:100B0000C00304D422480068FFF7ABFDF7E70420D8
:100B100038602E60C9F800A0C7F800800020BDE84A
:100B2000F0871648006840070CD512480068154940
:100B300009684FF47A72B1FBF2F1491E88420FD076
:100B400001200EE00B4800680E4909684FF47A72E4
:100B5000B1FBF2F1C908491E884201D0012000E032
:100B6000002070470CED00E00000FA0518ED00E0F1
:100B700000E400E014E000E018E000E010E000E035
:100B800058000020540000206000002011160008CA
:100B90005000002040420F0081B010490A68024313
:100BA0000A60096801400091009901B0704701682E
:100BB00051F0040101607047406810F00100704777
:100BC00010B54020FFF7E8FF054C2000FFF7EFFFCE
:100BD0002000FFF7F1FF0128FAD110BD34380240A0
:100BE0000008065081B045490A6802430A60096856
:100BF00001400091009901B0704701218160704768
:100C000001607047006870470021C1600021816069
:100C10000021416000210160704710B5384C206808
:100C2000FFF7F2FF00F015F84FF48050FFF7DAFFFE
:100C30000FF23500216808600FF2610021684860FA
:100C40000FF28D00216888600FF2C1002168C86032
:100C500010BD80B52B4800F029FA01BD80B52948A8
:100C6000FFF7CBFF01BD00002DE9F04104000D00AE
:100C700000265FF00008FFF7F1FF0027AF4207D220
:100C8000E05D804641461F48FFF7BAFF7F1CF5E74D
:100C90001C48FFF7B7FFBDE8F081000070B4030007
:100CA0000020002200258D420ED20600B6B2360A80
:100CB0005A5D56403400144A2600F6B232F8162027
:100CC00092EA00206D1CEEE780B270BC7047000015
:100CD00070B402000020002400258D420AD2545D29
:100CE00044402300084C1E00F6B234F816402000A1
:100CF0006D1CF2E7C0B270BC704700003038024093
:100D000044000020003002409812000810B4030094
:100D10000022002000248C4203D21A5D1018641CAB
:100D2000F9E74042C0B210BC7047000000690840BB
:100D3000884201D1012000E00020C0B270478161EB
:100D400070470A048261704701000020486100205A
:100D5000086100204860002008600020704710B53E
:100D600086B00400002C02D0E068002801D10120E8
:100D700018E00121E068FFF725FCA0680090012041
:100D80000190022002900120039001200490002095
:100D900005906946E06800F030FAA168E068FFF766
:100DA000CEFF002006B010BD70B504000D00160087
:100DB0002000FFF7C9FF002C06D0114800688442CC
:100DC00002D1200000F013F82000FFF7C8FF280030
:100DD000002801D0256101E00A4820613000002888
:100DE00001D0666101E008486061002070BD01002B
:100DF0004FF4804088600548C860002070470000BC
:100E0000480000203F0600084B060008000402408E
:100E100010B50400A168E068FFF791FF2069002881
:100E200002D0022021698847A168E068FFF789FFA6
:100E30006069002802D0142061698847A168E068D1
:100E4000FFF77DFF2069002802D01E202169884716
:100E5000002010BD70B504000025A168E068FFF710
:100E600065FF00280AD02069002802D001202169EE
:100E700088476D1C2800C0B2C928EEDB2800C0B22C
:100E8000C92801DB012018E00026A168E068FFF70F
:100E90004DFF00280AD12069002802D001202169D5
:100EA0008847761C3000C0B2C928EEDB3000C0B2E3
:100EB000C92801DB012000E0002070BD10B504004E
:100EC0002000FFF7A5FF2000FFF7C4FF10BD38B5D5
:100ED00004000025A168E068FFF728FF00280CD077
:100EE0002069002802D00120216988476D1C280054
:100EF000C0B29728EEDB002005002069002802D050
:100F00000A2021698847A168E068FFF70FFF0028E1
:100F10000CD12069002802D00120216988476D1C6E
:100F20002800C0B29728EEDB0020050020690028C9
:100F300002D0322021698847A168E068FFF7F6FEF9
:100F4000002801D0012000E0002032BD70B505006E
:100F50000021002000263100C9B2082907DA40002C
:100F600004002800FFF7B3FF2043761CF3E7C0B26C
:100F700070BD7CB50400684600210022C0E9001263
:100F800000262000FFF79AFF002801D0012032E060
:100F900000252800C0B2052808DA2000FFF7D6FF98
:100FA00069462A00D2B288546D1CF2E7A168E06855
:100FB000FFF7C5FE69469DF800004A7852FA80F0B6
:100FC0008A788018CA7880180A79904201D0022065
:100FD00011E09DF8000060604FF47A726368487811
:100FE00002FB03036360887820602368C87802FBF3
:100FF00003022260002076BD10B50400002C0AD048
:10100000FFF701FB002803D12000FFF7ECFA02E014
:10101000200000F01EF810BD10B50400002C17D001
:10102000FFF7C4FA072C03D32000FFF7E6FA0DE020
:10103000022C0BD3601E6043401C15490968154AF9
:10104000B1FBF2F1491E484300F016F8FFF7B0FA81
:1010500010BD10B50400002C0CD02000441E002848
:1010600008D04FF47A70FFF7D7FF08480068FFF701
:10107000F8FAF2E710BD0000002805D00100481E74
:10108000002901D000BFF9E77047000050000020A0
:101090005400002040420F000E490A6802430A60D3
:1010A00070470C490A6882430A60704738B50400EB
:1010B00001250948844208D14FF48050FFF7ECFF26
:1010C0004FF48050FFF7EDFF01E0002005002800FD
:1010D000C0B232BD1038024000300240F0B40468A3
:1010E00091FAA1F5B5FA85F391FAA1F6B6FA86F769
:1010F0005FF0030CDBB25B001CFA03FC34EA0C0467
:10110000FFB27B0012FA03F31C430460F0BC70478B
:1011100010B444688C4302FB01F31C43446010BCD0
:101120007047F0B4846891FAA1F5B5FA85F391FAA5
:10113000A1F6B6FA86F75FF0030CDBB25B001CFA8F
:1011400003FC34EA0C04FFB27B0012FA03F31C43E5
:101150008460F0BC7047F0B4C46891FAA1F5B5FAA8
:1011600085F391FAA1F6B6FA86F75FF0030CDBB2CD
:101170005B001CFA03FC34EA0C04FFB27B0012FA99
:1011800003F31C43C460F0BC7047F0B4046A91FAE6
:10119000A1F5B5FA85F391FAA1F6B6FA86F75FF0F4
:1011A0000F0CDBB29B001CFA03FC34EA0C04FFB208
:1011B000BB0012FA03F31C430462F0BC7047F0B4A6
:1011C000446A0B001B0A93FAA3F5B5FA85F30E00E7
:1011D000360A96FAA6F6B6FA86F75FF00F0CDBB27F
:1011E0009B001CFA03FC34EA0C04FFB2BB0012FAA9
:1011F00003F31C434462F0BC7047F8B505000E00D1
:1012000000200024316891FAA1F1B1FA81F7FFB210
:101210003068F840002832D030680121B9400840D9
:101220000400002C29D0726821002800FFF756FF27
:101230007068012802D07068022804D1B2682100C9
:101240002800FFF76EFF326921002800FFF783FFB7
:101250007068022811D194FAA4F0B0FA80F1C9B2F2
:10126000082905D2726921002800FFF78EFF04E0EB
:10127000726921002800FFF7A2FF7F1CC8E7706891
:10128000012802D07068022804D1F2683168280071
:10129000FFF73EFF0120F2BD000021104220633025
:1012A0008440A550C660E770088129914AA16BB1BE
:1012B0008CC1ADD1CEE1EFF1311210027332522266
:1012C000B5529442F772D662399318837BB35AA30E
:1012D000BDD39CC3FFF3DEE3622443342004011436
:1012E000E664C774A44485546AA54BB5288509955E
:1012F000EEE5CFF5ACC58DD5533672261116300606
:10130000D776F6669556B4465BB77AA719973887AD
:10131000DFF7FEE79DD7BCC7C448E5588668A778C5
:101320004008611802282338CCC9EDD98EE9AFF9FD
:10133000488969990AA92BB9F55AD44AB77A966AA5
:10134000711A500A333A122AFDDBDCCBBFFB9EEB4D
:10135000799B588B3BBB1AABA66C877CE44CC55C75
:10136000222C033C600C411CAEED8FFDECCDCDDD9D
:101370002AAD0BBD688D499D977EB66ED55EF44E45
:10138000133E322E511E700E9FFFBEEFDDDFFCCFED
:101390001BBF3AAF599F788F8891A981CAB1EBA141
:1013A0000CD12DC14EF16FE18010A100C230E320BD
:1013B0000450254046706760B9839893FBA3DAB365
:1013C0003DC31CD37FE35EF3B1029012F322D2320D
:1013D0003542145277625672EAB5CBA5A895898535
:1013E0006EF54FE52CD50DC5E234C324A01481045D
:1013F0006674476424540544DBA7FAB79987B89705
:101400005FE77EF71DC73CD7D326F2369106B016AC
:1014100057667676154634564CD96DC90EF92FE9C4
:10142000C899E9898AB9ABA94458654806782768FC
:10143000C018E1088238A3287DCB5CDB3FEB1EFBA4
:10144000F98BD89BBBAB9ABB754A545A376A167A4C
:10145000F10AD01AB32A923A2EFD0FED6CDD4DCD74
:10146000AABD8BADE89DC98D267C076C645C454C9C
:10147000A23C832CE01CC10C1FEF3EFF5DCF7CDF44
:101480009BAFBABFD98FF89F176E367E554E745EEC
:10149000932EB23ED10EF01E0F48016851F4700138
:1014A00001600E49086850F00100086000200C4AF5
:1014B00010600A680B4802400A600B480B4A106033
:1014C000086830F4802008600020094908605FF057
:1014D000006008490860704788ED00E0003802406D
:1014E00008380240FFFFF6FE1030002404380240A6
:1014F0000C38024008ED00E0493A5C53544D333259
:101500005F4D43555C53544D3332463430375C5352
:10151000544D333246343037787850726F6A656391
:10152000745C4170706C69636174696F6E5C41508A
:10153000505C6D61696E2E630000000030B450F89D
:10154000041B79B10268436802440830DC0744BFD9
:10155000A9F10104E31852F8045B43F8045B091F86
:10156000F9D1ECE730BC704710B507497944183120
:10157000064C7C44163404E00A68081D1144884770
:101580000146A142F8D110BD2C0000003C00000033
:101590004EF68851CEF20001086840F470000860F1
:1015A000BFF34F8FBFF36F8F4FF00070E1EE100A63
:1015B0007047000089FFFFFF64000000E4010000A5
:1015C000000000200000000000F00DF8002801D00D
:1015D000FFF7CAFFAFF300800020AFF30080FEF7F3
:1015E000ABFF00F002F80120704700F001B80000E6
:1015F0000746384600F002F8FBE7000080B5AFF37D
:101600000080024A11001820ABBEFBE72600020052
:1016100003480168034A127889180160704700BFC7
:101620005C000020600000207047FEE7FEE7FEE758
:10163000FEE770477047704780B5FEF7DAFF01BDDF
:1016400001488047014800479914000851160008D6
:10165000AFF30080FFF79CFFFFF7B6FFFFF7FEBF79
:10166000FFF7FEBFFFF7FEBFFFF7FEBFFFF7FEBFAE
:10167000FFF7FEBFFFF7FEBFFFF7FEBFFFF7FEBF9E
:10168000FFF7FEBFFFF7FEBFFFF7FEBFFFF7FEBF8E
:10169000FFF7FEBFFFF7FEBFFFF7FEBFFFF7FEBF7E
:1016A000FFF7FEBFFFF7FEBFFFF7FEBFFFF7FEBF6E
:1016B000FFF7FEBFFFF7FEBFFFF7FEBFFFF7FEBF5E
:1016C000FFF7FEBFFFF7FEBFFFF7FEBFFFF7FEBF4E
:1016D000FFF7FEBFFFF7FEBFFFF7FEBFFFF7FEBF3E
:1016E000FFF7FEBFFFF7FEBFFFF7FEBFFFF7FEBF2E
:1016F000FFF7FEBFFFF7FEBFFFF7FEBFFFF7FEBF1E
:10170000FFF7FEBFFFF7FEBFFFF7FEBFFFF7FEBF0D
:10171000FFF7FEBFFFF7FEBFFFF7FEBFFFF7FEBFFD
:10172000FFF7FEBFFFF7FEBFFFF7FEBFFFF7FEBFED
:10173000FFF7FEBFFFF7FEBFFFF7FEBFFFF7FEBFDD
:10174000FFF7FEBFFFF7FEBFFFF7FEBFFFF7FEBFCD
:10175000FFF7FEBFFFF7FEBFFFF7FEBFFFF7FEBFBD
:10176000FFF7FEBFFFF7FEBFFFF7FEBFFFF7FEBFAD
:10177000FFF7FEBFFFF7FEBFFFF7FEBFFFF7FEBF9D
:10178000FFF7FEBFFFF7FEBFFFF7FEBFFFF7FEBF8D
:10179000FFF7FEBFFFF7FEBFFFF7FEBFFFF7FEBF7D
:1017A0000000000000000000000000000000000039
:1017B0000000000000000000000000000000000029
:1017C0000000000000000000000000000000000019
:1017D0000000000000000000000000000000000009
:1017E00000000000340000201C00002000300040F9
:1017F0004C0000200024F400000000200000000045
:0418000001000000E3
:040000050800165188
:00000001FF
