:020000040800F2
:10000000301000209D0100086F0300083503000830
:100010006D030008E50100088107000800000000EA
:100020000000000000000000000000009304000831
:10003000E70100080000000091040008A504000882
:10004000B7010008B7010008B7010008B7010008B0
:10005000B7010008B7010008B7010008B7010008A0
:10006000B7010008B7010008B7010008B701000890
:10007000B7010008B7010008B7010008B701000880
:10008000B7010008B7010008B7010008B701000870
:10009000B7010008B7010008B7010008B701000860
:1000A000B7010008B7010008B7010008B701000850
:1000B000B7010008B7010008B7010008B701000840
:1000C000B7010008B7010008B7010008B701000830
:1000D000B7010008B7010008B7010008B701000820
:1000E000B7010008B7010008B7010008B701000810
:1000F000B7010008B7010008B7010008B701000800
:10010000B7010008B7010008B7010008B7010008EF
:10011000B7010008B7010008B7010008B7010008DF
:10012000B7010008B7010008B7010008B7010008CF
:10013000B7010008B7010008B7010008B7010008BF
:10014000B7010008B7010008B7010008B7010008AF
:10015000B7010008B7010008B7010008B70100089F
:10016000B7010008B7010008B7010008B70100088F
:10017000B7010008B7010008B7010008000000003F
:10018000B7010008B7010008DFF80CD000F018F83C
:1001900000480047A30700083010002006488047A9
:1001A00006480047FEE7FEE7FEE7FEE7FEE7FEE75C
:1001B000FEE7FEE7FEE7FEE72D07000889010008DD
:1001C000064C074D06E0E06840F0010394E80700A4
:1001D00098471034AC42F6D3FFF7DAFFA8070008BF
:1001E000C8070008FEE7704700F058B8FFF7FCBFEB
:1001F000214A904203D14FF0010089BB38E01F4AE9
:10020000904203D14FF0020051BB31E01C4A9042B2
:1002100003D14FF0040019BB2AE01A4A904203D1DF
:100220004FF00800E1B923E0174A904203D14FF0A4
:100230001000A9B91CE0154A904203D14FF02000EC
:1002400071B915E0124A904203D14FF0400039B91C
:100250000EE0104A904204D14FF0800001B907E04F
:1002600004E00D4A904205D1801509B100F06CB848
:1002700000F062B870470000000002400004024035
:1002800000080240000C024000100240001402402E
:1002900000180240001C02400020024008B5012165
:1002A0001648FFF7A5FF01211548FFF7A1FF01211F
:1002B0001448FFF79DFF01211348FFF799FF012123
:1002C0001248FFF795FF01211148FFF791FF012127
:1002D0001048FFF78DFF01210F48FFF789FF01212B
:1002E0000E48FFF785FF0E48016841F48041016028
:1002F000006800F48040009008BD0000000002404B
:100300000004024000080240000C024000100240BD
:100310000014024000180240001C0240002002406D
:100320004438024002488168027811448160704775
:1003300000000020FEE7000002490A6882430A60CC
:100340007047000030380240044908B50A6802438B
:100350000A6009680140009108BD00003038024081
:1003600001490860704700000C000020FEE770475C
:1003700030B500F00703C3F10704042C00D90424AE
:10038000181D072801D2002300E0DB1E012505FA15
:1003900004F0401E084098409D406D1E15402843C3
:1003A00030BD000002480068C0F302207047000022
:1003B0000CED00E02B4808B5016841F08051016068
:1003C0000068294900F08050009008684FF6FF024D
:1003D0001040264A40F4407010430860FFF7E2FFE7
:1003E00000221146FFF7C4FF01466FF00B0000F03A
:1003F0003FF8FFF7D7FF00221146FFF7B9FF01468C
:100400006FF00A0000F034F8FFF7CCFF002211462D
:10041000FFF7AEFF01466FF0090000F029F8FFF783
:10042000C1FF00221146FFF7A3FF01466FF0040051
:1004300000F01EF8FFF7B6FF00221146FFF798FF05
:1004400001466FF0030000F013F8FFF7ABFF002246
:100450001146FFF78DFF0146BDE808406FF001002F
:1004600000F006B8403802400CED00E00000FA054C
:100470000907090E002806DA00F00F0000F1E0205D
:1004800080F8141D704700F1E02080F800147047D8
:100490007047704700F008B800F030B8FFF7FABFB7
:1004A000FFF7FABFFFF7FABF10B5134C206808B387
:1004B0000168491C0160C168491CC160016811B92B
:1004C0008168491C8160406900B1804720680169EA
:1004D00041B10169C268914204D1816911B1002220
:1004E000C26088472068416811B14168491E416077
:1004F000002010BD012010BD100000201B4A10B5C7
:10050000106800F049F800F051F819484FF47A717A
:100510000068B0FBF1F14FF0E020491E416100217D
:10052000816105230361134803684FF6FF042340EC
:10053000114C43F44073234303600068C0F302206E
:10054000031D072B01D2002000E0C01E81400801DE
:100550000A49012381F8140D00F016F808480370C9
:10056000116808484861002010BD000010000020FC
:100570000C0000200CED00E00000FA050FE000E0A8
:1005800000000020250300084FF0E020016941F041
:10059000020101610020704700210160416081601B
:1005A000C160016141618161084670474FF0E02000
:1005B000016921F0020101610020704710B500F0CF
:1005C00009F8FFF7F7FEFFF711FEBDE81040FFF74F
:1005D00067BF000070B5464C206820F00F0040F067
:1005E00005002060206800F00F00052803D01121CD
:1005F00040A000F0C6F8464A106840F48040106001
:100600004449086840F4803008600868C0F34040FE
:100610000028FAD03F487430036843F001030360B8
:100620000368C3F34003002BFAD0106840F48070D5
:100630001060384A7032106840F4803010601068E2
:1006400020F480301060106840F440701060314831
:100650000830036823F4F81343F40023036013689D
:1006600043F400431360021F2B4B15682B4E35409B
:100670002B431360136823F440331360284B156831
:10068000284E35402B4313600A6842F080720A609E
:100690000A68C2F34062002AFAD0016821F0F00132
:1006A0000160016821F4E05141F4A051016001684A
:1006B00021F4604141F400410160016821F003012F
:1006C00041F002010160016801F00C010829FAD132
:1006D0001548FFF745FE206840F4807020602068D0
:1006E00040F480602060206840F40070206070BD9D
:1006F000003C02402E2E5C4170706C69636174692D
:100700006F6E5C4150505C6D61696E2E630000003D
:100710000070004000380240042A40000080BFFF03
:10072000042A40070080BFF0007A030A10480168DD
:1007300041F4700101600F48016841F0010101605E
:100740000C4A00210832116002680B4B1A4002600B
:10075000031D0A4A1A60026822F4802202600548DA
:100760000C3001600249580680390860704700006B
:1007700088ED00E000380240FFFFF6FE1030002454
:10078000FEE7FEE702E008C8121F08C1002AFAD1FE
:1007900070477047002001E001C1121F002AFBD101
:1007A0007047FFF70BFFFEE7C807000800000020B6
:1007B0001400000084070008DC0700081400002073
:1007C0001C10000094070008010000001000000049
:0C07D000000000000024F40014000020D1
:040000050800018965
:00000001FF
