:020000040800F2
:10000000501000209D010008E908000815070008AD
:10001000E5080008E5010008D11000080000000014
:100020000000000000000000000000009D0A000821
:100030006B04000800000000490A0008510B00088A
:10004000B7010008B7010008B7010008B7010008B0
:10005000B7010008B7010008B7010008B7010008A0
:10006000B7010008B7010008B7010008B701000890
:10007000B7010008B7010008B7010008B701000880
:10008000B7010008B7010008B7010008B701000870
:10009000B7010008B7010008B7010008B701000860
:1000A000B7010008B7010008B7010008B701000850
:1000B000B7010008B7010008B7010008B701000840
:1000C000B7010008B7010008B7010008B701000830
:1000D000B7010008B7010008B7010008B701000820
:1000E000B7010008B7010008B7010008B701000810
:1000F000B7010008B7010008B7010008B701000800
:10010000B7010008B7010008B7010008B7010008EF
:10011000B7010008B7010008B7010008B7010008DF
:10012000B7010008B7010008B7010008B7010008CF
:10013000B7010008B7010008B7010008B7010008BF
:10014000B7010008B7010008B7010008B7010008AF
:10015000B7010008B7010008B7010008B70100089F
:10016000B7010008B7010008B7010008B70100088F
:10017000B7010008B7010008B7010008000000003F
:10018000B7010008B7010008DFF80CD000F018F83C
:100190000048004701110008501000200648804721
:1001A00006480047FEE7FEE7FEE7FEE7FEE7FEE75C
:1001B000FEE7FEE7FEE7FEE76D1000088901000894
:1001C000064C074D06E0E06840F0010394E80700A4
:1001D00098471034AC42F6D3FFF7DAFF1411000849
:1001E0003411000800BFFEE770B50446002509E0A1
:1001F000E06810B10120E1688847681CC5B2642D31
:1002000000DD05E0D4E9011000F04CFB0028EFD13F
:1002100000BF642D01DD012070BD0025E06810B134
:100220001E20E168884709E0E06810B10120E1681C
:100230008847681CC5B2642D00DD05E0D4E90110D3
:1002400000F030FB0028EFD000BF642D01DD01205D
:10025000E2E70020E0E7000001464FF480404860FC
:1002600001488860002070470004024010B586B045
:1002700004460CB1A06810B9012006B010BD0121E0
:10028000A06800F063F960680090012001900320ED
:100290000290012003900490002005906946A06818
:1002A00000F05EFAD4E9011000F005FB0020E4E75D
:1002B00070B504460E461546204600F0CFF834B11E
:1002C0000A480068844202D12046FFF7C5FF204655
:1002D000FFF7CCFF0EB1E66001E00548E0600DB12C
:1002E000256101E003482061002070BD100000205E
:1002F000FD040008F104000810B50446D4E901101B
:1003000000F0D9FAE06810B10220E1688847D4E92A
:1003100001100A04826100BF206910B11420216914
:100320008847D4E9011000F0C6FAE06810B11E2039
:10033000E1688847002010BD7CB50446002000908D
:1003400001900025204600F080F808B101207CBD16
:10035000002506E0204600F066F80DF80500681C50
:10036000C5B2052DF6DBD4E9011000F0A4FA9DF822
:1003700000009DF8011008449DF8021008449DF803
:10038000031008449DF80410884201D00220DEE7E3
:100390009DF8000060809DF80100A17800EB01202D
:1003A00060809DF8020020809DF80300217800EB1A
:1003B000012020800020CAE770B5044600250AE02D
:1003C000E06810B10120E1688847681CC5B2642D5F
:1003D00001DD002505E0D4E9011000F063FA0028F2
:1003E000EED100BF0AE0E06810B10120E168884763
:1003F000681CC5B2642D01DD002505E0D4E90110BB
:1004000000F050FA0028EED000BFE06810B13220B2
:10041000E1688847D4E9011000F044FA08B10120EE
:1004200070BD0020FCE770B506460025002400BF23
:1004300007E06006040E3046FFF7BEFF0443681C69
:10044000C5B2082DF5DB204670BD10B50446204628
:10045000FFF752FF2046FFF7C7FE10BD0146002000
:100460000861C860488008807047704710B504462E
:10047000204600F049F810BD10B50446204600F0B3
:1004800015F810BD10B5044664B107E04FF47A705A
:1004900000F00CF80448006800F03EF9201EA4F1BA
:1004A0000104F3D110BD00001800002010B504466F
:1004B000CCB100F020FE062C03D9204600F019FB39
:1004C0000FE0012C0DD9084800680849B0FBF1F095
:1004D000401E611E6143491C00FB01F3184600F0F9
:1004E00021F800F00AFE10BD0C00002040420F0071
:1004F00010B504462046FFF7B9FF10BD10B50446FD
:100500002046FFF7B9FF10BD10B504464CB100F00E
:10051000DEFA18B9204600F0DEFA02E02046FFF7C6
:10052000B1FF10BD28B100E000BF011EA0F1010025
:10053000FAD1704770B504460D462946204600F0B2
:1005400011F870BD10B500F091F810BD70B50446FB
:100550000D4629462046FFF7EDFF70BD10B5FFF7A9
:10056000F1FF10BD70B505460C463748854208D1ED
:100570001CB1012000F0E6F802E0012000F0DAF8FA
:1005800070BD3248854208D11CB1022000F0DAF873
:1005900002E0022000F0CEF8F2E72D48854208D1B3
:1005A0001CB1042000F0CEF802E0042000F0C2F8F4
:1005B000E6E72848854208D11CB1082000F0C2F8BF
:1005C00002E0082000F0B6F8DAE72348854208D1B7
:1005D0001CB1102000F0B6F802E0102000F0AAF8DC
:1005E000CEE71E48854208D11CB1202000F0AAF8B1
:1005F00002E0202000F09EF8C2E71948854208D1A9
:100600001CB1402000F09EF802E0402000F092F87B
:10061000B6E71448854208D11CB1802000F092F85A
:1006200002E0802000F086F8AAE70F48854209D151
:100630001CB1801500F086F803E04FF4807000F0E4
:1006400079F89DE700BF9BE70000024000040240EC
:1006500000080240000C024000100240001402405A
:1006600000180240001C02400020024008B5012191
:100670001848FFF777FF01211748FFF773FF0121A3
:100680001648FFF76FFF01211548FFF76BFF0121A7
:100690001448FFF767FF01211348FFF763FF0121AB
:1006A0001248FFF75FFF01211148FFF75BFF0121AF
:1006B0001048FFF757FF4FF480400F490968014386
:1006C0000D4A1160114609680140009100BF00BF4A
:1006D00008BD000000000240000402400008024083
:1006E000000C0240001002400014024000180240BA
:1006F000001C0240002002404438024003480068C9
:100700000349097808440149086070470000002047
:100710000800002000BFFEE710B50446206808B9B5
:1007200003482060206800F0C9F8002010BD0000D8
:1007300000300040024909688143014A1160704756
:100740003038024008B5054909680143034A116081
:10075000114609680140009100BF08BD30380240D1
:10076000F0B503460A4600240021106890FAA0F074
:10077000B0FA80F47FE00125A540106800EA050189
:10078000002977D050681D6891FAA1F6B6FA86F66E
:1007900077000326BE40B54391FAA1F6B6FA86F675
:1007A000760000FA06F635431D6000BF5068012848
:1007B00002D05068022814D190689D6891FAA1F681
:1007C000B6FA86F677000326BE40B54391FAA1F645
:1007D000B6FA86F6760000FA06F635439D6000BF4D
:1007E00000BF1069DD6891FAA1F6B6FA86F67700C7
:1007F0000326BE40B54391FAA1F6B6FA86F6760016
:1008000000FA06F63543DD6000BF5068022831D19A
:1008100091FAA1F0B0FA80F0082814D250691D6A4C
:1008200091FAA1F6B6FA86F6B7000F26BE40B54398
:1008300091FAA1F6B6FA86F6B60000FA06F6354346
:100840001D6200BF16E050695D6A0E0A96FAA6F6B0
:10085000B6FA86F6B7000F26BE40B5430E0A96FAE2
:10086000A6F6B6FA86F6B60000FA06F635435D62DD
:1008700000BF00BF641C1068E04000287FF47BAF1D
:100880005068012802D05068022809D1D568106844
:100890005E68864300FB05F73E435E6000BF00BF15
:1008A0000120F0BD024610690840884201D10120B4
:1008B00070470020FCE78161704700004AF6AA21DA
:1008C000014A11607047000000300040014648684E
:1008D00000F0010070470000014908607047000007
:1008E0000C00002000BFFEE77047F0B503460C4641
:1008F00003F00701C1F10700042801D9042001E039
:10090000C1F107000646081D072801D2002000E0BB
:10091000C81E05460120B040401E2040A8400127C7
:10092000AF407F1E17403843F0BD0000024800680A
:10093000C0F30220704700000CED00E038B54FF026
:100940008050344909680143324A116011460968F0
:100950000140009100BF00BF032002462E4B1968E2
:100960004FF6FF0319402D4B0B4343EA02212A4B5C
:10097000196000BFFFF7DAFF054600221146FFF7B6
:10098000B4FF044621466FF00B0000F049F8FFF772
:10099000CDFF054600221146FFF7A7FF044621467A
:1009A0006FF00A0000F03CF8FFF7C0FF0546002298
:1009B0001146FFF79AFF044621466FF0090000F048
:1009C0002FF8FFF7B3FF054600221146FFF78DFF12
:1009D000044621466FF0040000F022F8FFF7A6FF5E
:1009E000054600221146FFF780FF044621466FF0BE
:1009F000030000F015F8FFF799FF054600221146A5
:100A0000FFF773FF044621466FF0010000F008F87D
:100A100038BD0000403802400CED00E00000FA054F
:100A200010B5002807DA0A07140E054A00F00F0374
:100A30001B1FD45403E00A07130E024A135410BDBF
:100A400018ED00E000E400E0704710B500F006F893
:100A500010BD10B5FFF7F9FF10BD000008B540202C
:100A60000C49096801430B4A1160114609680140AD
:100A7000009100BF00BF00BF0748006840F00400BD
:100A80000549086000BF00BF0348FFF71FFF0128AA
:100A9000FAD108BD3438024000080650704710B53E
:100AA00000F02EF810BD10B50446204600F054F8B2
:100AB00010BD10B500F06AF810BD10B500F0B6F822
:100AC00010BD10B50446204600F050F910BD10B519
:100AD000FFF7E5FF10BD10B504462046FFF7E3FF22
:100AE00010BD10B5FFF7E5FF10BD10B5FFF7E5FF2E
:100AF00010BD10B504462046FFF7E3FF10BD00000F
:100B00004FF0E020006900F0040068B10F48006871
:100B10004FF47A71B0FBF1F0401E4FF0E0214969CB
:100B2000884211D001207047084800684FF47A715C
:100B3000B0FBF1F00121C1EBD0004FF0E021496999
:100B4000884201D00120EEE70020ECE70C000020F5
:100B500010B5FFF7C6FF10BD10B504460948006880
:100B600068B108480068446003E007480068FFF780
:100B7000D3FD0448006840680028F6D110BD01206C
:100B8000FCE700001C0000201800002010B52648DB
:100B90000068002845D0244800680068401C2249AD
:100BA0000968086020480068C068401C1E49096840
:100BB000C8601D480068006830B91B48006880683C
:100BC000401C19490968886017480068406918B1D5
:100BD000154909684869804713480068006998B159
:100BE00011480068006910490968C96888420BD13A
:100BF0000D480068806938B100200B490968C86059
:100C0000094909688869804707480068406830B129
:100C1000054800684068401E034909684860002094
:100C200010BD0120FCE700001C0000202DE9F04170
:100C30003848006800F086F800F08EF8364A4FF425
:100C40007A711068B0FBF1F2521E4FF0E0235A6146
:100C500000229A6105221A6100BF032002462F4B31
:100C600019684FF6FF0319402D4B0B4343EA02214D
:100C70002A4B196000BF011F1B68C3F30220002428
:100C800025460346C3F1070CBCF1040F02D94FF00F
:100C9000040C01E0C3F1070C674603F1040CBCF13E
:100CA000070F02D24FF0000C01E0A3F1030C6646DF
:100CB0004FF0010C0CFA07FCACF1010C0CEA040C2F
:100CC0000CFA06FC4FF0010808FA06F8A8F1010832
:100CD00008EA05084CEA080200BF002908DA1007F4
:100CE000040E0E480C3001F00F031B1FC45403E028
:100CF0001007030E0B48435400BF00F019F8012001
:100D00000949087009480349096848610020BDE89D
:100D1000F08100001C0000200C0000200CED00E021
:100D20000000FA0500E400E008000020FD060008CD
:100D30004FF0E020006940F002004FF0E021086130
:100D40000020704701460020086048608860C86045
:100D500008614861886170474FF0E020006920F029
:100D600002004FF0E0210861002070472DE9F041BA
:100D700004464FF0E02045690669876904204FF07A
:100D8000E0210861134800681349B0FBF1F0401EF0
:100D900060434FF0E0214861002088610846006907
:100DA00040F00100086103E00C480068FFF7B4FC64
:100DB0004FF0E020006900F480300028F4D00420D7
:100DC0004FF0E02108610846456187610661002017
:100DD000BDE8F0810C00002040420F001800002008
:100DE00010B500F019F8FFF7A9FDFFF7B7FBFFF703
:100DF0007CFEFFF72EFE054A054906480068FFF70E
:100E000057FA04480068FFF797FA10BDF10400088C
:100E1000FD0400081000002070B50520864909680F
:100E200021F00F010143844A116000BF00BF10464A
:100E3000006800F00F00052803D011217FA000F00A
:100E400049F94FF480408449096821F48041014305
:100E5000814A116000BF00BF8048006840F48030C4
:100E60007E49086000BF00BF00BF7C480068C0F337
:100E700040400028F8D000BF78487430006840F047
:100E8000010076497431086000BF00BF00BF73489D
:100E900074300068C0F340000028F7D000BF6E48EF
:100EA000006840F480706C49086000BF00BF6B4868
:100EB0007030006840F4803068497031086000BFCD
:100EC00000BF0846006820F48030086000BF4FF47F
:100ED0004070096821F440710143604A703211602A
:100EE00000BF4FF400205D490831096821F4F81172
:100EF00001435A4A0832116000BF00BF57487030A2
:100F0000006840F4004055497031086000BF4FF45C
:100F100080000421A822002340EA010444EA82144C
:100F20004E4D2D1D2D684E4E35402C434B4D2D1DE5
:100F30002C602C46246824F440341C432C6000BFF1
:100F40004FF0E06340EA010444EA82141C432D6838
:100F5000444E35402C43414D2D1D2C6000BF00BF39
:100F6000281F006840F08070291F086000BF00BF84
:100F700000BF3A480068C0F340600028F8D0002065
:100F800036490831096821F0F0010143334A08323B
:100F9000116000BF4FF4A0501146096821F4E051E0
:100FA0000143116000BF4FF400401146096821F46D
:100FB00060410143116000BF02201146096821F021
:100FC00003010143116000BF00BF00BF2348083088
:100FD000006800F00C000828F7D10420042808D18C
:100FE0004FF0E021096941F004014FF0E022116166
:100FF00007E04FF0E021096921F004014FF0E02201
:10100000116100BF1848FFF767FC00BF0A4800687D
:1010100040F480700849086000BF00BF08460068BF
:1010200040F48060086000BF00BF0846006840F4DC
:101030000070086000BF70BD003C02402E2E5C4175
:1010400070706C69636174696F6E5C4150505C6D67
:1010500061696E2E6300000000700040003802409D
:101060000080BFFF0080BFF0007A030A14480068C8
:1010700040F47000124908601248006840F0010016
:101080001049086000200F49083108600D480068C9
:101090000D4908400B4908600C48091D0860081FED
:1010A000006820F48020091F0860002005490C31E9
:1010B00008604FF000600249803908607047000006
:1010C00088ED00E000380240FFFFF6FE10300024FB
:1010D00000BFFEE700BFFEE702E008C8121F08C11C
:1010E000002AFAD170477047002001E001C1121FA9
:1010F000002AFBD1704772B6704762B67047000095
:10110000FFF76EFE03E002480068FFF715F9FAE703
:101110001000002034110008000000202000000012
:10112000D8100008541100082000002030100000E2
:10113000E81000080000000010000000010000009E
:101140000024F400200000200030004014000020A3
:041150003400002047
:040000050800018965
:00000001FF
