:020000040800F2
:10000000581000209D010008E7070008210600089D
:10001000E5070008E5010008010D000800000000E8
:100020000000000000000000000000000B090008B4
:100030002304000800000000090900086509000801
:10004000B7010008B7010008B7010008B7010008B0
:10005000B7010008B7010008B7010008B7010008A0
:10006000B7010008B7010008B7010008B701000890
:10007000B7010008B7010008B7010008B701000880
:10008000B7010008B7010008B7010008B701000870
:10009000B7010008B7010008B7010008B701000860
:1000A000B7010008B7010008B7010008B701000850
:1000B000B7010008B7010008B7010008B701000840
:1000C000B7010008B7010008B7010008B701000830
:1000D000B7010008B7010008B7010008B701000820
:1000E000B7010008B7010008B7010008B701000810
:1000F000B7010008B7010008B7010008B701000800
:10010000B7010008B7010008B7010008B7010008EF
:10011000B7010008B7010008B7010008B7010008DF
:10012000B7010008B7010008B7010008B7010008CF
:10013000B7010008B7010008B7010008B7010008BF
:10014000B7010008B7010008B7010008B7010008AF
:10015000B7010008B7010008B7010008B70100089F
:10016000B7010008B7010008B7010008B70100088F
:10017000B7010008B7010008B7010008000000003F
:10018000B7010008B7010008DFF80CD000F018F83C
:10019000004800472D0D00085810002006488047F1
:1001A00006480047FEE7FEE7FEE7FEE7FEE7FEE75C
:1001B000FEE7FEE7FEE7FEE7AD0C00088901000858
:1001C000064C074D06E0E06840F0010394E80700A4
:1001D00098471034AC42F6D3FFF7DAFF500D000811
:1001E000700D0008FEE700F04FB800F08FB8FFF781
:1001F000FABFFFF7FABF70B50446002507E0216992
:1002000009B1012088476D1CEDB2C82D19D8D4E979
:10021000021000F0DAFA0028F1D1C82D11D800251B
:1002200007E0216909B1012088476D1CEDB2C82D96
:1002300007D8D4E9021000F0C8FA0028F1D0C82D80
:1002400001D9012070BD002070BD10B586B004003A
:1002500018D0E068B0B1012100F03BF9A06800902F
:1002600001200221CDE901010390049000200590B6
:100270006946E06800F01CFAD4E9020188610020B8
:1002800006B010BD0120FBE770B515460E460446CA
:1002900000F0C0F844B10C480068844204D14FF427
:1002A0008040A0600948E0602046FFF7CEFF0EB115
:1002B000266101E0064820610DB1656101E0054855
:1002C0006061002070BD00001000002000040240AA
:1002D000990400089504000810B50446D4E9020109
:1002E0008861216909B1022088472089E1680004FA
:1002F0008861616909B114208847D4E902018861E5
:10030000216909B11E208847002010BD7CB5054633
:100310000020009004460190284600F072F808B1D1
:1003200001207CBD6E46284600F05CF83055641C08
:10033000E4B2052CF7D3D5E9020188619DF80000ED
:100340009DF801309DF802109DF80320C4188E1806
:1003500034449DF80460B44201D002207CBD00EB1F
:100360004004C4EBC01003EBC000686001EB410027
:10037000C0EBC11002EBC000286000207CBD70B54E
:100380000446002509E0216909B1012088476D1C58
:10039000EDB2962D01D9002505E0D4E9021000F058
:1003A00014FA0028EFD1216951B10A20884707E0EB
:1003B000216909B1012088476D1CEDB2962D05D841
:1003C000D4E9021000F001FA0028F1D0216909B146
:1003D00032208847D4E9021000F0F7F9002800D055
:1003E000012070BD70B50646002420464006050E6B
:1003F0003046FFF7C4FF641C2843E4B2082CF5D351
:1004000070BD10B50446FFF767FF2046BDE81040F9
:10041000FFF7F1BE002141610161416001600846C2
:100420007047704700F03AB800F012B870B5040099
:100430000BD0064D4FF47A76641E06D3304600F09A
:1004400007F8286800F014F9F6E770BD08000020EE
:1004500010B5040019D000F064FC062C03D9204626
:1004600000F066FA0DE0012C0BD908480849006835
:10047000B0FBF1F0611E6143401E491C484300F08F
:100480001EF8BDE8104000F04EBC10BD000000207A
:1004900040420F00FFF7C6BFFFF7C6BF10B504000C
:1004A0000CD000F03DFA0028204603D0BDE81040F3
:1004B000FFF7BCBFBDE8104000F034BA10BD08B96A
:1004C000704700BF401EFCD2704700F007B800F034
:1004D0005BB8FFF7FABFFFF7FABF0000214A90426E
:1004E00003D14FF0010089BB38E01F4A904203D18D
:1004F0004FF0020051BB31E01C4A904203D14FF053
:10050000040019BB2AE01A4A904203D14FF00800B8
:10051000E1B923E0174A904203D14FF01000A9B986
:100520001CE0154A904203D14FF0200071B915E04C
:10053000124A904203D14FF0400039B90EE0104A00
:10054000904204D14FF0800001B907E004E00D4A69
:10055000904205D1801509B100F09EB800F094B822
:100560007047000000000240000402400008024002
:10057000000C02400010024000140240001802402B
:10058000001C02400020024008B501211648FFF778
:10059000A5FF01211548FFF7A1FF01211448FFF72E
:1005A0009DFF01211348FFF799FF01211248FFF732
:1005B00095FF01211148FFF791FF01211048FFF736
:1005C0008DFF01210F48FFF789FF01210E48FFF73A
:1005D00085FF0E48016841F480410160006800F425
:1005E0008040009008BD000000000240000402406E
:1005F00000080240000C02400010024000140240BB
:1006000000180240001C0240002002404438024012
:10061000024881680278114481607047140000200C
:10062000FEE700F003B8FFF7FCBF000070B504461A
:1006300000680E4D00B9256000F073FB4CF6CC400D
:10064000286045F2555028602068042141602068E8
:1006500040F2712181602068C1688907FCD14AF6A7
:10066000AA20286000F05FFB002070BD0030004031
:100670000449026802B901604AF6AA200860002015
:10068000704700000030004002490A6882430A6057
:100690007047000030380240044908B50A68024338
:1006A0000A6009680140009108BD0000303802402E
:1006B000F0B50A68032492FAA2F2B2FA82F34FF07C
:1006C0000F0E70E001259D402A406BD04D680668F2
:1006D00092FAA2F7B7FA87F74FEA470C04FA0CF739
:1006E000BE4392FAA2F7B7FA87F77F00BD402E43C8
:1006F00006604D68012D01D0022D12D18D688668EB
:1007000092FAA2F7B7FA87F74FEA470C04FA0CF708
:10071000BE4392FAA2F7B7FA87F77F00BD402E4397
:1007200086600D69C66892FAA2F7B7FA87F77F006C
:1007300004FA07FC92FAA2F7B7FA87F77F0026EAD5
:100740000C06BD402E43C6604D68022D2AD192FA98
:10075000A2F5B5FA85F5082D4D6911D2066A92FA0F
:10076000A2F7B7FA87F7BF000EFA07F792FAA2F2DC
:10077000B2FA82F29200BE4395402E43066211E027
:10078000466A120A92FAA2F7B7FA87F7BF000EFA82
:1007900007F792FAA2F2B2FA82F29200BE439540B3
:1007A0002E4346625B1C0A6832FA03F58AD14A6816
:1007B000012A01D0022A06D10A68C9684368934316
:1007C0004A43134343600120F0BD0069814301D0D7
:1007D0000020704701207047014908607047000001
:1007E00000000020FEE7704730B500F00703C3F1BA
:1007F0000704042C00D90424181D072801D2002363
:1008000000E0DB1E012505FA04F0401E0840984078
:100810009D406D1E1540284330BD00000248006811
:10082000C0F30220704700000CED00E02B4808B533
:10083000016841F0805101600068294900F0805052
:10084000009008684FF6FF021040264A40F44070BE
:1008500010430860FFF7E2FF00221146FFF7C4FFD4
:1008600001466FF00B0000F03FF8FFF7D7FF0022C2
:100870001146FFF7B9FF01466FF00A0000F034F8A7
:10088000FFF7CCFF00221146FFF7AEFF01466FF0E5
:10089000090000F029F8FFF7C1FF00221146FFF719
:1008A000A3FF01466FF0040000F01EF8FFF7B6FF4B
:1008B00000221146FFF798FF01466FF0030000F099
:1008C00013F8FFF7ABFF00221146FFF78DFF01463B
:1008D000BDE808406FF0010000F006B84038024063
:1008E0000CED00E00000FA050907090E002806DA01
:1008F00000F00F0000F1E02080F8141D704700F1B7
:10090000E02080F8001470477047704700F012B87C
:1009100000F02AB800F03EB800F064B800F0C2B8A9
:10092000FFF7F4BFFFF7F4BFFFF7F4BFFFF7F4BF23
:10093000FFF7F4BF4FF0E02108694207084800685C
:1009400002D54FF47A7201E04FF4FA52B0FBF2F0A4
:100950004969401E884201D001207047002070473D
:1009600000000020FFF7E0BF70B5084C216851B1CE
:10097000074D486002E02868FFF77AFE206840686B
:100980000028F8D170BD012070BD00000C000020CF
:100990000800002010B5124C2068F8B10168491C0D
:1009A0000160C26802F10102C26002D18168491C83
:1009B0008160406900B180472068016939B1C2682F
:1009C000914204D1816911B10022C2608847216837
:1009D000486808B1401E4860002010BD012010BDCD
:1009E0000C0000201B4A10B5106800F049F800F018
:1009F00051F819484FF47A710068B0FBF1F14FF0EB
:100A0000E020491E416100218161052303611348F3
:100A100003684FF6FF042340114C43F44073234313
:100A200003600068C0F30220031D072B01D20020E1
:100A300000E0C01E814008010A49012381F8140D1D
:100A400000F016F808480370116808484861002053
:100A500010BD00000C000020000000200CED00E0A4
:100A60000000FA050FE000E0140000201106000865
:100A70004FF0E020016941F0020101610020704760
:100A80000021016041608160C1600161416181615B
:100A9000084670474FF0E020016921F00201016132
:100AA000002070472DE9F0474FF0E0246769266980
:100AB000A5694FF00408C4F810801049104A09686D
:100AC000B1FBF2F1491E414361610020A061206940
:100AD00040F001002061DFF82C9003E0D9F800001D
:100AE000FFF7C6FD2069C003F8D5C4F81080676120
:100AF000A56126610020BDE8F0870000000000200D
:100B000040420F000800002010B500F01DF8FFF76C
:100B10008DFEFFF7E0FCFFF709FF094C064A074985
:100B20002068FFF764FB2068FFF763FB0548006857
:100B3000BDE81040FFF777BD950400089904000850
:100B4000100000200800002070B5494C206820F0FB
:100B50000F0040F005002060206800F00F0005281D
:100B600003D0112143A000F0CCF8494B186840F4A1
:100B700080401860474A106840F480301060106868
:100B8000C0F340400028FAD042487430016841F078
:100B9000010101600168C1F340010029FAD0186821
:100BA00040F4807018603B497031086840F4803030
:100BB0000860086820F480300860086840F44070DD
:100BC000086034480830036823F4F81343F4002322
:100BD00003600B6843F400430B60011F2E4B0D684C
:100BE0002E4E35402B430B600B6823F440330B60D3
:100BF0002B4B0D682B4E35402B430B60116841F099
:100C0000807111601168C1F340610029FAD0016858
:100C100021F0F0010160016821F4E05141F4A0519C
:100C20000160016821F4604141F400410160016804
:100C300021F0030141F002010160016801F00C01A3
:100C40000829FAD14FF0E020016941F00401016167
:100C50001548FFF7C1FD206840F4807020602068CF
:100C600040F480602060206840F40070206070BD17
:100C7000003C02402E2E5C4170706C6963617469A7
:100C80006F6E5C4150505C6D61696E2E63000000B8
:100C90000070004000380240042A40000080BFFF7E
:100CA000042A40070080BFF0007A030A1048016858
:100CB00041F4700101600F48016841F001010160D9
:100CC0000C4A00210832116002680B4B1A40026086
:100CD000031D0A4A1A60026822F480220260054855
:100CE0000C300160024958068039086070470000E6
:100CF00088ED00E000380240FFFFF6FE10300024CF
:100D0000FEE7FEE702E008C8121F08C1002AFAD178
:100D100070477047002001E001C1121F002AFBD17B
:100D2000704772B6704762B670470000FFF7ECFE7E
:100D3000064C4FF4FA752846FFF7ACFB2846FFF740
:100D4000A9FB2068FFF794FCF5E7000008000020ED
:100D5000700D00080000002020000000040D0008B5
:100D6000900D00082000002038100000140D00082D
:100D70000024F40000300040040000202000002087
:100D80003C000020010000001000000000000000F6
:040000050800018965
:00000001FF
