:020000040800F2
:10000000C81400209D010008C90F00085D0A0008FF
:10001000C50F000801070008AD250008000000001A
:10002000000000000000000000000000491200086D
:1000300009080008000000002911000895120008B6
:10004000B7010008B7010008B7010008B7010008B0
:10005000B7010008B7010008B7010008B7010008A0
:10006000B7010008B7010008B7010008B701000890
:10007000B7010008B7010008B7010008B701000880
:10008000B7010008B7010008B7010008B701000870
:10009000B7010008B7010008B7010008B701000860
:1000A000B7010008B7010008B7010008B701000850
:1000B000B7010008B7010008B7010008B701000840
:1000C000B7010008B7010008B7010008B701000830
:1000D000B701000879170008B7010008B701000848
:1000E000B7010008B7010008B7010008B701000810
:1000F000B7010008B7010008B7010008B701000800
:10010000B7010008B7010008B7010008B7010008EF
:10011000B7010008B7010008B7010008B7010008DF
:10012000B7010008B7010008B7010008B7010008CF
:10013000B7010008B7010008B7010008B7010008BF
:10014000B7010008B7010008B7010008B7010008AF
:10015000B7010008B7010008B7010008B70100089F
:10016000B7010008B7010008B7010008B70100088F
:10017000B7010008B7010008B7010008000000003F
:10018000ED090008B7010008DFF80CD000F0A6FA6E
:1001900000480047C92E0008C814002006488047C0
:1001A00006480047FEE7FEE7FEE7FEE7FEE7FEE75C
:1001B000FEE7FEE7FEE7FEE71517000889010008E5
:1001C0002DE9F05F0546002092469B46884606468C
:1001D000814640241BE0284641464746224600F01F
:1001E0005BF953465A46C01A914110D3114618463E
:1001F000224600F042F92D1A67EB01084F462246CD
:100200000120002100F039F917EB00094E41201EB2
:10021000A4F10104DFDC484631462A464346BDE8E6
:10022000F09F2DE9FE4F804681EA0300C00F0C4687
:10023000009021F0004123F00045B8EB0200A941F5
:1002400005D24046214690461C460B46024623F006
:100250000040104347D0270DC7F30A00C3F30A51EB
:100260000290401A019040286BDAC3F3130040F467
:10027000801B0098924620B10023D2EB030A63EB67
:100280000B0B01985946C0F14002504600F0F5F8BA
:1002900006460D4650465946019A00F00DF910EBFE
:1002A00008006141002487EA115284EAE7731A4387
:1002B00040D0009A62B3019A012A4FEA075215DC36
:1002C000001B61EB02014FF0004202EA0752CDE948
:1002D0000042001C41F5801132462B4600F00DF91A
:1002E00003B0BDE8F08F40462146F9E7001B61EB03
:1002F0000201001C41F5801300185B412018A2F593
:10030000001747EB030140EAD570B6196D4111E0C3
:100310006D084FEA360645EAC0754FEA0752001BE2
:1003200061EB0201001C41F5801149084FEA3000E1
:100330000019514132462B4603B0BDE8F04F00F0A2
:10034000CDB80098012240000023D0EB020263EBFD
:10035000E073009821464FEAE074B8EB000061EBCF
:100360000401E9E783F000435BE781F0004158E7CF
:100370002DE9F04D81EA030404F0004B21F0004523
:1003800014464FF0000A23F0004150EA050220D045
:1003900054EA01021DD0C5F30A570246C5F3130300
:1003A000C1F31300C1F30A5640F4801543F48013DF
:1003B000A7EB0608101BD64608F2FD3873EB0500C4
:1003C00002D308F1010801E092185B41B8F1000F77
:1003D00003DA00200146BDE8F08D00204FF48011C3
:1003E000064684460EE0171B73EB050705D3121B68
:1003F00063EB050306434CEA010C49084FEA300061
:1004000092185B4150EA0107EDD152EA030012D085
:1004100082EA040083EA0501084305D0101BAB41C2
:1004200006D20122002306E000224FF0004302E042
:100430006FF0010253101AEB06004CEB085110EB61
:100440000A0041EB0B01BDE8F04D00F047B830B5B4
:100450000B46014600202022012409E021FA02F582
:100460009D4205D303FA02F5491B04FA02F528441C
:10047000151EA2F10102F1DC30BD202A04DB203A76
:1004800000FA02F1002070479140C2F1200320FAE7
:1004900003F3194390407047202A04DB203A21FAE5
:1004A00002F00021704721FA02F3D040C2F120028D
:1004B0009140084319467047202A06DBCB17203AA3
:1004C00041FA02F043EAE07306E041FA02F3D04059
:1004D000C2F12002914008431946704710B5141E1E
:1004E00073F1000408DA401C41F1000192185B41ED
:1004F0001A4301D120F0010010BD2DE9F04D9246C4
:100500009B4611B1B1FA81F202E0B0FA80F22032DA
:100510009046FFF7B2FF04460F4640EA0A0041EA60
:100520000B0153465A46084313D0114653EA0100C3
:1005300019D0C8F140025046FFF7AEFF05460E46FF
:10054000504659464246FFF798FF084305D0012020
:1005500004E020463946BDE8F08D0020054346EA18
:10056000E0762C4337430A986305E40AA0EB0800C1
:100570000022FD0A44EA47540A3002D50020014611
:10058000E9E7010510196941DDE9084500196941EC
:10059000BDE8F04DA2E72DE9FE4F81EA030404F027
:1005A000004421F0004100944FF0000B23F0004381
:1005B00050EA01045ED052EA03045BD0C3F30A544C
:1005C000C1F30A552C44A4F2F3340194A0FB025465
:1005D000C1F3130141F48011C3F3130343F48013F7
:1005E00001FB024400FB034E840A970A44EA81544B
:1005F00047EA8357A4FB076802958D0A05FB078528
:100600004FEA932C04FB0C542705029D4FEA065831
:1006100047EA1637B5EB08056EEB070C870E920E0E
:1006200047EA811742EA8312A7FB0201B6EB0B01EE
:1006300064EB00042B0D43EA0C335E1844EB1C50B2
:10064000DA465146E7FB0201C5F313044FEA0B33C8
:1006500043EA14534FEA0432019C43EA0603A4F12F
:100660000C040294009CCDE900B4FFF746FF03B0F0
:10067000BDE8F08F00200146F9E7C1F30A52C1F34B
:10068000130140F2FF3341F480119A4202DA002054
:100690000146704740F233439A42A2F2334202DCF1
:1006A0005242FFF7F9BEFFF7E8BE000030B5041E66
:1006B00071F1000404DB4FF00044404264EB01019F
:1006C000141E73F1000405DB1C464FF00043524238
:1006D00063EB0403994208BF904230BD064C074DBE
:1006E00006E0E06840F0010394E807009847103402
:1006F000AC42F6D3FFF74CFD042F0008242F00086E
:1007000000BFFEE770B504460D460848006850B1CA
:1007100006480068806830B104480068294682684D
:100720002046904770BD0020FCE700003C00002000
:1007300070B504460D460848006850B10648006888
:10074000406830B104480068294642682046904716
:1007500070BD0020FCE700003C00002070B504469E
:100760000D460848006850B106480068C06830B1BE
:10077000044800682946C2682046904770BD0020A2
:10078000FCE700003C00002070B504460D46084818
:10079000006850B106480068006930B1044800683C
:1007A000294602692046904770BD0020FCE7000002
:1007B0003C00002001480068007870473C000020A1
:1007C00070B504460D4629462046FFF79BFF70BDD5
:1007D00070B504460D4629462046FFF7A9FF70BDB7
:1007E00070B504460D4629462046FFF7B7FF70BD99
:1007F00070B504460D4629462046FFF7C5FF70BD7B
:1008000010B5FFF7D7FF10BD704770B504460D4611
:100810002946204600F012F870BD10B500F092F89D
:1008200010BD70B504460D4629462046FFF7EDFF82
:1008300070BD10B5FFF7F1FF10BD000070B50546A3
:100840000C463748854208D11CB1012000F01EF942
:1008500002E0012000F012F970BD3248854208D153
:100860001CB1022000F012F902E0022000F006F9AB
:10087000F2E72D48854208D11CB1042000F006F9AA
:1008800002E0042000F0FAF8E6E72848854208D1A3
:100890001CB1082000F0FAF802E0082000F0EEF8A1
:1008A000DAE72348854208D11CB1102000F0EEF8A9
:1008B00002E0102000F0E2F8CEE71E48854208D1A1
:1008C0001CB1202000F0E2F802E0202000F0D6F871
:1008D000C2E71948854208D11CB1402000F0D6F883
:1008E00002E0402000F0CAF8B6E71448854208D17B
:1008F0001CB1802000F0CAF802E0802000F0BEF8B1
:10090000AAE70F48854209D11CB1801500F0BEF856
:1009100003E04FF4807000F0B1F89DE700BF9BE763
:10092000000002400004024000080240000C0240A7
:10093000001002400014024000180240001C024057
:100940000020024008B501211848FFF777FF012178
:100950001748FFF773FF01211648FFF76FFF0121CA
:100960001548FFF76BFF01211448FFF767FF0121CE
:100970001348FFF763FF01211248FFF75FFF0121D2
:100980001148FFF75BFF01211048FFF757FF4FF4B5
:1009900080400F49096801430D4A116011460968FA
:1009A0000140009100BF00BF08BD000000000240F0
:1009B0000004024000080240000C02400010024007
:1009C0000014024000180240001C024000200240B7
:1009D0004438024003480068034909780844014943
:1009E00008607047040000200C00002000BF194878
:1009F0004068C0F38010A0B100BF6FF040001549FF
:100A0000486000BF00BF0846006820F0040008608E
:100A100000BF00BF0846006840F00400086000BF47
:100A200000BF00BF0B484068C0F3401030B100BFAA
:100A30006FF020000749486000BF00BF00BF0548B5
:100A4000406800F0010020B100BF02488068024900
:100A500008607047000806504800002000BFFEE70D
:100A600010B50446206808B903482060206800F0EB
:100A70001DF9002010BD0000003000400249096847
:100A80008143014A116070473038024008B505497A
:100A900009680143034A1160114609680140009149
:100AA00000BF08BD30380240024909688143014A4D
:100AB000116070474038024008B505490968014394
:100AC000034A1160114609680140009100BF08BD4A
:100AD00040380240024909680143014A11607047E9
:100AE00020380240024909688143014A1160704779
:100AF00020380240024909688143014A1160704769
:100B00004438024008B5054909680143034A1160A9
:100B1000114609680140009100BF08BD44380240F9
:100B2000024909680143014A1160704724380240B4
:100B3000024909688143014A116070472438024024
:100B4000F0B503460A4600240021106890FAA0F090
:100B5000B0FA80F47FE00125A540106800EA0501A5
:100B6000002977D050681D6891FAA1F6B6FA86F68A
:100B700077000326BE40B54391FAA1F6B6FA86F691
:100B8000760000FA06F635431D6000BF5068012864
:100B900002D05068022814D190689D6891FAA1F69D
:100BA000B6FA86F677000326BE40B54391FAA1F661
:100BB000B6FA86F6760000FA06F635439D6000BF69
:100BC00000BF1069DD6891FAA1F6B6FA86F67700E3
:100BD0000326BE40B54391FAA1F6B6FA86F6760032
:100BE00000FA06F63543DD6000BF5068022831D1B7
:100BF00091FAA1F0B0FA80F0082814D250691D6A69
:100C000091FAA1F6B6FA86F6B7000F26BE40B543B4
:100C100091FAA1F6B6FA86F6B60000FA06F6354362
:100C20001D6200BF16E050695D6A0E0A96FAA6F6CC
:100C3000B6FA86F6B7000F26BE40B5430E0A96FAFE
:100C4000A6F6B6FA86F6B60000FA06F635435D62F9
:100C500000BF00BF641C1068E04000287FF47BAF39
:100C60005068012802D05068022809D1D568106860
:100C70005E68864300FB05F73E435E6000BF00BF31
:100C80000120F0BD30B5036891FAA1F4B4FA84F400
:100C900065000324AC40A34391FAA1F4B4FA84F4B0
:100CA000640002FA04F42343036030BD4AF6AA212B
:100CB000014A1160704700000030004010B5044642
:100CC00000F068FA2060206800F030FA6060606828
:100CD00000F03CFAA060606800F04AFAE06010BDE5
:100CE00002480068C0F388107047000004380240D2
:100CF00001490860704700000000002070B50446FC
:100D000001252348844206D11020FFF709FF102057
:100D1000FFF70EFF3AE01F48844208D14FF400303D
:100D2000FFF7D8FE4FF40030FFF7DCFE2EE01A4844
:100D3000844208D14FF48020FFF7CCFE4FF480208E
:100D4000FFF7D0FE22E01548844206D12020FFF7AD
:100D5000E7FE2020FFF7ECFE18E01148844208D19E
:100D60004FF40020FFF7B6FE4FF40020FFF7BAFE65
:100D70000CE00C48844208D14FF48010FFF7AAFE23
:100D80004FF48010FFF7AEFE00E00025284670BD4E
:100D900000100140004400400048004000140140A1
:100DA000004C004000500040C16841F02001C1608B
:100DB000704700002DE9FF4104460D46002700263C
:100DC000204600F059F8002845D1E96868680843D2
:100DD00029690843A9690843E16849F20C62914313
:100DE0000843E060A868216921F440510143216172
:100DF00000BF6869616921F440710143616100BF0E
:100E00006846FFF75BFF1648844201D1039E17E056
:100E10001448844201D1029E12E01348844201D159
:100E2000029E0DE01148844201D1039E08E0104863
:100E3000844201D1029E03E00E48844200D1029E0A
:100E40004EB1286838B10127314620462B68AA697F
:100E500000F017F800BF384604B0BDE8F08100008C
:100E600000100140004400400048004000140140D0
:100E7000004C0040005000400146C868C0F34030BC
:100E80007047F0B5B2F5004F4ED101EBC10404EB51
:100E900001145D00B4FBF5F46425B4FBF5F4250101
:100EA00001EBC10404EB01145E00B4FBF6F401EBAA
:100EB000C10606EB01165F00B6FBF7F66427B6FB2A
:100EC000F7F606EBC60707EB0616A4EB86043226F8
:100ED00006EBC4046426B4FBF6F404F0F80405EB56
:100EE000440501EBC10404EB01145E00B4FBF6F40D
:100EF00001EBC10606EB01165F00B6FBF7F66427AF
:100F0000B6FBF7F606EBC60707EB0616A4EB86045E
:100F1000322606EBC4046426B4FBF6F404F007049E
:100F20002C44A4B284604CE001EBC10404EB011436
:100F30009D00B4FBF5F401EBC10505EB01159E0026
:100F4000B5FBF6F56426B5FBF6F505EBC50606EB35
:100F50000515A4EB8504322505EB04146425B4FBC8
:100F6000F5F404F0F00401EBC10505EB01159E005A
:100F7000B5FBF6F56426B5FBF6F504EB051501EBBC
:100F8000C10404EB01149E00B4FBF6F401EBC106AE
:100F900006EB01169F00B6FBF7F66427B6FBF7F6E3
:100FA00006EBC60707EB0616A4EB8604322606EB13
:100FB00004146426B4FBF6F404F00F042C44A4B229
:100FC0008460F0BD00BFFEE77047F0B503460C46F5
:100FD00003F00701C1F10700042801D9042001E052
:100FE000C1F107000646081D072801D2002000E0D5
:100FF000C81E05460120B040401E2040A8400127E1
:10100000AF407F1E17403843F0BD00000248006823
:10101000C0F30220704700000CED00E038B54FF03F
:101020008050344909680143324A11601146096809
:101030000140009100BF00BF032002462E4B1968FB
:101040004FF6FF0319402D4B0B4343EA02212A4B75
:10105000196000BFFFF7DAFF054600221146FFF7CF
:10106000B4FF044621466FF00B0000F049F8FFF78B
:10107000CDFF054600221146FFF7A7FF0446214693
:101080006FF00A0000F03CF8FFF7C0FF05460022B1
:101090001146FFF79AFF044621466FF0090000F061
:1010A0002FF8FFF7B3FF054600221146FFF78DFF2B
:1010B000044621466FF0040000F022F8FFF7A6FF77
:1010C000054600221146FFF780FF044621466FF0D7
:1010D000030000F015F8FFF799FF054600221146BE
:1010E000FFF773FF044621466FF0010000F008F897
:1010F00038BD0000403802400CED00E00000FA0569
:1011000010B5002807DA0A07140E054A00F00F038D
:101110001B1FD45403E00A07130E024A135410BDD8
:1011200018ED00E000E400E070470000014600BF59
:101130000448006800F0F0000009034A125C21FA3C
:1011400002F0704708380240EC2E0008014600BF4C
:101150000548006800F4E050044A02EB9020027851
:1011600021FA02F07047000008380240FC2E000807
:10117000014600BF0548006800F46040044A02EBE5
:101180005030027821FA02F070470000083802401F
:10119000FC2E000810B5002400BF0C48006800F0C9
:1011A0000C0020B1042804D0082809D103E0084C21
:1011B00008E0084C06E0082000F00EF8044601E0C4
:1011C000034C00BF00BF204610BD0000083802409D
:1011D0000024F40000127A002DE9F04104460025B5
:1011E0000026002700BF1548006800F4800006466E
:1011F0001EB1B6F5800F04D101E0114D03E0114D91
:1012000001E00F4D00BF00BF082C14D100BF0B48F8
:10121000006800F03F00B5FBF0F8FFF761FD08FB48
:1012200000F80648006800F44030012101EB10404E
:101230004000B8FBF0F73846BDE8F08104380240C2
:101240000024F40000127A00704710B500F016F880
:1012500010BD10B500F022F810BD10B500F06EF80A
:1012600010BD10B5FFF7F1FF10BD10B5FFF7F1FF8E
:1012700010BD10B5FFF7F1FF10BD00000448006875
:1012800018B103480068006870470020FCE70000C0
:101290004C00002010B5FFF7E8FF10BD10B5264840
:1012A0000068002845D0244800680068401C224996
:1012B0000968086020480068C068401C1E49096829
:1012C000C8601D480068006830B91B480068806825
:1012D000401C19490968886017480068406918B1BE
:1012E000154909684869804713480068006998B142
:1012F00011480068006910490968C96888420BD123
:101300000D480068806938B100200B490968C86041
:10131000094909688869804707480068406830B112
:10132000054800684068401E03490968486000207D
:1013300010BD0120FCE700004C0000202DE9F04129
:101340003848006800F086F800F08EF8364A4FF40E
:101350007A711068B0FBF1F2521E4FF0E0235A612F
:1013600000229A6105221A6100BF032002462F4B1A
:1013700019684FF6FF0319402D4B0B4343EA022136
:101380002A4B196000BF011F1B68C3F30220002411
:1013900025460346C3F1070CBCF1040F02D94FF0F8
:1013A000040C01E0C3F1070C674603F1040CBCF127
:1013B000070F02D24FF0000C01E0A3F1030C6646C8
:1013C0004FF0010C0CFA07FCACF1010C0CEA040C18
:1013D0000CFA06FC4FF0010808FA06F8A8F101081B
:1013E00008EA05084CEA080200BF002908DA1007DD
:1013F000040E0E480C3001F00F031B1FC45403E011
:101400001007030E0B48435400BF00F019F80120E9
:101410000949087009480349096848610020BDE886
:10142000F08100004C000020000000200CED00E0E6
:101430000000FA0500E400E00C000020D5090008D7
:101440004FF0E020006940F002004FF0E021086119
:101450000020704701460020086048608860C8602E
:1014600008614861886170474FF0E020006920F012
:1014700002004FF0E0210861002070471FB500F026
:101480001FF8FFF7CBFDFFF7D4F9FFF7F2FE08488E
:101490000021084A1023CDE90032CDE902100123D2
:1014A000054A10210548006800F04AFE1FBD0000F3
:1014B0006312000858000020100000205000002097
:1014C00070B505208649096821F00F010143844A5F
:1014D000116000BF00BF1046006800F00F00052833
:1014E00003D017217FA001F063F84FF480408449B6
:1014F000096821F480410143814A116000BF00BFA7
:101500008048006840F480307E49086000BF00BF1A
:1015100000BF7C480068C0F340400028F8D000BFFE
:1015200078487430006840F00100764974310860F2
:1015300000BF00BF00BF734874300068C0F34000B4
:101540000028F7D000BF6E48006840F480706C49F6
:10155000086000BF00BF6B487030006840F4803006
:1015600068497031086000BF00BF0846006820F479
:101570008030086000BF4FF44070096821F440716A
:101580000143604A7032116000BF4FF400205D4992
:101590000831096821F4F81101435A4A08321160F0
:1015A00000BF00BF57487030006840F40040554904
:1015B0007031086000BF4FF480000421A82200238E
:1015C00040EA010444EA82144E4D2D1D2D684E4E12
:1015D00035402C434B4D2D1D2C602C46246824F4A3
:1015E00040341C432C6000BF4FF0E06340EA01042C
:1015F00044EA82141C432D68444E35402C43414D2F
:101600002D1D2C6000BF00BF281F006840F08070B7
:10161000291F086000BF00BF00BF3A480068C0F340
:1016200040600028F8D0002036490831096821F0D0
:10163000F0010143334A0832116000BF4FF4A0505B
:101640001146096821F4E0510143116000BF4FF4D5
:1016500000401146096821F460410143116000BF58
:1016600002201146096821F003010143116000BF07
:1016700000BF00BF23480830006800F00C000828B5
:10168000F7D10420042808D14FF0E021096941F086
:1016900004014FF0E022116107E04FF0E0210969F9
:1016A00021F004014FF0E022116100BF1848FFF75C
:1016B0001FFB00BF0A48006840F4807008490860BA
:1016C00000BF00BF0846006840F48060086000BFAB
:1016D00000BF0846006840F40070086000BF70BD9D
:1016E000003C02402E2E5C4170706C69636174692D
:1016F0006F6E5C4150505C6D61696E2E630000003E
:1017000000700040003802400080BFFF0080BFF042
:10171000007A030A1448006840F470001249086017
:101720001248006840F001001049086000200F498D
:10173000083108600D4800680D4908400B490860F1
:101740000C48091D0860081F006820F48020091F4C
:101750000860002005490C3108604FF00060024924
:10176000803908607047000088ED00E000380240D2
:10177000FFFFF6FE1030002410B532480068002844
:101780005ED0304800688069002859D02D4909682A
:1017900088690168C1F3401139B32A490968886929
:1017A000C168C1F3401101B326480068C08EFA2811
:1017B0000ADA2448006800F0E8FC04462146214883
:1017C000006800F0DAFC09E01E48006800F0DDFC6B
:1017D000044621461B48006800F0C7FC00BF6FF0BC
:1017E00020001949086000BF00BF164909688869D0
:1017F0000168C1F3C01151B1124909688869C16813
:10180000C1F3C01119B10F48006800F093FC0D49F5
:10181000096888690168C1F3801189B109490968BB
:101820008869C168C1F3801151B10648006800F0B1
:101830007BFC00BF6FF040000349086000BF00BFA1
:1018400010BD000050000020001001402DE9F043C1
:101850008DB0044601215948FEF7E3FF02200890AD
:101860000320099000200A9001200B904FF4C060E3
:10187000079007200C9007A95048FFF761F95048DE
:10188000FFF73CFA01214E4800F0AEFC4FF4E13086
:10189000009000200190029003900C200490002002
:1018A0000590069069464648FFF784FA00BF444811
:1018B000006920F49040424908610846406920F0E0
:1018C0002A00486100BF25213E4B1B68C3F302205C
:1018D000022500260346C3F10708B8F1040F02D918
:1018E0004FF0040801E0C3F10708C44603F10408FF
:1018F000B8F1070F02D24FF0000801E0A3F103088E
:1019000047464FF0010808FA0CF8A8F1010808EA68
:10191000050808FA07F84FF0010909FA07F9A9F1D3
:10192000010909EA060948EA090200BF002908DAA4
:101930001007050E23480C3001F00F031B1FC55480
:1019400003E01007030E2048435400BF252000F099
:101950001F02012191404209920002F1E022C2F8E7
:10196000001100BF1648FFF71FFA00BF1448C068F7
:1019700040F400501249C86000BF002008600F48C2
:101980006061401520610846A06102202070E06B74
:1019900010B16420E06001E00020E060552060703C
:1019A0005A20A0700021204600F0B4FC07A1204678
:1019B00000F02CFD00200DB0BDE8F08300000240D7
:1019C000001001400CED00E000E400E03D3E3EB4BC
:1019D000AEBFDA31B5C4B3F5CABCBBAF3C3C3D0DBC
:1019E0000A00000010B50346986AD8B11C8CD88C48
:1019F000844201DB00241C84188C58B9012A09D1C7
:101A0000D88CFF2803DA188C801C188402E0188C0C
:101A1000C01C1884188C9C6A2154188C401C188493
:101A2000002010BD0120FCE72DE9F04381460D4662
:101A300016461F460024A04600BF0BE0295D3A462B
:101A40004846FFF7CFFF8046B8F1000F00D003E013
:101A5000601C84B2B442F1DB00BF4046BDE8F083B5
:101A60002DE9F04105460F464FF0000800262C8E68
:101A7000FEF7C6FE00287DD12D20405D01281AD139
:101A8000601E84B2E88EFA2806DAA86B4470A01CA7
:101A9000A96B0E5C84B208E02112A86B4170A86BA0
:101AA0008470E01CA96B0E5C84B22146A86BFEF723
:101AB0009FFE804686E02D20405D02281AD1601EE0
:101AC00084B2E88EFA2806DAA86B4470A01CA96BD1
:101AD0000E5C84B208E02112A86B4170A86B847080
:101AE000E01CA96B0E5C84B22146A86BFEF778FE61
:101AF000804667E02D20405D032826D1A01E84B2D9
:101B0000E88EFA280CDAA86B4470601CA96B0E5C96
:101B1000A01CA96B085C00EB0626A01C84B20EE09A
:101B20002112A86B4170A86B8470A01CA96B0E5C7D
:101B3000E01CA96B085C00EB0626E01C84B2214681
:101B4000A86BFEF73DFE80463CE0687F042839D153
:101B5000201F84B2E88EFA2817DAA86B4470601E42
:101B6000A96B0E5CA86B005D00EB0626601CA96BE0
:101B7000085C00E02BE000EB0626A01CA96B085CCB
:101B800000EB0626A01C84B217E02112A86B41705E
:101B9000A86B8470A86B065D601CA96B085C00EBE9
:101BA0000626A01CA96B085C00EB0626E01CA96BAE
:101BB000085C00EB0626E01C84B22146A86BFEF709
:101BC00007FE8046B0450AD00120BDE8F081E88ECE
:101BD000FA2802DAA01C84B201E0E01C84B23C8046
:101BE0000020F2E710B50446204600F0F6FA10BDDA
:101BF00070B504460D462946204600F05DFB70BDD9
:101C000070B504460D462946204600F06CFB70BDB9
:101C100070B504460D462946204600F07BFB70BD9A
:101C200010B50446204600F08DFB10BD10B50446EB
:101C300000212046FFF7DCFF204600F081F900205C
:101C400010BD10B50446208CE8B1A06AD8B1608CF4
:101C5000A26A115C204600F06BF9608C401C608425
:101C6000618CE08C814201DB00216184618C208CDD
:101C700081420FD100212046FFF7C2FF01212046FB
:101C8000FFF7B6FF06E000212046FFF7B9FF204628
:101C900000F056F9002010BD2DE9FF4F85B0044635
:101CA0000E461746DDE914ABDDE9128900258DE803
:101CB000000F3A4631462046089B00F04BFB054694
:101CC00035B9FEF79DFD18B100212D200155617732
:101CD000284609B0BDE8F08F70B504460D463B4874
:101CE0000570002C6FD0A06900286CD0A06B002874
:101CF00069D02F20005D06285FD2DFE800F00318CE
:101D00002C475F60208E88B9607830490978884216
:101D10000CD12E480178A06B017001212F200155B4
:101D2000204600F0F7F82046FFF75CFF4AE027481E
:101D30000178A06B4170254801786186608E4FF66E
:101D4000FF7101EA0021618602212F200155204602
:101D500000F0E0F836E01D480178A06B8170608EDD
:101D60001A49097808446086608E002807DD618E74
:101D7000E08E814203DA03212F20015502E0002189
:101D80002F200155204600F0C5F81BE00F480178D0
:101D9000208EC01CA26B1154208E401C2086218EE8
:101DA000608E814205DB04212F20015501212E2068
:101DB0000155204600F0AEF804E000BF00BF00204F
:101DC000606000BF00BF002070BD00005500002013
:101DD00070B504460D4631480570002C5CD0A069F2
:101DE000002859D0A06B002856D02F20005D052870
:101DF0004CD2DFE800F00318344C4D00208E88B937
:101E000060782649097888420CD124480178A06B73
:101E1000017001212F200155204600F07BF820465B
:101E2000FFF7E0FE37E01D480078002810DD36207F
:101E3000005D1A49097888420ADD18480178A06BCC
:101E4000417016480178618602212F20015502E079
:101E500000212F200155204600F05CF81BE00F48C0
:101E60000178208E801CA26B1154208E401C20868D
:101E7000218E608E814205DB03212F200155012137
:101E80002E200155204600F045F804E000BF00BFB9
:101E90000020606000BF00BF002070BD5400002023
:101EA00010B50446204600F0FDFA10BD01460022A0
:101EB0002F2042540A864A862E2042540020486031
:101EC0007047000070B504460025606880B1E06886
:101ED00070B12046E16800F023F8054645B120784E
:101EE000421E04A1204600F091FA2046FFF7DEFFD3
:101EF000284670BD3D3E3EBDD3CAD5B4AEBFDA253F
:101F000064B7A2C9FAB3ACCAB1B4EDCEF3213C3C7C
:101F10003D0D0A0010B50446204600F00EFB10BD32
:101F200070B504460D462946204600F01AFB70BDE8
:101F300070B504460D462946204600F02BFB70BDC7
:101F400010B50446002121840121A177002161847C
:101F50002046FFF75DFE002010BD000070B504466E
:101F60000E4603E040480068FEF77AFDA07F002897
:101F7000F8D00021A177FEF743FC00284FD10025BF
:101F8000607F01280AD1218CA06AFEF731FC05464A
:101F9000E9B232462046FFF725FD3FE0607F022888
:101FA0000AD1218CA06AFEF71BFC0546E9B2324635
:101FB0002046FFF717FD31E0607F032810D1218C08
:101FC000A06AFEF7FDFB05463246C5F30721204611
:101FD000FFF708FDE9B232462046FFF703FD1DE09A
:101FE000607F04281AD1218CA06AFEF7F1FB054618
:101FF000290E32462046FFF7F5FC3246C5F307416D
:102000002046FFF7EFFC3246C5F307212046FFF7D5
:10201000E9FCE9B232462046FFF7E4FC00BF012E9E
:1020200017D1A178A06A0170E08CFF2806DA202081
:10203000005D801EC1B2A06A41700AE0208CC01E03
:10204000010AA06A41702020005DC01EC1B2A06AD2
:1020500081700121204600F05DF901212046FFF743
:10206000CFFD002070BD0000440000202DE9F041AC
:1020700004460D4616461F463B4632462946204634
:10208000FFF7D2FCBDE8F08170B504460D46294645
:102090002046FFF7E5FC70BD38B504460D4600202C
:1020A0000090002C28D0204600F038F801281FD1DD
:1020B00069462046FFF7E8FF80B91DB1A16AA06B11
:1020C000A84706E00023BDF800202046A16BFFF7DB
:1020D000CDFF0121204600F06AF805E02078421E7D
:1020E00006A1204600F092F9204600F054F838BDD1
:1020F000204600F056F8FAE70220F8E73D3E3EB4ED
:10210000AEBFDA25643AB7A2C9FA435243D0A3D18D
:10211000E9B4EDCEF33C3C3D0D0A000010B5044699
:102120002046FFF77DFD10BD10B504462046FFF7A1
:102130007DFD10BD10B504462046FFF782FD10BDA1
:102140002DE9FF5F04460D4616461F46DDE910AB3C
:10215000DDE90E893B463246294620468DE8000FD0
:10216000FFF79AFD04B0BDE8F09F70B504460D4638
:1021700029462046FFF7B0FD70BD70B504460D46F8
:1021800029462046FFF724FE70BD10B504462046C0
:10219000FFF786FE10BD10B504462046FFF786FE09
:1021A00010BD10B504462046FFF78CFE10BD70B57B
:1021B00004460D4629462046FFF7D0FE70BD014675
:1021C00039B1886928B188696FF04002026000BFA8
:1021D00001E0012070470020FCE7014609B1002022
:1021E000C87000207047000070B505460C462C48AA
:1021F000854209D11CB11020FEF784FC02E01020BA
:10220000FEF778FC002070BD264885420BD124B132
:102210004FF40030FEF750FC03E04FF40030FEF7BF
:1022200043FC0020EFE7204885420BD124B14FF456
:102230008020FEF741FC03E04FF48020FEF734FCE1
:102240000020E0E71948854209D11CB12020FEF7A3
:1022500059FC02E02020FEF74DFC0020D3E7144893
:1022600085420BD124B14FF40020FEF725FC03E09A
:102270004FF40020FEF718FC0020C4E70D4885420B
:102280000BD124B14FF48010FEF716FC03E04FF49D
:102290008010FEF709FC0020B5E70120B3E700003D
:1022A000001001400044004000480040001401407C
:1022B000004C004000500040024682B1906970B16D
:1022C00031B19069C36843F04003C36000BF08E0C8
:1022D0009069C36823F04003C36000BF01E00120A0
:1022E00070470020FCE7024682B1906970B131B1BD
:1022F0009069C36843F08003C36000BF08E0906941
:10230000C36823F08003C36000BF01E00120704771
:102310000020FCE770B504460D467CB1A06968B1A9
:10232000012D05D10222D4E90410FEF7ABFC07E031
:102330000022D4E90410FEF7A5FC01E0012070BDE5
:102340000020FCE7014611B12E20405C70470020C0
:10235000FCE700002DE9F05F04460D4616461F46D7
:10236000DDE90CABDDE90A89DCB1204600F0BEF8FE
:102370002D200755E586A66384F81DA0A4F82680C5
:10238000C4F82890C4F83CB007480068844205D1DE
:102390000548006810B12046FFF758FA0020BDE854
:1023A000F09F0120FBE7000050000020014639B1FA
:1023B000886928B188690268C2F3801210467047A4
:1023C0000020FCE7014639B1886928B188690268B4
:1023D000C2F3C012104670470020FCE7014639B135
:1023E000886928B18869C268C2F3801210467047B4
:1023F0000020FCE7014639B1886928B18869C268C4
:10240000C2F3C012104670470020FCE70FB4F8B5C5
:1024100005462846FFF7EEFF48B103E01F48006875
:10242000FEF71EFB2846FFF7CDFF0028F6D1284611
:10243000FFF7D4FF70B103E018480068FEF710FB07
:102440002846FFF7B3FF10B1E87F0028F4D02846F4
:10245000FFF7B5FE01212846FFF75CFF00260024A8
:1024600008A800904FF480610D48009B079A00F087
:10247000A1F886B20020009000BF06E00848015D88
:10248000284600F01BF8601C84B2B442F6DB002141
:102490002846FFF73FFFF8BC5DF814FB440000201E
:1024A000C4000020014631B1886920B188694268C2
:1024B000D2B2104670470120FCE7000070B5044618
:1024C0000D462946204600F065F803E006480068FE
:1024D000FEF7C6FA2046FFF769FF0028F6D020462F
:1024E000FFF76DFE002070BD440000200146002073
:1024F000087048708870C87048608860C86008615B
:102500004861886181F82C0000222D2042542F2040
:1025100042540A864A868A86CA868A778A63002057
:1025200008774A77CA770A844A848A84CA8401224F
:102530008A7700228A62C863704710B5044664B186
:10254000A06950B1E06B18B1E06B8047606001E0BA
:10255000002060606068A06001E0012010BD0020E4
:10256000FCE770B504460D4694B1A06980B1E06BFC
:1025700020B1E06B8047801CA06001E00020A060DB
:10258000D4E90110401AA84202D90120E07070BDC0
:102590000020FCE702462AB1906918B190694160B9
:1025A00000BF01E0012070470020FCE700BFFEE70C
:1025B00000BFFEE77CB5044600201D4616460029F4
:1025C0000BD0491ECDE90041044B6A4629463046EE
:1025D00000F0D8F8009A002111707CBDB32E0008DD
:1025E00002E008C8121F08C1002AFAD170477047DC
:1025F000002001E001C1121F002AFBD1704700003A
:102600002DE9FF5F82B00021DDE90430020DDDF825
:1026100040B0034318D044F61050A2F2FF324243B8
:102620001514119801281FD0A5EB0B00401C5FEA80
:10263000000A4FF000064E4FDFF83891B046504682
:1026400015D5CAF1000413E0119801244AA301280A
:1026500001D16FEA0B010298119AC0E90031C0E97B
:10266000024206B0BDE8F09FCBF10000DFE7044670
:102670000021404A491842EB0450CDE9001012E015
:10268000E00707D032463B4640464946FDF783FF08
:102690008046894632463B4610461946FDF77BFF89
:1026A00006460F466410002CEAD1DDE90401DDE99D
:1026B0000023BAF1000F06DAFDF76DFF42464B46E4
:1026C000FDF769FF05E0FDF753FE42464B46FDF777
:1026D0004FFE04460E460022284BFDF7E7FF03D8C5
:1026E0004FF0FF30014607E00022254B20463146DF
:1026F000FDF797FDFDF7C1FF102409E0002C0ADB70
:102700000A220023FDF75CFD039B30321A55641E3C
:1027100050EA0102F2D1641C039AC4F1110314447B
:10272000119A012A03D0012208430DD10AE008437F
:1027300004D000204FF0110B119072E7A3EB0B05B2
:102740006D1E0DE05B4504DD4FF0000205F1010553
:1027500004E003DA4FF00002A5F10105002AECD0F5
:1027600002981199C0E90231C0E9004579E70000FB
:10277000000014400000F03F300000000000F04373
:102780000000E03F2DE9FF4F95B09B468946064685
:1027900000250FE2252877D100242746F84A012199
:1027A000059400E0044316F8013F203B01FA03F0D2
:1027B0001042F7D130782A2811D06FF02F033078EB
:1027C000A0F13002092A16D8059A44F0020402EB5F
:1027D000820203EB42021044761C0590EFE759F8A1
:1027E000042B0592002A03DA504244F40054059069
:1027F00044F00204761C30782E2816D116F8010F0A
:1028000044F004042A280DD06FF02F023078A0F194
:102810003003092B09D807EB870302EB4303C718E2
:10282000761CF3E759F8047B761C30786C280FD0BF
:1028300006DC4C2817D068280DD06A2814D104E093
:10284000742810D07A280FD10DE044F400140AE067
:1028500044F4801401E044F440147278824202D1BE
:1028600004F58014761C761C307866280BD013DCB7
:10287000582877D009DC002875D04528F6D046289E
:10288000F4D047281AD19DE118E0632835D0642898
:1028900079D0652812D195E1702873D008DC6728BB
:1028A000F1D069286FD06E280DD06F2806D1B5E021
:1028B00073282CD0752875D0782874D05A4617996B
:1028C00090476D1C75E1C4F30250022809D003281B
:1028D0000DD0D9F8001004280DD00D6009F10409BD
:1028E00067E1D9F80010EA17C1E90052F6E7D9F814
:1028F00000100D80F2E70D70F0E719F8041B8DF859
:10290000001000208DF80100EA46012003E059F88C
:1029100004AB4FF0FF3061074FF0000102D40DE02F
:1029200008F101018846B9420FDA8045F8DB1AF850
:1029300008100029F4D108E008F10101884681421D
:10294000FADB1AF808100029F6D105985B46A0EBCF
:10295000080721463846179A00F094FA284400EBFD
:10296000080507E04DE029E10DE01AF8010B5A4691
:1029700017999047B8F10108F7D25B4621463846CF
:10298000179A13E142E00A220092C4F302524FF078
:10299000000A022A08D059F804CB032A4FEAEC7146
:1029A0000AD00DE029E02AE009F1070121F0070231
:1029B000F2E802C1914609E00FFA8CFC4FEAEC7193
:1029C000042A03D14FFA8CFC4FEAEC71002907DA94
:1029D0000A460021DCF1000C61EB02012D2202E02D
:1029E000220504D52B228DF80420012203E0E20702
:1029F00001D02022F7E7904659E00A2102E0102298
:102A00000DE010214FF0000A00910BE010224FF072
:102A1000000A44F004040827009203E008224FF063
:102A2000000A0092C4F30252022A05D059F804CBDE
:102A30000021032A08D009E009F1070121F007026B
:102A4000F2E802C1914605E01FFA8CFC042A01D18C
:102A50000CF0FF0C4FF00008220728D5702806D094
:102A6000009B83F0100353EA0A0305D00EE04022D6
:102A70008DF80420012208E05CEA010206D0302231
:102A80008DF804208DF8050002229046009B83F00B
:102A9000080353EA0A030AD15CEA010201D1620782
:102AA00005D530228DF804204FF001087F1E5828EC
:102AB00004D034A003900EA802900DE036A0F9E7F0
:102AC00053466046009AFDF77BFB84460398825C80
:102AD0000298401E029002705CEA0100F0D1029858
:102AE00006A9081A00F1200A600702D524F48034F0
:102AF00000E00127574502DDA7EB0A0000E00020B7
:102B000000EB0A01009005984144401A0590E0034B
:102B100006D45B462146179A059800F0B3F90544A0
:102B2000002706E001A85A46C05D179990476D1C22
:102B30007F1C4745F6DBE0030CD55B462146179A20
:102B4000059800F09FF9054404E030205A46179993
:102B500090476D1C0099481E00900029F5DC08E0A4
:102B6000029802995A460078491C02911799904799
:102B70006D1CBAF10001AAF1010AF1DC65E1000067
:102B80000928010030313233343536373839616243
:102B90006364656600000000303132333435363707
:102BA00038394142434445460000000000F058F9DE
:102BB0000544761C307800287FF4ECAD19B0284627
:102BC000BDE8F08F620700D4062709F1070222F062
:102BD000070CFCE80223E14603F000485FEA080C1A
:102BE00002D00FF2702C0DE05FEA045C02D50FF208
:102BF000682C07E05FEAC47C02D00FF2602C01E091
:102C0000AFF2700C4FF0FF3823F00043CDF850C006
:102C100065280CD006DC452809D046281DD0472859
:102C20003DD13DE0662818D067287ED138E00021EC
:102C3000112F01DB112000E0781CCDE9000106A96D
:102C40000EA8FFF7DDFCDDE90F010E9A03910021CC
:102C5000009207F1010A04914DE04FF00040009707
:102C6000CDE9011006A90EA8FFF7CAFCDDE90F02A5
:102C700003920E9B11990022DDF80CA000930492A0
:102C800011B9791C00EB010AB7EB0A0004D4C0F1BA
:102C9000FF3007F1010A0490AAEB0700019044E01D
:102CA000012F00DA01270021112F01DD112000E0A2
:102CB0003846CDE9000106A90EA8FFF7A1FCDDE921
:102CC0000F010E9A0391002104910092BA46210748
:102CD0000CD40399514500DA8A46BAF1010F05DD9B
:102CE000009AAAF10101515C302908D0B84202DAF9
:102CF00010F1040F06DA0121CDE9011015E0AAF167
:102D00000101E9E7002805DC049901440491AAEBDC
:102D1000000102E0411C514500DD8A460499401A39
:102D2000401C01904FF000400290200704D401980D
:102D3000504501DBCDF8048000208DF84F0002984B
:102D40000DF14F07B0F1004F25D02B200E900298C7
:102D50004FF0020800280CDA404202902D200E901D
:102D600007E00A210298FDF772FB3031029007F864
:102D7000011DB8F10001A8F10108F2DC0298002859
:102D8000EFD1791E0E980870307800F0200040F0E6
:102D9000450007F8020D12A8C01B00F1070814989F
:102DA000007800B1012000EB0A01019801EBE0710D
:102DB00005984144401A401E0590E00306D45B4646
:102DC0002146179A059800F05DF80544149800789C
:102DD00018B15A46179990476D1CE00324D55B46FD
:102DE0002146179A059800F04DF805441CE0049818
:102DF000002807DBDDE90301884203DD0098405C21
:102E0000179901E0179930205A469047049805F128
:102E10000105401C04900198401E019004D12E2011
:102E20005A46179990476D1CBAF10001AAF1010AA0
:102E3000DDDC05E017F8010B5A46179990476D1C29
:102E4000B8F10001A8F10108F4DC5B462146179AAD
:102E50000598ABE62D0000002B00000020000000CC
:102E60002DE9F041044600251E461746880404D487
:102E700005E039462020B0476D1C641EF9D5284670
:102E8000BDE8F0812DE9F041044600251E4690463C
:102E9000C80301D5302700E02027880404D505E0C9
:102EA00041463846B0476D1C641EF9D52846BDE83A
:102EB000F0814A68002A06D00A68531C0B60107023
:102EC0004868401E48607047FEF7D8FA08E00021C5
:102ED00004480068FFF7E0F803480068FDF7C0FD0C
:102EE000F5E7000050000020440000200000000032
:102EF00000000000010203040607080900000000AA
:102F000001020304242F00080000002058000000E4
:102F1000E02500087C2F00085800002070140000F5
:102F2000F02500080024F40000000000100000005C
:102F300001000000000102030405060708090A0B4E
:102F40000C0D0E0F0000000000000000010000004A
:102F50000000000000000000000000000000000071
:102F60002800002000300040400000200000000049
:0C2F700068000020840000200000000029
:040000050800018965
:00000001FF
